{
  "_format": "hh-sol-artifact-1",
  "contractName": "SuperBridge",
  "sourceName": "contracts/SuperBridge.sol",
  "abi": [
    {
      "inputs": [],
      "stateMutability": "nonpayable",
      "type": "constructor"
    },
    {
      "anonymous": false,
      "inputs": [
        {
          "indexed": true,
          "internalType": "address",
          "name": "sender",
          "type": "address"
        },
        {
          "indexed": false,
          "internalType": "uint256",
          "name": "originalAmount",
          "type": "uint256"
        },
        {
          "indexed": false,
          "internalType": "uint256",
          "name": "feeAmount",
          "type": "uint256"
        },
        {
          "indexed": false,
          "internalType": "uint256",
          "name": "bridgedAmount",
          "type": "uint256"
        }
      ],
      "name": "Bridge",
      "type": "event"
    },
    {
      "inputs": [],
      "name": "BPS_DENOMINATOR",
      "outputs": [
        {
          "internalType": "uint256",
          "name": "",
          "type": "uint256"
        }
      ],
      "stateMutability": "view",
      "type": "function"
    },
    {
      "inputs": [],
      "name": "FEE_BPS",
      "outputs": [
        {
          "internalType": "uint256",
          "name": "",
          "type": "uint256"
        }
      ],
      "stateMutability": "view",
      "type": "function"
    },
    {
      "inputs": [],
      "name": "bridge",
      "outputs": [],
      "stateMutability": "payable",
      "type": "function"
    },
    {
      "inputs": [],
      "name": "feeRecipient",
      "outputs": [
        {
          "internalType": "address",
          "name": "",
          "type": "address"
        }
      ],
      "stateMutability": "view",
      "type": "function"
    },
    {
      "inputs": [
        {
          "internalType": "address",
          "name": "",
          "type": "address"
        }
      ],
      "name": "totalBridged",
      "outputs": [
        {
          "internalType": "uint256",
          "name": "",
          "type": "uint256"
        }
      ],
      "stateMutability": "view",
      "type": "function"
    }
  ],
  "bytecode": "0x60a060405234801561001057600080fd5b503373ffffffffffffffffffffffffffffffffffffffff1660808173ffffffffffffffffffffffffffffffffffffffff168152505060805161070c6100676000396000818161013101526101d5015261070c6000f3fe60806040526004361061004a5760003560e01c8063082568d01461004f578063469048401461008c578063bf333f2c146100b7578063e1a45218146100e2578063e78cea921461010d575b600080fd5b34801561005b57600080fd5b50610076600480360381019061007191906103ac565b610117565b60405161008391906103f2565b60405180910390f35b34801561009857600080fd5b506100a161012f565b6040516100ae919061041c565b60405180910390f35b3480156100c357600080fd5b506100cc610153565b6040516100d991906103f2565b60405180910390f35b3480156100ee57600080fd5b506100f7610159565b60405161010491906103f2565b60405180910390f35b61011561015f565b005b60006020528060005260406000206000915090505481565b7f000000000000000000000000000000000000000000000000000000000000000081565b6101f481565b61271081565b600034116101a2576040517f08c379a000000000000000000000000000000000000000000000000000000000815260040161019990610494565b60405180910390fd5b60006127106101f4346101b591906104e3565b6101bf9190610554565b9050600081346101cf9190610585565b905060007f000000000000000000000000000000000000000000000000000000000000000073ffffffffffffffffffffffffffffffffffffffff1634604051610217906105ea565b60006040518083038185875af1925050503d8060008114610254576040519150601f19603f3d011682016040523d82523d6000602084013e610259565b606091505b505090508061029d576040517f08c379a00000000000000000000000000000000000000000000000000000000081526004016102949061064b565b60405180910390fd5b816000803373ffffffffffffffffffffffffffffffffffffffff1673ffffffffffffffffffffffffffffffffffffffff16815260200190815260200160002060008282546102eb919061066b565b925050819055503373ffffffffffffffffffffffffffffffffffffffff167f65376697c6f1bb662fc6185cafbff8da1148538a94fad00b2de2f48e63312b2a34858560405161033c9392919061069f565b60405180910390a2505050565b600080fd5b600073ffffffffffffffffffffffffffffffffffffffff82169050919050565b60006103798261034e565b9050919050565b6103898161036e565b811461039457600080fd5b50565b6000813590506103a681610380565b92915050565b6000602082840312156103c2576103c1610349565b5b60006103d084828501610397565b91505092915050565b6000819050919050565b6103ec816103d9565b82525050565b600060208201905061040760008301846103e3565b92915050565b6104168161036e565b82525050565b6000602082019050610431600083018461040d565b92915050565b600082825260208201905092915050565b7f53656e6420736f6d652050455055000000000000000000000000000000000000600082015250565b600061047e600e83610437565b915061048982610448565b602082019050919050565b600060208201905081810360008301526104ad81610471565b9050919050565b7f4e487b7100000000000000000000000000000000000000000000000000000000600052601160045260246000fd5b60006104ee826103d9565b91506104f9836103d9565b9250828202610507816103d9565b9150828204841483151761051e5761051d6104b4565b5b5092915050565b7f4e487b7100000000000000000000000000000000000000000000000000000000600052601260045260246000fd5b600061055f826103d9565b915061056a836103d9565b92508261057a57610579610525565b5b828204905092915050565b6000610590826103d9565b915061059b836103d9565b92508282039050818111156105b3576105b26104b4565b5b92915050565b600081905092915050565b50565b60006105d46000836105b9565b91506105df826105c4565b600082019050919050565b60006105f5826105c7565b9150819050919050565b7f466f7277617264206661696c6564000000000000000000000000000000000000600082015250565b6000610635600e83610437565b9150610640826105ff565b602082019050919050565b6000602082019050818103600083015261066481610628565b9050919050565b6000610676826103d9565b9150610681836103d9565b9250828201905080821115610699576106986104b4565b5b92915050565b60006060820190506106b460008301866103e3565b6106c160208301856103e3565b6106ce60408301846103e3565b94935050505056fea2646970667358221220fb8c4cf53172099b6a3161660b153134d40238bd4b269dd1417032aae14061d864736f6c63430008140033",
  "linkReferences": {},
  "deployedLinkReferences": {}
}