{
  "_format": "hh-sol-artifact-1",
  "contractName": "SuperBridge",
  "sourceName": "contracts/SuperBridge.sol",
  "abi": [
    {
      "inputs": [],
      "stateMutability": "nonpayable",
      "type": "constructor"
    },
    {
      "anonymous": false,
      "inputs": [
        {
          "indexed": true,
          "internalType": "address",
          "name": "sender",
          "type": "address"
        },
        {
          "indexed": false,
          "internalType": "uint256",
          "name": "originalAmount",
          "type": "uint256"
        },
        {
          "indexed": false,
          "internalType": "uint256",
          "name": "feeAmount",
          "type": "uint256"
        },
        {
          "indexed": false,
          "internalType": "uint256",
          "name": "bridgedAmount",
          "type": "uint256"
        }
      ],
      "name": "Bridge",
      "type": "event"
    },
    {
      "inputs": [],
      "name": "BPS_DENOMINATOR",
      "outputs": [
        {
          "internalType": "uint256",
          "name": "",
          "type": "uint256"
        }
      ],
      "stateMutability": "view",
      "type": "function"
    },
    {
      "inputs": [],
      "name": "FEE_BPS",
      "outputs": [
        {
          "internalType": "uint256",
          "name": "",
          "type": "uint256"
        }
      ],
      "stateMutability": "view",
      "type": "function"
    },
    {
      "inputs": [],
      "name": "bridge",
      "outputs": [],
      "stateMutability": "payable",
      "type": "function"
    },
    {
      "inputs": [],
      "name": "feeRecipient",
      "outputs": [
        {
          "internalType": "address",
          "name": "",
          "type": "address"
        }
      ],
      "stateMutability": "view",
      "type": "function"
    },
    {
      "inputs": [
        {
          "internalType": "address",
          "name": "",
          "type": "address"
        }
      ],
      "name": "isFeeExempt",
      "outputs": [
        {
          "internalType": "bool",
          "name": "",
          "type": "bool"
        }
      ],
      "stateMutability": "view",
      "type": "function"
    },
    {
      "inputs": [
        {
          "internalType": "address",
          "name": "user",
          "type": "address"
        },
        {
          "internalType": "bool",
          "name": "exempt",
          "type": "bool"
        }
      ],
      "name": "setFeeExempt",
      "outputs": [],
      "stateMutability": "nonpayable",
      "type": "function"
    },
    {
      "inputs": [
        {
          "internalType": "address",
          "name": "",
          "type": "address"
        }
      ],
      "name": "totalBridged",
      "outputs": [
        {
          "internalType": "uint256",
          "name": "",
          "type": "uint256"
        }
      ],
      "stateMutability": "view",
      "type": "function"
    }
  ],
  "bytecode": "0x60a060405234801561001057600080fd5b503373ffffffffffffffffffffffffffffffffffffffff1660808173ffffffffffffffffffffffffffffffffffffffff168152505060018060007317cabc8001a30800835dd8206ceb0c4ba90b591373ffffffffffffffffffffffffffffffffffffffff1673ffffffffffffffffffffffffffffffffffffffff16815260200190815260200160002060006101000a81548160ff021916908315150217905550608051610a036100d9600039600081816101dd0152818161020101526103be0152610a036000f3fe6080604052600436106100705760003560e01c80638ebfc7961161004e5780638ebfc7961461011a578063bf333f2c14610143578063e1a452181461016e578063e78cea921461019957610070565b8063082568d0146100755780633f4218e0146100b257806346904840146100ef575b600080fd5b34801561008157600080fd5b5061009c60048036038101906100979190610595565b6101a3565b6040516100a991906105db565b60405180910390f35b3480156100be57600080fd5b506100d960048036038101906100d49190610595565b6101bb565b6040516100e69190610611565b60405180910390f35b3480156100fb57600080fd5b506101046101db565b604051610111919061063b565b60405180910390f35b34801561012657600080fd5b50610141600480360381019061013c9190610682565b6101ff565b005b34801561014f57600080fd5b506101586102e8565b60405161016591906105db565b60405180910390f35b34801561017a57600080fd5b506101836102ee565b60405161019091906105db565b60405180910390f35b6101a16102f4565b005b60006020528060005260406000206000915090505481565b60016020528060005260406000206000915054906101000a900460ff1681565b7f000000000000000000000000000000000000000000000000000000000000000081565b7f000000000000000000000000000000000000000000000000000000000000000073ffffffffffffffffffffffffffffffffffffffff163373ffffffffffffffffffffffffffffffffffffffff161461028d576040517f08c379a00000000000000000000000000000000000000000000000000000000081526004016102849061071f565b60405180910390fd5b80600160008473ffffffffffffffffffffffffffffffffffffffff1673ffffffffffffffffffffffffffffffffffffffff16815260200190815260200160002060006101000a81548160ff0219169083151502179055505050565b6101f481565b61271081565b60003411610337576040517f08c379a000000000000000000000000000000000000000000000000000000000815260040161032e9061078b565b60405180910390fd5b600080349050600160003373ffffffffffffffffffffffffffffffffffffffff1673ffffffffffffffffffffffffffffffffffffffff16815260200190815260200160002060009054906101000a900460ff166103ba576127106101f43461039f91906107da565b6103a9919061084b565b915081346103b7919061087c565b90505b60007f000000000000000000000000000000000000000000000000000000000000000073ffffffffffffffffffffffffffffffffffffffff1634604051610400906108e1565b60006040518083038185875af1925050503d806000811461043d576040519150601f19603f3d011682016040523d82523d6000602084013e610442565b606091505b5050905080610486576040517f08c379a000000000000000000000000000000000000000000000000000000000815260040161047d90610942565b60405180910390fd5b816000803373ffffffffffffffffffffffffffffffffffffffff1673ffffffffffffffffffffffffffffffffffffffff16815260200190815260200160002060008282546104d49190610962565b925050819055503373ffffffffffffffffffffffffffffffffffffffff167f65376697c6f1bb662fc6185cafbff8da1148538a94fad00b2de2f48e63312b2a34858560405161052593929190610996565b60405180910390a2505050565b600080fd5b600073ffffffffffffffffffffffffffffffffffffffff82169050919050565b600061056282610537565b9050919050565b61057281610557565b811461057d57600080fd5b50565b60008135905061058f81610569565b92915050565b6000602082840312156105ab576105aa610532565b5b60006105b984828501610580565b91505092915050565b6000819050919050565b6105d5816105c2565b82525050565b60006020820190506105f060008301846105cc565b92915050565b60008115159050919050565b61060b816105f6565b82525050565b60006020820190506106266000830184610602565b92915050565b61063581610557565b82525050565b6000602082019050610650600083018461062c565b92915050565b61065f816105f6565b811461066a57600080fd5b50565b60008135905061067c81610656565b92915050565b6000806040838503121561069957610698610532565b5b60006106a785828601610580565b92505060206106b88582860161066d565b9150509250929050565b600082825260208201905092915050565b7f4e6f7420617574686f72697a6564000000000000000000000000000000000000600082015250565b6000610709600e836106c2565b9150610714826106d3565b602082019050919050565b60006020820190508181036000830152610738816106fc565b9050919050565b7f53656e6420736f6d652050455055000000000000000000000000000000000000600082015250565b6000610775600e836106c2565b91506107808261073f565b602082019050919050565b600060208201905081810360008301526107a481610768565b9050919050565b7f4e487b7100000000000000000000000000000000000000000000000000000000600052601160045260246000fd5b60006107e5826105c2565b91506107f0836105c2565b92508282026107fe816105c2565b91508282048414831517610815576108146107ab565b5b5092915050565b7f4e487b7100000000000000000000000000000000000000000000000000000000600052601260045260246000fd5b6000610856826105c2565b9150610861836105c2565b9250826108715761087061081c565b5b828204905092915050565b6000610887826105c2565b9150610892836105c2565b92508282039050818111156108aa576108a96107ab565b5b92915050565b600081905092915050565b50565b60006108cb6000836108b0565b91506108d6826108bb565b600082019050919050565b60006108ec826108be565b9150819050919050565b7f466f7277617264206661696c6564000000000000000000000000000000000000600082015250565b600061092c600e836106c2565b9150610937826108f6565b602082019050919050565b6000602082019050818103600083015261095b8161091f565b9050919050565b600061096d826105c2565b9150610978836105c2565b92508282019050808211156109905761098f6107ab565b5b92915050565b60006060820190506109ab60008301866105cc565b6109b860208301856105cc565b6109c560408301846105cc565b94935050505056fea2646970667358221220a05b8e23bbb3adbd60dfb52b019c2c8f4dde25ea076f03c54a1870cbde476d6464736f6c63430008140033",
  "linkReferences": {},
  "deployedLinkReferences": {}
}