{
  "_format": "hh-sol-artifact-1",
  "contractName": "SuperBridgeL1",
  "sourceName": "contracts/SuperBridgeL1.sol",
  "abi": [
    {
      "inputs": [],
      "stateMutability": "nonpayable",
      "type": "constructor"
    },
    {
      "inputs": [
        {
          "internalType": "address",
          "name": "target",
          "type": "address"
        }
      ],
      "name": "AddressEmptyCode",
      "type": "error"
    },
    {
      "inputs": [],
      "name": "AlreadyPaid",
      "type": "error"
    },
    {
      "inputs": [
        {
          "internalType": "address",
          "name": "implementation",
          "type": "address"
        }
      ],
      "name": "ERC1967InvalidImplementation",
      "type": "error"
    },
    {
      "inputs": [],
      "name": "ERC1967NonPayable",
      "type": "error"
    },
    {
      "inputs": [],
      "name": "EmergencyNotReady",
      "type": "error"
    },
    {
      "inputs": [],
      "name": "EnforcedPause",
      "type": "error"
    },
    {
      "inputs": [],
      "name": "ExpectedPause",
      "type": "error"
    },
    {
      "inputs": [],
      "name": "FailedCall",
      "type": "error"
    },
    {
      "inputs": [],
      "name": "InsufficientBalance",
      "type": "error"
    },
    {
      "inputs": [],
      "name": "InvalidInitialization",
      "type": "error"
    },
    {
      "inputs": [],
      "name": "InvalidTimelock",
      "type": "error"
    },
    {
      "inputs": [],
      "name": "InvalidToken",
      "type": "error"
    },
    {
      "inputs": [],
      "name": "InvalidUpgrade",
      "type": "error"
    },
    {
      "inputs": [],
      "name": "NotEmergencyOperator",
      "type": "error"
    },
    {
      "inputs": [],
      "name": "NotInitializing",
      "type": "error"
    },
    {
      "inputs": [
        {
          "internalType": "address",
          "name": "owner",
          "type": "address"
        }
      ],
      "name": "OwnableInvalidOwner",
      "type": "error"
    },
    {
      "inputs": [
        {
          "internalType": "address",
          "name": "account",
          "type": "address"
        }
      ],
      "name": "OwnableUnauthorizedAccount",
      "type": "error"
    },
    {
      "inputs": [],
      "name": "PayoutFailed",
      "type": "error"
    },
    {
      "inputs": [],
      "name": "ReentrancyGuardReentrantCall",
      "type": "error"
    },
    {
      "inputs": [],
      "name": "UUPSUnauthorizedCallContext",
      "type": "error"
    },
    {
      "inputs": [
        {
          "internalType": "bytes32",
          "name": "slot",
          "type": "bytes32"
        }
      ],
      "name": "UUPSUnsupportedProxiableUUID",
      "type": "error"
    },
    {
      "inputs": [],
      "name": "UpgradeNotReady",
      "type": "error"
    },
    {
      "inputs": [],
      "name": "UpgradeNotScheduled",
      "type": "error"
    },
    {
      "inputs": [],
      "name": "WithdrawFailed",
      "type": "error"
    },
    {
      "anonymous": false,
      "inputs": [
        {
          "indexed": true,
          "internalType": "address",
          "name": "operator",
          "type": "address"
        },
        {
          "indexed": false,
          "internalType": "bool",
          "name": "status",
          "type": "bool"
        }
      ],
      "name": "EmergencyOperatorUpdated",
      "type": "event"
    },
    {
      "anonymous": false,
      "inputs": [
        {
          "indexed": false,
          "internalType": "address",
          "name": "token",
          "type": "address"
        },
        {
          "indexed": false,
          "internalType": "uint256",
          "name": "amount",
          "type": "uint256"
        }
      ],
      "name": "EmergencyWithdrawExecuted",
      "type": "event"
    },
    {
      "anonymous": false,
      "inputs": [
        {
          "indexed": false,
          "internalType": "uint256",
          "name": "executeTime",
          "type": "uint256"
        }
      ],
      "name": "EmergencyWithdrawInitiated",
      "type": "event"
    },
    {
      "anonymous": false,
      "inputs": [
        {
          "indexed": false,
          "internalType": "uint64",
          "name": "version",
          "type": "uint64"
        }
      ],
      "name": "Initialized",
      "type": "event"
    },
    {
      "anonymous": false,
      "inputs": [
        {
          "indexed": true,
          "internalType": "address",
          "name": "previousOwner",
          "type": "address"
        },
        {
          "indexed": true,
          "internalType": "address",
          "name": "newOwner",
          "type": "address"
        }
      ],
      "name": "OwnershipTransferred",
      "type": "event"
    },
    {
      "anonymous": false,
      "inputs": [
        {
          "indexed": false,
          "internalType": "address",
          "name": "account",
          "type": "address"
        }
      ],
      "name": "Paused",
      "type": "event"
    },
    {
      "anonymous": false,
      "inputs": [
        {
          "indexed": true,
          "internalType": "bytes32",
          "name": "transferId",
          "type": "bytes32"
        },
        {
          "indexed": true,
          "internalType": "address",
          "name": "user",
          "type": "address"
        },
        {
          "indexed": false,
          "internalType": "uint256",
          "name": "bridgedAmount",
          "type": "uint256"
        }
      ],
      "name": "PayoutCompleted",
      "type": "event"
    },
    {
      "anonymous": false,
      "inputs": [
        {
          "indexed": false,
          "internalType": "uint256",
          "name": "oldTimelock",
          "type": "uint256"
        },
        {
          "indexed": false,
          "internalType": "uint256",
          "name": "newTimelock",
          "type": "uint256"
        }
      ],
      "name": "TimelockUpdated",
      "type": "event"
    },
    {
      "anonymous": false,
      "inputs": [
        {
          "indexed": false,
          "internalType": "address",
          "name": "oldToken",
          "type": "address"
        },
        {
          "indexed": false,
          "internalType": "address",
          "name": "newToken",
          "type": "address"
        }
      ],
      "name": "TokenUpdated",
      "type": "event"
    },
    {
      "anonymous": false,
      "inputs": [
        {
          "indexed": false,
          "internalType": "address",
          "name": "account",
          "type": "address"
        }
      ],
      "name": "Unpaused",
      "type": "event"
    },
    {
      "anonymous": false,
      "inputs": [
        {
          "indexed": true,
          "internalType": "bytes32",
          "name": "upgradeHash",
          "type": "bytes32"
        }
      ],
      "name": "UpgradeCancelled",
      "type": "event"
    },
    {
      "anonymous": false,
      "inputs": [
        {
          "indexed": true,
          "internalType": "bytes32",
          "name": "upgradeHash",
          "type": "bytes32"
        },
        {
          "indexed": false,
          "internalType": "address",
          "name": "newImplementation",
          "type": "address"
        }
      ],
      "name": "UpgradeExecuted",
      "type": "event"
    },
    {
      "anonymous": false,
      "inputs": [
        {
          "indexed": true,
          "internalType": "bytes32",
          "name": "upgradeHash",
          "type": "bytes32"
        },
        {
          "indexed": false,
          "internalType": "address",
          "name": "newImplementation",
          "type": "address"
        },
        {
          "indexed": false,
          "internalType": "uint256",
          "name": "executeTime",
          "type": "uint256"
        }
      ],
      "name": "UpgradeScheduled",
      "type": "event"
    },
    {
      "anonymous": false,
      "inputs": [
        {
          "indexed": true,
          "internalType": "address",
          "name": "implementation",
          "type": "address"
        }
      ],
      "name": "Upgraded",
      "type": "event"
    },
    {
      "inputs": [],
      "name": "TOKEN",
      "outputs": [
        {
          "internalType": "address",
          "name": "",
          "type": "address"
        }
      ],
      "stateMutability": "view",
      "type": "function"
    },
    {
      "inputs": [],
      "name": "UPGRADE_INTERFACE_VERSION",
      "outputs": [
        {
          "internalType": "string",
          "name": "",
          "type": "string"
        }
      ],
      "stateMutability": "view",
      "type": "function"
    },
    {
      "inputs": [
        {
          "internalType": "address",
          "name": "newImplementation",
          "type": "address"
        },
        {
          "internalType": "uint256",
          "name": "scheduleTime",
          "type": "uint256"
        }
      ],
      "name": "cancelUpgrade",
      "outputs": [],
      "stateMutability": "nonpayable",
      "type": "function"
    },
    {
      "inputs": [
        {
          "internalType": "address",
          "name": "",
          "type": "address"
        }
      ],
      "name": "emergencyOperators",
      "outputs": [
        {
          "internalType": "bool",
          "name": "",
          "type": "bool"
        }
      ],
      "stateMutability": "view",
      "type": "function"
    },
    {
      "inputs": [],
      "name": "emergencyPause",
      "outputs": [],
      "stateMutability": "nonpayable",
      "type": "function"
    },
    {
      "inputs": [],
      "name": "emergencyWithdrawDelay",
      "outputs": [
        {
          "internalType": "uint256",
          "name": "",
          "type": "uint256"
        }
      ],
      "stateMutability": "view",
      "type": "function"
    },
    {
      "inputs": [],
      "name": "emergencyWithdrawTime",
      "outputs": [
        {
          "internalType": "uint256",
          "name": "",
          "type": "uint256"
        }
      ],
      "stateMutability": "view",
      "type": "function"
    },
    {
      "inputs": [
        {
          "internalType": "address",
          "name": "token",
          "type": "address"
        },
        {
          "internalType": "uint256",
          "name": "amount",
          "type": "uint256"
        }
      ],
      "name": "executeEmergencyWithdraw",
      "outputs": [],
      "stateMutability": "nonpayable",
      "type": "function"
    },
    {
      "inputs": [
        {
          "internalType": "address",
          "name": "newImplementation",
          "type": "address"
        },
        {
          "internalType": "uint256",
          "name": "scheduleTime",
          "type": "uint256"
        }
      ],
      "name": "executeUpgrade",
      "outputs": [],
      "stateMutability": "nonpayable",
      "type": "function"
    },
    {
      "inputs": [],
      "name": "getBalance",
      "outputs": [
        {
          "internalType": "uint256",
          "name": "",
          "type": "uint256"
        }
      ],
      "stateMutability": "view",
      "type": "function"
    },
    {
      "inputs": [
        {
          "internalType": "address",
          "name": "implementation",
          "type": "address"
        },
        {
          "internalType": "uint256",
          "name": "scheduleTime",
          "type": "uint256"
        }
      ],
      "name": "getUpgradeTime",
      "outputs": [
        {
          "internalType": "uint256",
          "name": "",
          "type": "uint256"
        }
      ],
      "stateMutability": "view",
      "type": "function"
    },
    {
      "inputs": [],
      "name": "getVersion",
      "outputs": [
        {
          "internalType": "string",
          "name": "",
          "type": "string"
        }
      ],
      "stateMutability": "view",
      "type": "function"
    },
    {
      "inputs": [
        {
          "internalType": "address",
          "name": "_token",
          "type": "address"
        },
        {
          "internalType": "uint256",
          "name": "_upgradeTimelock",
          "type": "uint256"
        }
      ],
      "name": "initialize",
      "outputs": [],
      "stateMutability": "nonpayable",
      "type": "function"
    },
    {
      "inputs": [],
      "name": "initiateEmergencyWithdraw",
      "outputs": [],
      "stateMutability": "nonpayable",
      "type": "function"
    },
    {
      "inputs": [
        {
          "internalType": "address",
          "name": "implementation",
          "type": "address"
        },
        {
          "internalType": "uint256",
          "name": "scheduleTime",
          "type": "uint256"
        }
      ],
      "name": "isUpgradeReady",
      "outputs": [
        {
          "internalType": "bool",
          "name": "",
          "type": "bool"
        }
      ],
      "stateMutability": "view",
      "type": "function"
    },
    {
      "inputs": [],
      "name": "owner",
      "outputs": [
        {
          "internalType": "address",
          "name": "",
          "type": "address"
        }
      ],
      "stateMutability": "view",
      "type": "function"
    },
    {
      "inputs": [],
      "name": "paused",
      "outputs": [
        {
          "internalType": "bool",
          "name": "",
          "type": "bool"
        }
      ],
      "stateMutability": "view",
      "type": "function"
    },
    {
      "inputs": [
        {
          "internalType": "bytes32",
          "name": "transferId",
          "type": "bytes32"
        },
        {
          "internalType": "address",
          "name": "user",
          "type": "address"
        },
        {
          "internalType": "uint256",
          "name": "bridgedAmount",
          "type": "uint256"
        }
      ],
      "name": "payout",
      "outputs": [],
      "stateMutability": "nonpayable",
      "type": "function"
    },
    {
      "inputs": [
        {
          "internalType": "bytes32",
          "name": "",
          "type": "bytes32"
        }
      ],
      "name": "payoutCompleted",
      "outputs": [
        {
          "internalType": "bool",
          "name": "",
          "type": "bool"
        }
      ],
      "stateMutability": "view",
      "type": "function"
    },
    {
      "inputs": [
        {
          "internalType": "bytes32",
          "name": "",
          "type": "bytes32"
        }
      ],
      "name": "pendingUpgrades",
      "outputs": [
        {
          "internalType": "uint256",
          "name": "",
          "type": "uint256"
        }
      ],
      "stateMutability": "view",
      "type": "function"
    },
    {
      "inputs": [],
      "name": "proxiableUUID",
      "outputs": [
        {
          "internalType": "bytes32",
          "name": "",
          "type": "bytes32"
        }
      ],
      "stateMutability": "view",
      "type": "function"
    },
    {
      "inputs": [],
      "name": "renounceOwnership",
      "outputs": [],
      "stateMutability": "nonpayable",
      "type": "function"
    },
    {
      "inputs": [
        {
          "internalType": "address",
          "name": "newImplementation",
          "type": "address"
        }
      ],
      "name": "scheduleUpgrade",
      "outputs": [],
      "stateMutability": "nonpayable",
      "type": "function"
    },
    {
      "inputs": [
        {
          "internalType": "address",
          "name": "operator",
          "type": "address"
        },
        {
          "internalType": "bool",
          "name": "status",
          "type": "bool"
        }
      ],
      "name": "setEmergencyOperator",
      "outputs": [],
      "stateMutability": "nonpayable",
      "type": "function"
    },
    {
      "inputs": [
        {
          "internalType": "address",
          "name": "newOwner",
          "type": "address"
        }
      ],
      "name": "transferOwnership",
      "outputs": [],
      "stateMutability": "nonpayable",
      "type": "function"
    },
    {
      "inputs": [],
      "name": "unpause",
      "outputs": [],
      "stateMutability": "nonpayable",
      "type": "function"
    },
    {
      "inputs": [
        {
          "internalType": "uint256",
          "name": "newTimelock",
          "type": "uint256"
        }
      ],
      "name": "updateTimelock",
      "outputs": [],
      "stateMutability": "nonpayable",
      "type": "function"
    },
    {
      "inputs": [
        {
          "internalType": "address",
          "name": "newToken",
          "type": "address"
        }
      ],
      "name": "updateToken",
      "outputs": [],
      "stateMutability": "nonpayable",
      "type": "function"
    },
    {
      "inputs": [],
      "name": "upgradeTimelock",
      "outputs": [
        {
          "internalType": "uint256",
          "name": "",
          "type": "uint256"
        }
      ],
      "stateMutability": "view",
      "type": "function"
    },
    {
      "inputs": [
        {
          "internalType": "address",
          "name": "newImplementation",
          "type": "address"
        },
        {
          "internalType": "bytes",
          "name": "data",
          "type": "bytes"
        }
      ],
      "name": "upgradeToAndCall",
      "outputs": [],
      "stateMutability": "payable",
      "type": "function"
    },
    {
      "inputs": [],
      "name": "version",
      "outputs": [
        {
          "internalType": "string",
          "name": "",
          "type": "string"
        }
      ],
      "stateMutability": "view",
      "type": "function"
    }
  ],
  "bytecode": "0x60a06040523073ffffffffffffffffffffffffffffffffffffffff1660809073ffffffffffffffffffffffffffffffffffffffff168152503480156200004457600080fd5b50620000556200005b60201b60201c565b620001ee565b60006200006d6200016560201b60201c565b90508060000160089054906101000a900460ff1615620000b9576040517ff92ee8a900000000000000000000000000000000000000000000000000000000815260040160405180910390fd5b67ffffffffffffffff80168160000160009054906101000a900467ffffffffffffffff1667ffffffffffffffff1614620001625767ffffffffffffffff8160000160006101000a81548167ffffffffffffffff021916908367ffffffffffffffff1602179055507fc7f505b2f371ae2175ee4913f4499e1f2633a7b5936321eed1cdaeb6115181d267ffffffffffffffff604051620001599190620001d1565b60405180910390a15b50565b600080620001786200018160201b60201c565b90508091505090565b60007ff0c57e16840df040f15088dc2f81fe391c3923bec73e23a9662efc9c229c6a0060001b905090565b600067ffffffffffffffff82169050919050565b620001cb81620001ac565b82525050565b6000602082019050620001e86000830184620001c0565b92915050565b608051612fa76200021860003960008181611a7e01528181611ad30152611d660152612fa76000f3fe6080604052600436106101d85760003560e01c80635c975abb11610102578063ad3cb1cc11610095578063de9b948811610064578063de9b94881461063f578063f2fde38b1461066a578063f7f4365e14610693578063fa1ccffd146106d0576101d8565b8063ad3cb1cc14610571578063b70e2d2d1461059c578063cd6dc687146105d9578063d8c1711414610602576101d8565b806382bfefc8116100d157806382bfefc8146104d95780638c879fb9146105045780638da5cb5b1461052f578063ac856cea1461055a576101d8565b80635c975abb14610443578063715018a61461046e57806372070b81146104855780637ad3def2146104b0576101d8565b80633e718e831161017a5780634f1ef286116101495780634f1ef286146103ba57806351858e27146103d657806352d1902d146103ed57806354fd4d5014610418576101d8565b80633e718e83146103285780633f4ba83a1461035157806346679fa3146103685780634f07889414610391576101d8565b80630c80447a116101b65780630c80447a146102805780630d8e6e2c146102a957806312065fe0146102d45780631f52f7fa146102ff576101d8565b806302e88899146101dd57806305acedf51461020657806309705de814610243575b600080fd5b3480156101e957600080fd5b5061020460048036038101906101ff91906124e1565b6106f9565b005b34801561021257600080fd5b5061022d60048036038101906102289190612557565b6107aa565b60405161023a91906125a6565b60405180910390f35b34801561024f57600080fd5b5061026a600480360381019061026591906125c1565b61080b565b60405161027791906125a6565b60405180910390f35b34801561028c57600080fd5b506102a760048036038101906102a291906125c1565b61082b565b005b3480156102b557600080fd5b506102be6108c9565b6040516102cb919061267e565b60405180910390f35b3480156102e057600080fd5b506102e961095b565b6040516102f691906126af565b60405180910390f35b34801561030b57600080fd5b5061032660048036038101906103219190612700565b6109fd565b005b34801561033457600080fd5b5061034f600480360381019061034a9190612557565b610c82565b005b34801561035d57600080fd5b50610366610d98565b005b34801561037457600080fd5b5061038f600480360381019061038a9190612557565b610daa565b005b34801561039d57600080fd5b506103b860048036038101906103b39190612557565b610e75565b005b6103d460048036038101906103cf9190612888565b610fbf565b005b3480156103e257600080fd5b506103eb610fde565b005b3480156103f957600080fd5b5061040261106b565b60405161040f91906128f3565b60405180910390f35b34801561042457600080fd5b5061042d61109e565b60405161043a919061267e565b60405180910390f35b34801561044f57600080fd5b5061045861112c565b60405161046591906125a6565b60405180910390f35b34801561047a57600080fd5b50610483611151565b005b34801561049157600080fd5b5061049a611165565b6040516104a791906126af565b60405180910390f35b3480156104bc57600080fd5b506104d760048036038101906104d291906125c1565b61116b565b005b3480156104e557600080fd5b506104ee61127c565b6040516104fb919061291d565b60405180910390f35b34801561051057600080fd5b506105196112a0565b60405161052691906126af565b60405180910390f35b34801561053b57600080fd5b506105446112a6565b604051610551919061291d565b60405180910390f35b34801561056657600080fd5b5061056f6112de565b005b34801561057d57600080fd5b506105866113b0565b604051610593919061267e565b60405180910390f35b3480156105a857600080fd5b506105c360048036038101906105be9190612557565b6113e9565b6040516105d091906126af565b60405180910390f35b3480156105e557600080fd5b5061060060048036038101906105fb9190612557565b611434565b005b34801561060e57600080fd5b5061062960048036038101906106249190612938565b61177f565b60405161063691906126af565b60405180910390f35b34801561064b57600080fd5b50610654611797565b60405161066191906126af565b60405180910390f35b34801561067657600080fd5b50610691600480360381019061068c91906125c1565b61179d565b005b34801561069f57600080fd5b506106ba60048036038101906106b59190612938565b611823565b6040516106c791906125a6565b60405180910390f35b3480156106dc57600080fd5b506106f760048036038101906106f29190612965565b611843565b005b6107016118d2565b80600460008473ffffffffffffffffffffffffffffffffffffffff1673ffffffffffffffffffffffffffffffffffffffff16815260200190815260200160002060006101000a81548160ff0219169083151502179055508173ffffffffffffffffffffffffffffffffffffffff167fb996d0053f97123248d7cdf421b1f745424b78ade3df5cf1002c6d8e65561d838260405161079e91906125a6565b60405180910390a25050565b60008083836040516020016107c09291906129fb565b604051602081830303815290604052805190602001209050600060036000838152602001908152602001600020549050600081141580156108015750804210155b9250505092915050565b60046020528060005260406000206000915054906101000a900460ff1681565b6108336118d2565b600081426040516020016108489291906129fb565b6040516020818303038152906040528051906020012090506000600254426108709190612a56565b9050806003600084815260200190815260200160002081905550817f79e2dca331f93c0d9119556c8a471734e6bc8470283391068f156e9a6d3cd3e684836040516108bc929190612a8a565b60405180910390a2505050565b6060600780546108d890612ae2565b80601f016020809104026020016040519081016040528092919081815260200182805461090490612ae2565b80156109515780601f1061092657610100808354040283529160200191610951565b820191906000526020600020905b81548152906001019060200180831161093457829003601f168201915b5050505050905090565b60008060009054906101000a900473ffffffffffffffffffffffffffffffffffffffff1673ffffffffffffffffffffffffffffffffffffffff166370a08231306040518263ffffffff1660e01b81526004016109b7919061291d565b602060405180830381865afa1580156109d4573d6000803e3d6000fd5b505050506040513d601f19601f820116820180604052508101906109f89190612b28565b905090565b610a056118d2565b610a0d611959565b610a156119b0565b6001600084815260200190815260200160002060009054906101000a900460ff1615610a6d576040517fd70a0e3000000000000000000000000000000000000000000000000000000000815260040160405180910390fd5b600180600085815260200190815260200160002060006101000a81548160ff02191690831515021790555060008060009054906101000a900473ffffffffffffffffffffffffffffffffffffffff169050818173ffffffffffffffffffffffffffffffffffffffff166370a08231306040518263ffffffff1660e01b8152600401610af8919061291d565b602060405180830381865afa158015610b15573d6000803e3d6000fd5b505050506040513d601f19601f82011682018060405250810190610b399190612b28565b1015610b71576040517ff4d678b800000000000000000000000000000000000000000000000000000000815260040160405180910390fd5b8073ffffffffffffffffffffffffffffffffffffffff1663a9059cbb84846040518363ffffffff1660e01b8152600401610bac929190612a8a565b6020604051808303816000875af1158015610bcb573d6000803e3d6000fd5b505050506040513d601f19601f82011682018060405250810190610bef9190612b6a565b610c25576040517f3b1ab10400000000000000000000000000000000000000000000000000000000815260040160405180910390fd5b8273ffffffffffffffffffffffffffffffffffffffff16847fdd866cdf66bea045fdf2006520b8cfe92f4ff548e6be6d9a098407ada7d759b584604051610c6c91906126af565b60405180910390a350610c7d6119f1565b505050565b610c8a6118d2565b60008282604051602001610c9f9291906129fb565b60405160208183030381529060405280519060200120905060006003600083815260200190815260200160002054905060008103610d09576040517fe1af1e2e00000000000000000000000000000000000000000000000000000000815260040160405180910390fd5b80421015610d43576040517f1bada80200000000000000000000000000000000000000000000000000000000815260040160405180910390fd5b6003600083815260200190815260200160002060009055817f1b011fae1a8fa8755c05a1200229cf94f1218002d660dae8eca1e796db11e21285604051610d8a919061291d565b60405180910390a250505050565b610da06118d2565b610da8611a0a565b565b610db26118d2565b60008282604051602001610dc79291906129fb565b6040516020818303038152906040528051906020012090506000600360008381526020019081526020016000205403610e2c576040517fe1af1e2e00000000000000000000000000000000000000000000000000000000815260040160405180910390fd5b6003600082815260200190815260200160002060009055807f3581f2526e53a276effa5116f0579562b23947cbd75fbabdeb6049aa7f5c50e660405160405180910390a2505050565b610e7d6118d2565b600654421015610eb9576040517fb6dd9f0000000000000000000000000000000000000000000000000000000000815260040160405180910390fd5b60008290508073ffffffffffffffffffffffffffffffffffffffff1663a9059cbb610ee26112a6565b846040518363ffffffff1660e01b8152600401610f00929190612a8a565b6020604051808303816000875af1158015610f1f573d6000803e3d6000fd5b505050506040513d601f19601f82011682018060405250810190610f439190612b6a565b610f79576040517f750b219c00000000000000000000000000000000000000000000000000000000815260040160405180910390fd5b60006006819055507f88093b33e04b73b206661f1eccae231d9dd839b164c5d4dd9a16160987bd802f8383604051610fb2929190612a8a565b60405180910390a1505050565b610fc7611a7c565b610fd082611b62565b610fda8282611bd3565b5050565b600460003373ffffffffffffffffffffffffffffffffffffffff1673ffffffffffffffffffffffffffffffffffffffff16815260200190815260200160002060009054906101000a900460ff16611061576040517f6ea3b48f00000000000000000000000000000000000000000000000000000000815260040160405180910390fd5b611069611cf2565b565b6000611075611d64565b7f360894a13ba1a3210667c828492db98dca3e2076cc3735a920a3ca505d382bbc60001b905090565b600780546110ab90612ae2565b80601f01602080910402602001604051908101604052809291908181526020018280546110d790612ae2565b80156111245780601f106110f957610100808354040283529160200191611124565b820191906000526020600020905b81548152906001019060200180831161110757829003601f168201915b505050505081565b600080611137611deb565b90508060000160009054906101000a900460ff1691505090565b6111596118d2565b6111636000611e13565b565b60055481565b6111736118d2565b600073ffffffffffffffffffffffffffffffffffffffff168173ffffffffffffffffffffffffffffffffffffffff16036111d9576040517fc1ab6dc100000000000000000000000000000000000000000000000000000000815260040160405180910390fd5b60008060009054906101000a900473ffffffffffffffffffffffffffffffffffffffff169050816000806101000a81548173ffffffffffffffffffffffffffffffffffffffff021916908373ffffffffffffffffffffffffffffffffffffffff1602179055507f0b1186973f810894b87ab0bfbee422fddcaad21b46dc705a561451bbb6bac1178183604051611270929190612b97565b60405180910390a15050565b60008054906101000a900473ffffffffffffffffffffffffffffffffffffffff1681565b60025481565b6000806112b1611eea565b90508060000160009054906101000a900473ffffffffffffffffffffffffffffffffffffffff1691505090565b600460003373ffffffffffffffffffffffffffffffffffffffff1673ffffffffffffffffffffffffffffffffffffffff16815260200190815260200160002060009054906101000a900460ff16611361576040517f6ea3b48f00000000000000000000000000000000000000000000000000000000815260040160405180910390fd5b6005544261136f9190612a56565b6006819055507f3cdaaaa0889822285645e1c79bcbd834c5dd93816b66671ab5a743ac0c53358e6006546040516113a691906126af565b60405180910390a1565b6040518060400160405280600581526020017f352e302e3000000000000000000000000000000000000000000000000000000081525081565b60008083836040516020016113ff9291906129fb565b604051602081830303815290604052805190602001209050600360008281526020019081526020016000205491505092915050565b600061143e611f12565b905060008160000160089054906101000a900460ff1615905060008260000160009054906101000a900467ffffffffffffffff1690506000808267ffffffffffffffff1614801561148c5750825b9050600060018367ffffffffffffffff161480156114c1575060003073ffffffffffffffffffffffffffffffffffffffff163b145b9050811580156114cf575080155b15611506576040517ff92ee8a900000000000000000000000000000000000000000000000000000000815260040160405180910390fd5b60018560000160006101000a81548167ffffffffffffffff021916908367ffffffffffffffff16021790555083156115565760018560000160086101000a81548160ff0219169083151502179055505b61155f33611f26565b611567611f3a565b61156f611f4c565b611577611f56565b600073ffffffffffffffffffffffffffffffffffffffff168773ffffffffffffffffffffffffffffffffffffffff16036115dd576040517fc1ab6dc100000000000000000000000000000000000000000000000000000000815260040160405180910390fd5b866000806101000a81548173ffffffffffffffffffffffffffffffffffffffff021916908373ffffffffffffffffffffffffffffffffffffffff16021790555085600281905550620151806005819055506040518060400160405280600581526020017f312e302e30000000000000000000000000000000000000000000000000000000815250600790816116729190612d6c565b506001600460003373ffffffffffffffffffffffffffffffffffffffff1673ffffffffffffffffffffffffffffffffffffffff16815260200190815260200160002060006101000a81548160ff0219169083151502179055503373ffffffffffffffffffffffffffffffffffffffff167fb996d0053f97123248d7cdf421b1f745424b78ade3df5cf1002c6d8e65561d83600160405161171291906125a6565b60405180910390a283156117765760008560000160086101000a81548160ff0219169083151502179055507fc7f505b2f371ae2175ee4913f4499e1f2633a7b5936321eed1cdaeb6115181d2600160405161176d9190612e8d565b60405180910390a15b50505050505050565b60036020528060005260406000206000915090505481565b60065481565b6117a56118d2565b600073ffffffffffffffffffffffffffffffffffffffff168173ffffffffffffffffffffffffffffffffffffffff16036118175760006040517f1e4fbdf700000000000000000000000000000000000000000000000000000000815260040161180e919061291d565b60405180910390fd5b61182081611e13565b50565b60016020528060005260406000206000915054906101000a900460ff1681565b61184b6118d2565b61012c811015611887576040517ff8d10e8200000000000000000000000000000000000000000000000000000000815260040160405180910390fd5b60006002549050816002819055507f3e9cac94b7c7db9b86df56321e6f7e3e88a6c87fc15fd825df1492cf69e3355181836040516118c6929190612ea8565b60405180910390a15050565b6118da611f60565b73ffffffffffffffffffffffffffffffffffffffff166118f86112a6565b73ffffffffffffffffffffffffffffffffffffffff16146119575761191b611f60565b6040517f118cdaa700000000000000000000000000000000000000000000000000000000815260040161194e919061291d565b60405180910390fd5b565b6000611963611f68565b905060028160000154036119a3576040517f3ee5aeb500000000000000000000000000000000000000000000000000000000815260040160405180910390fd5b6002816000018190555050565b6119b861112c565b156119ef576040517fd93c066500000000000000000000000000000000000000000000000000000000815260040160405180910390fd5b565b60006119fb611f68565b90506001816000018190555050565b611a12611f90565b6000611a1c611deb565b905060008160000160006101000a81548160ff0219169083151502179055507f5db9ee0a495bf2e6ff9c91a7834c1ba4fdd244a5e8aa4e537bd38aeae4b073aa611a64611f60565b604051611a71919061291d565b60405180910390a150565b7f000000000000000000000000000000000000000000000000000000000000000073ffffffffffffffffffffffffffffffffffffffff163073ffffffffffffffffffffffffffffffffffffffff161480611b2957507f000000000000000000000000000000000000000000000000000000000000000073ffffffffffffffffffffffffffffffffffffffff16611b10611fd0565b73ffffffffffffffffffffffffffffffffffffffff1614155b15611b60576040517fe07c8dba00000000000000000000000000000000000000000000000000000000815260040160405180910390fd5b565b611b6a6118d2565b600073ffffffffffffffffffffffffffffffffffffffff168173ffffffffffffffffffffffffffffffffffffffff1603611bd0576040517f4be85dc000000000000000000000000000000000000000000000000000000000815260040160405180910390fd5b50565b8173ffffffffffffffffffffffffffffffffffffffff166352d1902d6040518163ffffffff1660e01b8152600401602060405180830381865afa925050508015611c3b57506040513d601f19601f82011682018060405250810190611c389190612ee6565b60015b611c7c57816040517f4c9c8ce3000000000000000000000000000000000000000000000000000000008152600401611c73919061291d565b60405180910390fd5b7f360894a13ba1a3210667c828492db98dca3e2076cc3735a920a3ca505d382bbc60001b8114611ce357806040517faa1d49a4000000000000000000000000000000000000000000000000000000008152600401611cda91906128f3565b60405180910390fd5b611ced8383612027565b505050565b611cfa6119b0565b6000611d04611deb565b905060018160000160006101000a81548160ff0219169083151502179055507f62e78cea01bee320cd4e420270b5ea74000d11b0c9f74754ebdbfc544b05a258611d4c611f60565b604051611d59919061291d565b60405180910390a150565b7f000000000000000000000000000000000000000000000000000000000000000073ffffffffffffffffffffffffffffffffffffffff163073ffffffffffffffffffffffffffffffffffffffff1614611de9576040517fe07c8dba00000000000000000000000000000000000000000000000000000000815260040160405180910390fd5b565b60007fcd5ed15c6e187e77e9aee88184c21f4f2182ab5827cb3b7e07fbedcd63f03300905090565b6000611e1d611eea565b905060008160000160009054906101000a900473ffffffffffffffffffffffffffffffffffffffff169050828260000160006101000a81548173ffffffffffffffffffffffffffffffffffffffff021916908373ffffffffffffffffffffffffffffffffffffffff1602179055508273ffffffffffffffffffffffffffffffffffffffff168173ffffffffffffffffffffffffffffffffffffffff167f8be0079c531659141344cd1fd0a4f28419497f9722a3daafe3b4186f6b6457e060405160405180910390a3505050565b60007f9016d09d72d40fdae2fd8ceac6b6234c7706214fd39c1cd1e609a0528c199300905090565b600080611f1d61209a565b90508091505090565b611f2e6120c5565b611f3781612105565b50565b611f426120c5565b611f4a61218b565b565b611f546120c5565b565b611f5e6120c5565b565b600033905090565b60007f9b779b17422d0df92223018b32b4d1fa46e071723d6817e2486d003becc55f00905090565b611f9861112c565b611fce576040517f8dfc202b00000000000000000000000000000000000000000000000000000000815260040160405180910390fd5b565b6000611ffe7f360894a13ba1a3210667c828492db98dca3e2076cc3735a920a3ca505d382bbc60001b6121ac565b60000160009054906101000a900473ffffffffffffffffffffffffffffffffffffffff16905090565b612030826121b6565b8173ffffffffffffffffffffffffffffffffffffffff167fbc7cd75a20ee27fd9adebab32041f755214dbc6bffa90cc0225b39da2e5c2d3b60405160405180910390a260008151111561208d576120878282612283565b50612096565b612095612307565b5b5050565b60007ff0c57e16840df040f15088dc2f81fe391c3923bec73e23a9662efc9c229c6a0060001b905090565b6120cd612344565b612103576040517fd7e6bcf800000000000000000000000000000000000000000000000000000000815260040160405180910390fd5b565b61210d6120c5565b600073ffffffffffffffffffffffffffffffffffffffff168173ffffffffffffffffffffffffffffffffffffffff160361217f5760006040517f1e4fbdf7000000000000000000000000000000000000000000000000000000008152600401612176919061291d565b60405180910390fd5b61218881611e13565b50565b6121936120c5565b600061219d611f68565b90506001816000018190555050565b6000819050919050565b60008173ffffffffffffffffffffffffffffffffffffffff163b0361221257806040517f4c9c8ce3000000000000000000000000000000000000000000000000000000008152600401612209919061291d565b60405180910390fd5b8061223f7f360894a13ba1a3210667c828492db98dca3e2076cc3735a920a3ca505d382bbc60001b6121ac565b60000160006101000a81548173ffffffffffffffffffffffffffffffffffffffff021916908373ffffffffffffffffffffffffffffffffffffffff16021790555050565b60606000808473ffffffffffffffffffffffffffffffffffffffff16846040516122ad9190612f5a565b600060405180830381855af49150503d80600081146122e8576040519150601f19603f3d011682016040523d82523d6000602084013e6122ed565b606091505b50915091506122fd858383612364565b9250505092915050565b6000341115612342576040517fb398979f00000000000000000000000000000000000000000000000000000000815260040160405180910390fd5b565b600061234e611f12565b60000160089054906101000a900460ff16905090565b60608261237957612374826123f3565b6123eb565b600082511480156123a1575060008473ffffffffffffffffffffffffffffffffffffffff163b145b156123e357836040517f9996b3150000000000000000000000000000000000000000000000000000000081526004016123da919061291d565b60405180910390fd5b8190506123ec565b5b9392505050565b60008151111561240557805160208201fd5b6040517fd6bda27500000000000000000000000000000000000000000000000000000000815260040160405180910390fd5b6000604051905090565b600080fd5b600080fd5b600073ffffffffffffffffffffffffffffffffffffffff82169050919050565b60006124768261244b565b9050919050565b6124868161246b565b811461249157600080fd5b50565b6000813590506124a38161247d565b92915050565b60008115159050919050565b6124be816124a9565b81146124c957600080fd5b50565b6000813590506124db816124b5565b92915050565b600080604083850312156124f8576124f7612441565b5b600061250685828601612494565b9250506020612517858286016124cc565b9150509250929050565b6000819050919050565b61253481612521565b811461253f57600080fd5b50565b6000813590506125518161252b565b92915050565b6000806040838503121561256e5761256d612441565b5b600061257c85828601612494565b925050602061258d85828601612542565b9150509250929050565b6125a0816124a9565b82525050565b60006020820190506125bb6000830184612597565b92915050565b6000602082840312156125d7576125d6612441565b5b60006125e584828501612494565b91505092915050565b600081519050919050565b600082825260208201905092915050565b60005b8381101561262857808201518184015260208101905061260d565b60008484015250505050565b6000601f19601f8301169050919050565b6000612650826125ee565b61265a81856125f9565b935061266a81856020860161260a565b61267381612634565b840191505092915050565b600060208201905081810360008301526126988184612645565b905092915050565b6126a981612521565b82525050565b60006020820190506126c460008301846126a0565b92915050565b6000819050919050565b6126dd816126ca565b81146126e857600080fd5b50565b6000813590506126fa816126d4565b92915050565b60008060006060848603121561271957612718612441565b5b6000612727868287016126eb565b935050602061273886828701612494565b925050604061274986828701612542565b9150509250925092565b600080fd5b600080fd5b7f4e487b7100000000000000000000000000000000000000000000000000000000600052604160045260246000fd5b61279582612634565b810181811067ffffffffffffffff821117156127b4576127b361275d565b5b80604052505050565b60006127c7612437565b90506127d3828261278c565b919050565b600067ffffffffffffffff8211156127f3576127f261275d565b5b6127fc82612634565b9050602081019050919050565b82818337600083830152505050565b600061282b612826846127d8565b6127bd565b90508281526020810184848401111561284757612846612758565b5b612852848285612809565b509392505050565b600082601f83011261286f5761286e612753565b5b813561287f848260208601612818565b91505092915050565b6000806040838503121561289f5761289e612441565b5b60006128ad85828601612494565b925050602083013567ffffffffffffffff8111156128ce576128cd612446565b5b6128da8582860161285a565b9150509250929050565b6128ed816126ca565b82525050565b600060208201905061290860008301846128e4565b92915050565b6129178161246b565b82525050565b6000602082019050612932600083018461290e565b92915050565b60006020828403121561294e5761294d612441565b5b600061295c848285016126eb565b91505092915050565b60006020828403121561297b5761297a612441565b5b600061298984828501612542565b91505092915050565b60008160601b9050919050565b60006129aa82612992565b9050919050565b60006129bc8261299f565b9050919050565b6129d46129cf8261246b565b6129b1565b82525050565b6000819050919050565b6129f56129f082612521565b6129da565b82525050565b6000612a0782856129c3565b601482019150612a1782846129e4565b6020820191508190509392505050565b7f4e487b7100000000000000000000000000000000000000000000000000000000600052601160045260246000fd5b6000612a6182612521565b9150612a6c83612521565b9250828201905080821115612a8457612a83612a27565b5b92915050565b6000604082019050612a9f600083018561290e565b612aac60208301846126a0565b9392505050565b7f4e487b7100000000000000000000000000000000000000000000000000000000600052602260045260246000fd5b60006002820490506001821680612afa57607f821691505b602082108103612b0d57612b0c612ab3565b5b50919050565b600081519050612b228161252b565b92915050565b600060208284031215612b3e57612b3d612441565b5b6000612b4c84828501612b13565b91505092915050565b600081519050612b64816124b5565b92915050565b600060208284031215612b8057612b7f612441565b5b6000612b8e84828501612b55565b91505092915050565b6000604082019050612bac600083018561290e565b612bb9602083018461290e565b9392505050565b60008190508160005260206000209050919050565b60006020601f8301049050919050565b600082821b905092915050565b600060088302612c227fffffffffffffffffffffffffffffffffffffffffffffffffffffffffffffffff82612be5565b612c2c8683612be5565b95508019841693508086168417925050509392505050565b6000819050919050565b6000612c69612c64612c5f84612521565b612c44565b612521565b9050919050565b6000819050919050565b612c8383612c4e565b612c97612c8f82612c70565b848454612bf2565b825550505050565b600090565b612cac612c9f565b612cb7818484612c7a565b505050565b5b81811015612cdb57612cd0600082612ca4565b600181019050612cbd565b5050565b601f821115612d2057612cf181612bc0565b612cfa84612bd5565b81016020851015612d09578190505b612d1d612d1585612bd5565b830182612cbc565b50505b505050565b600082821c905092915050565b6000612d4360001984600802612d25565b1980831691505092915050565b6000612d5c8383612d32565b9150826002028217905092915050565b612d75826125ee565b67ffffffffffffffff811115612d8e57612d8d61275d565b5b612d988254612ae2565b612da3828285612cdf565b600060209050601f831160018114612dd65760008415612dc4578287015190505b612dce8582612d50565b865550612e36565b601f198416612de486612bc0565b60005b82811015612e0c57848901518255600182019150602085019450602081019050612de7565b86831015612e295784890151612e25601f891682612d32565b8355505b6001600288020188555050505b505050505050565b6000819050919050565b600067ffffffffffffffff82169050919050565b6000612e77612e72612e6d84612e3e565b612c44565b612e48565b9050919050565b612e8781612e5c565b82525050565b6000602082019050612ea26000830184612e7e565b92915050565b6000604082019050612ebd60008301856126a0565b612eca60208301846126a0565b9392505050565b600081519050612ee0816126d4565b92915050565b600060208284031215612efc57612efb612441565b5b6000612f0a84828501612ed1565b91505092915050565b600081519050919050565b600081905092915050565b6000612f3482612f13565b612f3e8185612f1e565b9350612f4e81856020860161260a565b80840191505092915050565b6000612f668284612f29565b91508190509291505056fea26469706673582212209de3209ebf305e424495e84196741ac19238a869d67e5a193a25f1370850a85864736f6c63430008160033",
  "linkReferences": {},
  "deployedLinkReferences": {}
}