{
  "_format": "hh-sol-artifact-1",
  "contractName": "SuperBridgeL1",
  "sourceName": "contracts/SuperBridgeL1.sol",
  "abi": [
    {
      "inputs": [
        {
          "internalType": "address",
          "name": "_token",
          "type": "address"
        }
      ],
      "stateMutability": "nonpayable",
      "type": "constructor"
    },
    {
      "inputs": [],
      "name": "AlreadyPaid",
      "type": "error"
    },
    {
      "inputs": [],
      "name": "EmergencyNotReady",
      "type": "error"
    },
    {
      "inputs": [],
      "name": "EnforcedPause",
      "type": "error"
    },
    {
      "inputs": [],
      "name": "ExpectedPause",
      "type": "error"
    },
    {
      "inputs": [],
      "name": "InsufficientBalance",
      "type": "error"
    },
    {
      "inputs": [],
      "name": "InvalidToken",
      "type": "error"
    },
    {
      "inputs": [],
      "name": "NotEmergencyOperator",
      "type": "error"
    },
    {
      "inputs": [
        {
          "internalType": "address",
          "name": "owner",
          "type": "address"
        }
      ],
      "name": "OwnableInvalidOwner",
      "type": "error"
    },
    {
      "inputs": [
        {
          "internalType": "address",
          "name": "account",
          "type": "address"
        }
      ],
      "name": "OwnableUnauthorizedAccount",
      "type": "error"
    },
    {
      "inputs": [],
      "name": "PayoutFailed",
      "type": "error"
    },
    {
      "inputs": [],
      "name": "ReentrancyGuardReentrantCall",
      "type": "error"
    },
    {
      "inputs": [],
      "name": "WithdrawFailed",
      "type": "error"
    },
    {
      "anonymous": false,
      "inputs": [
        {
          "indexed": true,
          "internalType": "address",
          "name": "operator",
          "type": "address"
        },
        {
          "indexed": false,
          "internalType": "bool",
          "name": "status",
          "type": "bool"
        }
      ],
      "name": "EmergencyOperatorUpdated",
      "type": "event"
    },
    {
      "anonymous": false,
      "inputs": [
        {
          "indexed": false,
          "internalType": "address",
          "name": "token",
          "type": "address"
        },
        {
          "indexed": false,
          "internalType": "uint256",
          "name": "amount",
          "type": "uint256"
        }
      ],
      "name": "EmergencyWithdrawExecuted",
      "type": "event"
    },
    {
      "anonymous": false,
      "inputs": [
        {
          "indexed": false,
          "internalType": "uint256",
          "name": "executeTime",
          "type": "uint256"
        }
      ],
      "name": "EmergencyWithdrawInitiated",
      "type": "event"
    },
    {
      "anonymous": false,
      "inputs": [
        {
          "indexed": true,
          "internalType": "address",
          "name": "previousOwner",
          "type": "address"
        },
        {
          "indexed": true,
          "internalType": "address",
          "name": "newOwner",
          "type": "address"
        }
      ],
      "name": "OwnershipTransferred",
      "type": "event"
    },
    {
      "anonymous": false,
      "inputs": [
        {
          "indexed": false,
          "internalType": "address",
          "name": "account",
          "type": "address"
        }
      ],
      "name": "Paused",
      "type": "event"
    },
    {
      "anonymous": false,
      "inputs": [
        {
          "indexed": true,
          "internalType": "bytes32",
          "name": "transferId",
          "type": "bytes32"
        },
        {
          "indexed": true,
          "internalType": "address",
          "name": "user",
          "type": "address"
        },
        {
          "indexed": false,
          "internalType": "uint256",
          "name": "bridgedAmount",
          "type": "uint256"
        }
      ],
      "name": "PayoutCompleted",
      "type": "event"
    },
    {
      "anonymous": false,
      "inputs": [
        {
          "indexed": false,
          "internalType": "address",
          "name": "oldToken",
          "type": "address"
        },
        {
          "indexed": false,
          "internalType": "address",
          "name": "newToken",
          "type": "address"
        }
      ],
      "name": "TokenUpdated",
      "type": "event"
    },
    {
      "anonymous": false,
      "inputs": [
        {
          "indexed": false,
          "internalType": "address",
          "name": "account",
          "type": "address"
        }
      ],
      "name": "Unpaused",
      "type": "event"
    },
    {
      "inputs": [],
      "name": "TOKEN",
      "outputs": [
        {
          "internalType": "address",
          "name": "",
          "type": "address"
        }
      ],
      "stateMutability": "view",
      "type": "function"
    },
    {
      "inputs": [
        {
          "internalType": "address",
          "name": "",
          "type": "address"
        }
      ],
      "name": "emergencyOperators",
      "outputs": [
        {
          "internalType": "bool",
          "name": "",
          "type": "bool"
        }
      ],
      "stateMutability": "view",
      "type": "function"
    },
    {
      "inputs": [],
      "name": "emergencyPause",
      "outputs": [],
      "stateMutability": "nonpayable",
      "type": "function"
    },
    {
      "inputs": [],
      "name": "emergencyWithdrawDelay",
      "outputs": [
        {
          "internalType": "uint256",
          "name": "",
          "type": "uint256"
        }
      ],
      "stateMutability": "view",
      "type": "function"
    },
    {
      "inputs": [],
      "name": "emergencyWithdrawTime",
      "outputs": [
        {
          "internalType": "uint256",
          "name": "",
          "type": "uint256"
        }
      ],
      "stateMutability": "view",
      "type": "function"
    },
    {
      "inputs": [
        {
          "internalType": "address",
          "name": "token",
          "type": "address"
        },
        {
          "internalType": "uint256",
          "name": "amount",
          "type": "uint256"
        }
      ],
      "name": "executeEmergencyWithdraw",
      "outputs": [],
      "stateMutability": "nonpayable",
      "type": "function"
    },
    {
      "inputs": [],
      "name": "getBalance",
      "outputs": [
        {
          "internalType": "uint256",
          "name": "",
          "type": "uint256"
        }
      ],
      "stateMutability": "view",
      "type": "function"
    },
    {
      "inputs": [],
      "name": "getVersion",
      "outputs": [
        {
          "internalType": "string",
          "name": "",
          "type": "string"
        }
      ],
      "stateMutability": "view",
      "type": "function"
    },
    {
      "inputs": [],
      "name": "initiateEmergencyWithdraw",
      "outputs": [],
      "stateMutability": "nonpayable",
      "type": "function"
    },
    {
      "inputs": [],
      "name": "owner",
      "outputs": [
        {
          "internalType": "address",
          "name": "",
          "type": "address"
        }
      ],
      "stateMutability": "view",
      "type": "function"
    },
    {
      "inputs": [],
      "name": "paused",
      "outputs": [
        {
          "internalType": "bool",
          "name": "",
          "type": "bool"
        }
      ],
      "stateMutability": "view",
      "type": "function"
    },
    {
      "inputs": [
        {
          "internalType": "bytes32",
          "name": "transferId",
          "type": "bytes32"
        },
        {
          "internalType": "address",
          "name": "user",
          "type": "address"
        },
        {
          "internalType": "uint256",
          "name": "bridgedAmount",
          "type": "uint256"
        }
      ],
      "name": "payout",
      "outputs": [],
      "stateMutability": "nonpayable",
      "type": "function"
    },
    {
      "inputs": [
        {
          "internalType": "bytes32",
          "name": "",
          "type": "bytes32"
        }
      ],
      "name": "payoutCompleted",
      "outputs": [
        {
          "internalType": "bool",
          "name": "",
          "type": "bool"
        }
      ],
      "stateMutability": "view",
      "type": "function"
    },
    {
      "inputs": [],
      "name": "renounceOwnership",
      "outputs": [],
      "stateMutability": "nonpayable",
      "type": "function"
    },
    {
      "inputs": [
        {
          "internalType": "address",
          "name": "operator",
          "type": "address"
        },
        {
          "internalType": "bool",
          "name": "status",
          "type": "bool"
        }
      ],
      "name": "setEmergencyOperator",
      "outputs": [],
      "stateMutability": "nonpayable",
      "type": "function"
    },
    {
      "inputs": [
        {
          "internalType": "address",
          "name": "newOwner",
          "type": "address"
        }
      ],
      "name": "transferOwnership",
      "outputs": [],
      "stateMutability": "nonpayable",
      "type": "function"
    },
    {
      "inputs": [],
      "name": "unpause",
      "outputs": [],
      "stateMutability": "nonpayable",
      "type": "function"
    },
    {
      "inputs": [
        {
          "internalType": "address",
          "name": "newToken",
          "type": "address"
        }
      ],
      "name": "updateToken",
      "outputs": [],
      "stateMutability": "nonpayable",
      "type": "function"
    },
    {
      "inputs": [],
      "name": "version",
      "outputs": [
        {
          "internalType": "string",
          "name": "",
          "type": "string"
        }
      ],
      "stateMutability": "view",
      "type": "function"
    }
  ],
  "bytecode": "0x60806040523480156200001157600080fd5b5060405162001d0338038062001d0383398181016040528101906200003791906200039d565b33600073ffffffffffffffffffffffffffffffffffffffff168173ffffffffffffffffffffffffffffffffffffffff1603620000ad5760006040517f1e4fbdf7000000000000000000000000000000000000000000000000000000008152600401620000a49190620003e0565b60405180910390fd5b620000be816200026f60201b60201c565b5060018081905550600073ffffffffffffffffffffffffffffffffffffffff168173ffffffffffffffffffffffffffffffffffffffff16036200012d576040517fc1ab6dc100000000000000000000000000000000000000000000000000000000815260040160405180910390fd5b80600260016101000a81548173ffffffffffffffffffffffffffffffffffffffff021916908373ffffffffffffffffffffffffffffffffffffffff160217905550620151806005819055506040518060400160405280600581526020017f312e302e3000000000000000000000000000000000000000000000000000000081525060079081620001be919062000677565b506001600460003373ffffffffffffffffffffffffffffffffffffffff1673ffffffffffffffffffffffffffffffffffffffff16815260200190815260200160002060006101000a81548160ff0219169083151502179055503373ffffffffffffffffffffffffffffffffffffffff167fb996d0053f97123248d7cdf421b1f745424b78ade3df5cf1002c6d8e65561d8360016040516200026091906200077b565b60405180910390a25062000798565b60008060009054906101000a900473ffffffffffffffffffffffffffffffffffffffff169050816000806101000a81548173ffffffffffffffffffffffffffffffffffffffff021916908373ffffffffffffffffffffffffffffffffffffffff1602179055508173ffffffffffffffffffffffffffffffffffffffff168173ffffffffffffffffffffffffffffffffffffffff167f8be0079c531659141344cd1fd0a4f28419497f9722a3daafe3b4186f6b6457e060405160405180910390a35050565b600080fd5b600073ffffffffffffffffffffffffffffffffffffffff82169050919050565b6000620003658262000338565b9050919050565b620003778162000358565b81146200038357600080fd5b50565b60008151905062000397816200036c565b92915050565b600060208284031215620003b657620003b562000333565b5b6000620003c68482850162000386565b91505092915050565b620003da8162000358565b82525050565b6000602082019050620003f76000830184620003cf565b92915050565b600081519050919050565b7f4e487b7100000000000000000000000000000000000000000000000000000000600052604160045260246000fd5b7f4e487b7100000000000000000000000000000000000000000000000000000000600052602260045260246000fd5b600060028204905060018216806200047f57607f821691505b60208210810362000495576200049462000437565b5b50919050565b60008190508160005260206000209050919050565b60006020601f8301049050919050565b600082821b905092915050565b600060088302620004ff7fffffffffffffffffffffffffffffffffffffffffffffffffffffffffffffffff82620004c0565b6200050b8683620004c0565b95508019841693508086168417925050509392505050565b6000819050919050565b6000819050919050565b600062000558620005526200054c8462000523565b6200052d565b62000523565b9050919050565b6000819050919050565b620005748362000537565b6200058c62000583826200055f565b848454620004cd565b825550505050565b600090565b620005a362000594565b620005b081848462000569565b505050565b5b81811015620005d857620005cc60008262000599565b600181019050620005b6565b5050565b601f8211156200062757620005f1816200049b565b620005fc84620004b0565b810160208510156200060c578190505b620006246200061b85620004b0565b830182620005b5565b50505b505050565b600082821c905092915050565b60006200064c600019846008026200062c565b1980831691505092915050565b600062000667838362000639565b9150826002028217905092915050565b6200068282620003fd565b67ffffffffffffffff8111156200069e576200069d62000408565b5b620006aa825462000466565b620006b7828285620005dc565b600060209050601f831160018114620006ef5760008415620006da578287015190505b620006e6858262000659565b86555062000756565b601f198416620006ff866200049b565b60005b82811015620007295784890151825560018201915060208501945060208101905062000702565b8683101562000749578489015162000745601f89168262000639565b8355505b6001600288020188555050505b505050505050565b60008115159050919050565b62000775816200075e565b82525050565b60006020820190506200079260008301846200076a565b92915050565b61155b80620007a86000396000f3fe608060405234801561001057600080fd5b50600436106101215760003560e01c80635c975abb116100ad5780638da5cb5b116100715780638da5cb5b14610298578063ac856cea146102b6578063de9b9488146102c0578063f2fde38b146102de578063f7f4365e146102fa57610121565b80635c975abb14610218578063715018a61461023657806372070b81146102405780637ad3def21461025e57806382bfefc81461027a57610121565b80631f52f7fa116100f45780631f52f7fa146101ae5780633f4ba83a146101ca5780634f078894146101d457806351858e27146101f057806354fd4d50146101fa57610121565b806302e888991461012657806309705de8146101425780630d8e6e2c1461017257806312065fe014610190575b600080fd5b610140600480360381019061013b91906110c3565b61032a565b005b61015c60048036038101906101579190611103565b6103db565b604051610169919061113f565b60405180910390f35b61017a6103fb565b60405161018791906111ea565b60405180910390f35b61019861048d565b6040516101a59190611225565b60405180910390f35b6101c860048036038101906101c391906112a2565b610530565b005b6101d26107b7565b005b6101ee60048036038101906101e991906112f5565b6107c9565b005b6101f8610913565b005b6102026109a0565b60405161020f91906111ea565b60405180910390f35b610220610a2e565b60405161022d919061113f565b60405180910390f35b61023e610a45565b005b610248610a59565b6040516102559190611225565b60405180910390f35b61027860048036038101906102739190611103565b610a5f565b005b610282610b72565b60405161028f9190611344565b60405180910390f35b6102a0610b98565b6040516102ad9190611344565b60405180910390f35b6102be610bc1565b005b6102c8610c93565b6040516102d59190611225565b60405180910390f35b6102f860048036038101906102f39190611103565b610c99565b005b610314600480360381019061030f919061135f565b610d1f565b604051610321919061113f565b60405180910390f35b610332610d3f565b80600460008473ffffffffffffffffffffffffffffffffffffffff1673ffffffffffffffffffffffffffffffffffffffff16815260200190815260200160002060006101000a81548160ff0219169083151502179055508173ffffffffffffffffffffffffffffffffffffffff167fb996d0053f97123248d7cdf421b1f745424b78ade3df5cf1002c6d8e65561d83826040516103cf919061113f565b60405180910390a25050565b60046020528060005260406000206000915054906101000a900460ff1681565b60606007805461040a906113bb565b80601f0160208091040260200160405190810160405280929190818152602001828054610436906113bb565b80156104835780601f1061045857610100808354040283529160200191610483565b820191906000526020600020905b81548152906001019060200180831161046657829003601f168201915b5050505050905090565b6000600260019054906101000a900473ffffffffffffffffffffffffffffffffffffffff1673ffffffffffffffffffffffffffffffffffffffff166370a08231306040518263ffffffff1660e01b81526004016104ea9190611344565b602060405180830381865afa158015610507573d6000803e3d6000fd5b505050506040513d601f19601f8201168201806040525081019061052b9190611401565b905090565b610538610d3f565b610540610dc6565b610548610e0c565b6003600084815260200190815260200160002060009054906101000a900460ff16156105a0576040517fd70a0e3000000000000000000000000000000000000000000000000000000000815260040160405180910390fd5b60016003600085815260200190815260200160002060006101000a81548160ff0219169083151502179055506000600260019054906101000a900473ffffffffffffffffffffffffffffffffffffffff169050818173ffffffffffffffffffffffffffffffffffffffff166370a08231306040518263ffffffff1660e01b815260040161062d9190611344565b602060405180830381865afa15801561064a573d6000803e3d6000fd5b505050506040513d601f19601f8201168201806040525081019061066e9190611401565b10156106a6576040517ff4d678b800000000000000000000000000000000000000000000000000000000815260040160405180910390fd5b8073ffffffffffffffffffffffffffffffffffffffff1663a9059cbb84846040518363ffffffff1660e01b81526004016106e192919061142e565b6020604051808303816000875af1158015610700573d6000803e3d6000fd5b505050506040513d601f19601f82011682018060405250810190610724919061146c565b61075a576040517f3b1ab10400000000000000000000000000000000000000000000000000000000815260040160405180910390fd5b8273ffffffffffffffffffffffffffffffffffffffff16847fdd866cdf66bea045fdf2006520b8cfe92f4ff548e6be6d9a098407ada7d759b5846040516107a19190611225565b60405180910390a3506107b2610e4d565b505050565b6107bf610d3f565b6107c7610e56565b565b6107d1610d3f565b60065442101561080d576040517fb6dd9f0000000000000000000000000000000000000000000000000000000000815260040160405180910390fd5b60008290508073ffffffffffffffffffffffffffffffffffffffff1663a9059cbb610836610b98565b846040518363ffffffff1660e01b815260040161085492919061142e565b6020604051808303816000875af1158015610873573d6000803e3d6000fd5b505050506040513d601f19601f82011682018060405250810190610897919061146c565b6108cd576040517f750b219c00000000000000000000000000000000000000000000000000000000815260040160405180910390fd5b60006006819055507f88093b33e04b73b206661f1eccae231d9dd839b164c5d4dd9a16160987bd802f838360405161090692919061142e565b60405180910390a1505050565b600460003373ffffffffffffffffffffffffffffffffffffffff1673ffffffffffffffffffffffffffffffffffffffff16815260200190815260200160002060009054906101000a900460ff16610996576040517f6ea3b48f00000000000000000000000000000000000000000000000000000000815260040160405180910390fd5b61099e610eb9565b565b600780546109ad906113bb565b80601f01602080910402602001604051908101604052809291908181526020018280546109d9906113bb565b8015610a265780601f106109fb57610100808354040283529160200191610a26565b820191906000526020600020905b815481529060010190602001808311610a0957829003601f168201915b505050505081565b6000600260009054906101000a900460ff16905090565b610a4d610d3f565b610a576000610f1c565b565b60055481565b610a67610d3f565b600073ffffffffffffffffffffffffffffffffffffffff168173ffffffffffffffffffffffffffffffffffffffff1603610acd576040517fc1ab6dc100000000000000000000000000000000000000000000000000000000815260040160405180910390fd5b6000600260019054906101000a900473ffffffffffffffffffffffffffffffffffffffff16905081600260016101000a81548173ffffffffffffffffffffffffffffffffffffffff021916908373ffffffffffffffffffffffffffffffffffffffff1602179055507f0b1186973f810894b87ab0bfbee422fddcaad21b46dc705a561451bbb6bac1178183604051610b66929190611499565b60405180910390a15050565b600260019054906101000a900473ffffffffffffffffffffffffffffffffffffffff1681565b60008060009054906101000a900473ffffffffffffffffffffffffffffffffffffffff16905090565b600460003373ffffffffffffffffffffffffffffffffffffffff1673ffffffffffffffffffffffffffffffffffffffff16815260200190815260200160002060009054906101000a900460ff16610c44576040517f6ea3b48f00000000000000000000000000000000000000000000000000000000815260040160405180910390fd5b60055442610c5291906114f1565b6006819055507f3cdaaaa0889822285645e1c79bcbd834c5dd93816b66671ab5a743ac0c53358e600654604051610c899190611225565b60405180910390a1565b60065481565b610ca1610d3f565b600073ffffffffffffffffffffffffffffffffffffffff168173ffffffffffffffffffffffffffffffffffffffff1603610d135760006040517f1e4fbdf7000000000000000000000000000000000000000000000000000000008152600401610d0a9190611344565b60405180910390fd5b610d1c81610f1c565b50565b60036020528060005260406000206000915054906101000a900460ff1681565b610d47610fe0565b73ffffffffffffffffffffffffffffffffffffffff16610d65610b98565b73ffffffffffffffffffffffffffffffffffffffff1614610dc457610d88610fe0565b6040517f118cdaa7000000000000000000000000000000000000000000000000000000008152600401610dbb9190611344565b60405180910390fd5b565b600260015403610e02576040517f3ee5aeb500000000000000000000000000000000000000000000000000000000815260040160405180910390fd5b6002600181905550565b610e14610a2e565b15610e4b576040517fd93c066500000000000000000000000000000000000000000000000000000000815260040160405180910390fd5b565b60018081905550565b610e5e610fe8565b6000600260006101000a81548160ff0219169083151502179055507f5db9ee0a495bf2e6ff9c91a7834c1ba4fdd244a5e8aa4e537bd38aeae4b073aa610ea2610fe0565b604051610eaf9190611344565b60405180910390a1565b610ec1610e0c565b6001600260006101000a81548160ff0219169083151502179055507f62e78cea01bee320cd4e420270b5ea74000d11b0c9f74754ebdbfc544b05a258610f05610fe0565b604051610f129190611344565b60405180910390a1565b60008060009054906101000a900473ffffffffffffffffffffffffffffffffffffffff169050816000806101000a81548173ffffffffffffffffffffffffffffffffffffffff021916908373ffffffffffffffffffffffffffffffffffffffff1602179055508173ffffffffffffffffffffffffffffffffffffffff168173ffffffffffffffffffffffffffffffffffffffff167f8be0079c531659141344cd1fd0a4f28419497f9722a3daafe3b4186f6b6457e060405160405180910390a35050565b600033905090565b610ff0610a2e565b611026576040517f8dfc202b00000000000000000000000000000000000000000000000000000000815260040160405180910390fd5b565b600080fd5b600073ffffffffffffffffffffffffffffffffffffffff82169050919050565b60006110588261102d565b9050919050565b6110688161104d565b811461107357600080fd5b50565b6000813590506110858161105f565b92915050565b60008115159050919050565b6110a08161108b565b81146110ab57600080fd5b50565b6000813590506110bd81611097565b92915050565b600080604083850312156110da576110d9611028565b5b60006110e885828601611076565b92505060206110f9858286016110ae565b9150509250929050565b60006020828403121561111957611118611028565b5b600061112784828501611076565b91505092915050565b6111398161108b565b82525050565b60006020820190506111546000830184611130565b92915050565b600081519050919050565b600082825260208201905092915050565b60005b83811015611194578082015181840152602081019050611179565b60008484015250505050565b6000601f19601f8301169050919050565b60006111bc8261115a565b6111c68185611165565b93506111d6818560208601611176565b6111df816111a0565b840191505092915050565b6000602082019050818103600083015261120481846111b1565b905092915050565b6000819050919050565b61121f8161120c565b82525050565b600060208201905061123a6000830184611216565b92915050565b6000819050919050565b61125381611240565b811461125e57600080fd5b50565b6000813590506112708161124a565b92915050565b61127f8161120c565b811461128a57600080fd5b50565b60008135905061129c81611276565b92915050565b6000806000606084860312156112bb576112ba611028565b5b60006112c986828701611261565b93505060206112da86828701611076565b92505060406112eb8682870161128d565b9150509250925092565b6000806040838503121561130c5761130b611028565b5b600061131a85828601611076565b925050602061132b8582860161128d565b9150509250929050565b61133e8161104d565b82525050565b60006020820190506113596000830184611335565b92915050565b60006020828403121561137557611374611028565b5b600061138384828501611261565b91505092915050565b7f4e487b7100000000000000000000000000000000000000000000000000000000600052602260045260246000fd5b600060028204905060018216806113d357607f821691505b6020821081036113e6576113e561138c565b5b50919050565b6000815190506113fb81611276565b92915050565b60006020828403121561141757611416611028565b5b6000611425848285016113ec565b91505092915050565b60006040820190506114436000830185611335565b6114506020830184611216565b9392505050565b60008151905061146681611097565b92915050565b60006020828403121561148257611481611028565b5b600061149084828501611457565b91505092915050565b60006040820190506114ae6000830185611335565b6114bb6020830184611335565b9392505050565b7f4e487b7100000000000000000000000000000000000000000000000000000000600052601160045260246000fd5b60006114fc8261120c565b91506115078361120c565b925082820190508082111561151f5761151e6114c2565b5b9291505056fea2646970667358221220b867c24f680efc4551044cd158eabd3ace2ffd07540733f9f684f6a7b4e0267764736f6c63430008160033",
  "linkReferences": {},
  "deployedLinkReferences": {}
}