{
  "_format": "hh-sol-artifact-1",
  "contractName": "SuperBridgeL2",
  "sourceName": "contracts/SuperBridgeL2.sol",
  "abi": [
    {
      "inputs": [],
      "stateMutability": "nonpayable",
      "type": "constructor"
    },
    {
      "inputs": [],
      "name": "AlreadyFinalized",
      "type": "error"
    },
    {
      "inputs": [],
      "name": "DuplicateSigner",
      "type": "error"
    },
    {
      "inputs": [],
      "name": "ECDSAInvalidSignature",
      "type": "error"
    },
    {
      "inputs": [
        {
          "internalType": "uint256",
          "name": "length",
          "type": "uint256"
        }
      ],
      "name": "ECDSAInvalidSignatureLength",
      "type": "error"
    },
    {
      "inputs": [
        {
          "internalType": "bytes32",
          "name": "s",
          "type": "bytes32"
        }
      ],
      "name": "ECDSAInvalidSignatureS",
      "type": "error"
    },
    {
      "inputs": [],
      "name": "EnforcedPause",
      "type": "error"
    },
    {
      "inputs": [],
      "name": "ExpectedPause",
      "type": "error"
    },
    {
      "inputs": [],
      "name": "ForwardFailed",
      "type": "error"
    },
    {
      "inputs": [],
      "name": "InvalidAmount",
      "type": "error"
    },
    {
      "inputs": [],
      "name": "InvalidFeeBps",
      "type": "error"
    },
    {
      "inputs": [],
      "name": "InvalidSigner",
      "type": "error"
    },
    {
      "inputs": [],
      "name": "InvalidTransferId",
      "type": "error"
    },
    {
      "inputs": [],
      "name": "NotAuthorized",
      "type": "error"
    },
    {
      "inputs": [],
      "name": "NotAuthorizedSigner",
      "type": "error"
    },
    {
      "inputs": [],
      "name": "NotEmergencyOperator",
      "type": "error"
    },
    {
      "inputs": [],
      "name": "NotEnoughSignatures",
      "type": "error"
    },
    {
      "inputs": [],
      "name": "NotRefundable",
      "type": "error"
    },
    {
      "inputs": [],
      "name": "NotYourTransfer",
      "type": "error"
    },
    {
      "inputs": [
        {
          "internalType": "address",
          "name": "owner",
          "type": "address"
        }
      ],
      "name": "OwnableInvalidOwner",
      "type": "error"
    },
    {
      "inputs": [
        {
          "internalType": "address",
          "name": "account",
          "type": "address"
        }
      ],
      "name": "OwnableUnauthorizedAccount",
      "type": "error"
    },
    {
      "inputs": [],
      "name": "ReentrancyGuardReentrantCall",
      "type": "error"
    },
    {
      "inputs": [],
      "name": "RefundFailed",
      "type": "error"
    },
    {
      "inputs": [],
      "name": "RefundNotAvailable",
      "type": "error"
    },
    {
      "anonymous": false,
      "inputs": [
        {
          "indexed": true,
          "internalType": "bytes32",
          "name": "transferId",
          "type": "bytes32"
        },
        {
          "indexed": false,
          "internalType": "address",
          "name": "user",
          "type": "address"
        },
        {
          "indexed": false,
          "internalType": "uint256",
          "name": "bridgedAmount",
          "type": "uint256"
        }
      ],
      "name": "BridgeCompleted",
      "type": "event"
    },
    {
      "anonymous": false,
      "inputs": [
        {
          "indexed": true,
          "internalType": "address",
          "name": "user",
          "type": "address"
        },
        {
          "indexed": false,
          "internalType": "uint256",
          "name": "originalAmount",
          "type": "uint256"
        },
        {
          "indexed": false,
          "internalType": "uint256",
          "name": "bridgedAmount",
          "type": "uint256"
        },
        {
          "indexed": false,
          "internalType": "bytes32",
          "name": "transferId",
          "type": "bytes32"
        },
        {
          "indexed": false,
          "internalType": "uint256",
          "name": "timestamp",
          "type": "uint256"
        }
      ],
      "name": "BridgeInitiated",
      "type": "event"
    },
    {
      "anonymous": false,
      "inputs": [
        {
          "indexed": true,
          "internalType": "address",
          "name": "operator",
          "type": "address"
        },
        {
          "indexed": false,
          "internalType": "bool",
          "name": "status",
          "type": "bool"
        }
      ],
      "name": "EmergencyOperatorUpdated",
      "type": "event"
    },
    {
      "anonymous": false,
      "inputs": [
        {
          "indexed": false,
          "internalType": "uint256",
          "name": "oldFeeBps",
          "type": "uint256"
        },
        {
          "indexed": false,
          "internalType": "uint256",
          "name": "newFeeBps",
          "type": "uint256"
        }
      ],
      "name": "FeeBpsUpdated",
      "type": "event"
    },
    {
      "anonymous": false,
      "inputs": [
        {
          "indexed": true,
          "internalType": "address",
          "name": "user",
          "type": "address"
        },
        {
          "indexed": false,
          "internalType": "bool",
          "name": "exempt",
          "type": "bool"
        }
      ],
      "name": "FeeExemptUpdated",
      "type": "event"
    },
    {
      "anonymous": false,
      "inputs": [
        {
          "indexed": false,
          "internalType": "address",
          "name": "oldRecipient",
          "type": "address"
        },
        {
          "indexed": false,
          "internalType": "address",
          "name": "newRecipient",
          "type": "address"
        }
      ],
      "name": "FeeRecipientUpdated",
      "type": "event"
    },
    {
      "anonymous": false,
      "inputs": [
        {
          "indexed": true,
          "internalType": "address",
          "name": "previousOwner",
          "type": "address"
        },
        {
          "indexed": true,
          "internalType": "address",
          "name": "newOwner",
          "type": "address"
        }
      ],
      "name": "OwnershipTransferred",
      "type": "event"
    },
    {
      "anonymous": false,
      "inputs": [
        {
          "indexed": false,
          "internalType": "address",
          "name": "account",
          "type": "address"
        }
      ],
      "name": "Paused",
      "type": "event"
    },
    {
      "anonymous": false,
      "inputs": [
        {
          "indexed": true,
          "internalType": "bytes32",
          "name": "transferId",
          "type": "bytes32"
        },
        {
          "indexed": false,
          "internalType": "address",
          "name": "user",
          "type": "address"
        },
        {
          "indexed": false,
          "internalType": "uint256",
          "name": "amount",
          "type": "uint256"
        }
      ],
      "name": "Refunded",
      "type": "event"
    },
    {
      "anonymous": false,
      "inputs": [
        {
          "indexed": false,
          "internalType": "address",
          "name": "account",
          "type": "address"
        }
      ],
      "name": "Unpaused",
      "type": "event"
    },
    {
      "anonymous": false,
      "inputs": [
        {
          "indexed": true,
          "internalType": "address",
          "name": "validator",
          "type": "address"
        },
        {
          "indexed": false,
          "internalType": "bool",
          "name": "isValid",
          "type": "bool"
        }
      ],
      "name": "ValidatorUpdated",
      "type": "event"
    },
    {
      "inputs": [],
      "name": "BPS_DENOMINATOR",
      "outputs": [
        {
          "internalType": "uint256",
          "name": "",
          "type": "uint256"
        }
      ],
      "stateMutability": "view",
      "type": "function"
    },
    {
      "inputs": [],
      "name": "FUNDS_RECIPIENT",
      "outputs": [
        {
          "internalType": "address",
          "name": "",
          "type": "address"
        }
      ],
      "stateMutability": "view",
      "type": "function"
    },
    {
      "inputs": [],
      "name": "MIN_SIGNATURES",
      "outputs": [
        {
          "internalType": "uint256",
          "name": "",
          "type": "uint256"
        }
      ],
      "stateMutability": "view",
      "type": "function"
    },
    {
      "inputs": [],
      "name": "REFUND_TIMEOUT",
      "outputs": [
        {
          "internalType": "uint256",
          "name": "",
          "type": "uint256"
        }
      ],
      "stateMutability": "view",
      "type": "function"
    },
    {
      "inputs": [],
      "name": "bridge",
      "outputs": [],
      "stateMutability": "payable",
      "type": "function"
    },
    {
      "inputs": [
        {
          "internalType": "uint256",
          "name": "amount",
          "type": "uint256"
        },
        {
          "internalType": "address",
          "name": "user",
          "type": "address"
        }
      ],
      "name": "calculateFee",
      "outputs": [
        {
          "internalType": "uint256",
          "name": "fee",
          "type": "uint256"
        },
        {
          "internalType": "uint256",
          "name": "bridged",
          "type": "uint256"
        }
      ],
      "stateMutability": "view",
      "type": "function"
    },
    {
      "inputs": [
        {
          "internalType": "bytes32",
          "name": "transferId",
          "type": "bytes32"
        }
      ],
      "name": "canRefund",
      "outputs": [
        {
          "internalType": "bool",
          "name": "",
          "type": "bool"
        }
      ],
      "stateMutability": "view",
      "type": "function"
    },
    {
      "inputs": [
        {
          "internalType": "bytes32",
          "name": "transferId",
          "type": "bytes32"
        },
        {
          "internalType": "bytes[]",
          "name": "signatures",
          "type": "bytes[]"
        },
        {
          "internalType": "address[]",
          "name": "signers",
          "type": "address[]"
        }
      ],
      "name": "complete",
      "outputs": [],
      "stateMutability": "nonpayable",
      "type": "function"
    },
    {
      "inputs": [
        {
          "internalType": "address",
          "name": "",
          "type": "address"
        }
      ],
      "name": "emergencyOperators",
      "outputs": [
        {
          "internalType": "bool",
          "name": "",
          "type": "bool"
        }
      ],
      "stateMutability": "view",
      "type": "function"
    },
    {
      "inputs": [],
      "name": "emergencyPause",
      "outputs": [],
      "stateMutability": "nonpayable",
      "type": "function"
    },
    {
      "inputs": [],
      "name": "feeBps",
      "outputs": [
        {
          "internalType": "uint256",
          "name": "",
          "type": "uint256"
        }
      ],
      "stateMutability": "view",
      "type": "function"
    },
    {
      "inputs": [],
      "name": "feeRecipient",
      "outputs": [
        {
          "internalType": "address",
          "name": "",
          "type": "address"
        }
      ],
      "stateMutability": "view",
      "type": "function"
    },
    {
      "inputs": [
        {
          "internalType": "bytes32",
          "name": "transferId",
          "type": "bytes32"
        }
      ],
      "name": "getRefundTime",
      "outputs": [
        {
          "internalType": "uint256",
          "name": "",
          "type": "uint256"
        }
      ],
      "stateMutability": "view",
      "type": "function"
    },
    {
      "inputs": [
        {
          "internalType": "bytes32",
          "name": "transferId",
          "type": "bytes32"
        }
      ],
      "name": "getTransfer",
      "outputs": [
        {
          "components": [
            {
              "internalType": "address",
              "name": "user",
              "type": "address"
            },
            {
              "internalType": "uint256",
              "name": "originalAmount",
              "type": "uint256"
            },
            {
              "internalType": "uint256",
              "name": "bridgedAmount",
              "type": "uint256"
            },
            {
              "internalType": "uint256",
              "name": "timestamp",
              "type": "uint256"
            },
            {
              "internalType": "enum SuperBridgeL2.Status",
              "name": "status",
              "type": "uint8"
            }
          ],
          "internalType": "struct SuperBridgeL2.Transfer",
          "name": "",
          "type": "tuple"
        }
      ],
      "stateMutability": "view",
      "type": "function"
    },
    {
      "inputs": [],
      "name": "getVersion",
      "outputs": [
        {
          "internalType": "string",
          "name": "",
          "type": "string"
        }
      ],
      "stateMutability": "view",
      "type": "function"
    },
    {
      "inputs": [
        {
          "internalType": "address",
          "name": "",
          "type": "address"
        }
      ],
      "name": "isFeeExempt",
      "outputs": [
        {
          "internalType": "bool",
          "name": "",
          "type": "bool"
        }
      ],
      "stateMutability": "view",
      "type": "function"
    },
    {
      "inputs": [
        {
          "internalType": "address",
          "name": "",
          "type": "address"
        }
      ],
      "name": "isValidSigner",
      "outputs": [
        {
          "internalType": "bool",
          "name": "",
          "type": "bool"
        }
      ],
      "stateMutability": "view",
      "type": "function"
    },
    {
      "inputs": [],
      "name": "numSigners",
      "outputs": [
        {
          "internalType": "uint256",
          "name": "",
          "type": "uint256"
        }
      ],
      "stateMutability": "view",
      "type": "function"
    },
    {
      "inputs": [],
      "name": "owner",
      "outputs": [
        {
          "internalType": "address",
          "name": "",
          "type": "address"
        }
      ],
      "stateMutability": "view",
      "type": "function"
    },
    {
      "inputs": [],
      "name": "paused",
      "outputs": [
        {
          "internalType": "bool",
          "name": "",
          "type": "bool"
        }
      ],
      "stateMutability": "view",
      "type": "function"
    },
    {
      "inputs": [
        {
          "internalType": "bytes32",
          "name": "transferId",
          "type": "bytes32"
        }
      ],
      "name": "refund",
      "outputs": [],
      "stateMutability": "nonpayable",
      "type": "function"
    },
    {
      "inputs": [],
      "name": "renounceOwnership",
      "outputs": [],
      "stateMutability": "nonpayable",
      "type": "function"
    },
    {
      "inputs": [
        {
          "internalType": "address",
          "name": "operator",
          "type": "address"
        },
        {
          "internalType": "bool",
          "name": "status",
          "type": "bool"
        }
      ],
      "name": "setEmergencyOperator",
      "outputs": [],
      "stateMutability": "nonpayable",
      "type": "function"
    },
    {
      "inputs": [
        {
          "internalType": "uint256",
          "name": "_feeBps",
          "type": "uint256"
        }
      ],
      "name": "setFeeBps",
      "outputs": [],
      "stateMutability": "nonpayable",
      "type": "function"
    },
    {
      "inputs": [
        {
          "internalType": "address",
          "name": "user",
          "type": "address"
        },
        {
          "internalType": "bool",
          "name": "exempt",
          "type": "bool"
        }
      ],
      "name": "setFeeExempt",
      "outputs": [],
      "stateMutability": "nonpayable",
      "type": "function"
    },
    {
      "inputs": [
        {
          "internalType": "address",
          "name": "_feeRecipient",
          "type": "address"
        }
      ],
      "name": "setFeeRecipient",
      "outputs": [],
      "stateMutability": "nonpayable",
      "type": "function"
    },
    {
      "inputs": [
        {
          "internalType": "address",
          "name": "validator",
          "type": "address"
        },
        {
          "internalType": "bool",
          "name": "isValid",
          "type": "bool"
        }
      ],
      "name": "setValidator",
      "outputs": [],
      "stateMutability": "nonpayable",
      "type": "function"
    },
    {
      "inputs": [
        {
          "internalType": "address",
          "name": "newOwner",
          "type": "address"
        }
      ],
      "name": "transferOwnership",
      "outputs": [],
      "stateMutability": "nonpayable",
      "type": "function"
    },
    {
      "inputs": [
        {
          "internalType": "bytes32",
          "name": "",
          "type": "bytes32"
        }
      ],
      "name": "transfers",
      "outputs": [
        {
          "internalType": "address",
          "name": "user",
          "type": "address"
        },
        {
          "internalType": "uint256",
          "name": "originalAmount",
          "type": "uint256"
        },
        {
          "internalType": "uint256",
          "name": "bridgedAmount",
          "type": "uint256"
        },
        {
          "internalType": "uint256",
          "name": "timestamp",
          "type": "uint256"
        },
        {
          "internalType": "enum SuperBridgeL2.Status",
          "name": "status",
          "type": "uint8"
        }
      ],
      "stateMutability": "view",
      "type": "function"
    },
    {
      "inputs": [],
      "name": "unpause",
      "outputs": [],
      "stateMutability": "nonpayable",
      "type": "function"
    },
    {
      "inputs": [
        {
          "internalType": "address",
          "name": "",
          "type": "address"
        }
      ],
      "name": "userNonces",
      "outputs": [
        {
          "internalType": "uint256",
          "name": "",
          "type": "uint256"
        }
      ],
      "stateMutability": "view",
      "type": "function"
    },
    {
      "inputs": [],
      "name": "version",
      "outputs": [
        {
          "internalType": "string",
          "name": "",
          "type": "string"
        }
      ],
      "stateMutability": "view",
      "type": "function"
    },
    {
      "stateMutability": "payable",
      "type": "receive"
    }
  ],
  "bytecode": "0x60806040526101f46003553480156200001757600080fd5b5033600073ffffffffffffffffffffffffffffffffffffffff168173ffffffffffffffffffffffffffffffffffffffff16036200008e5760006040517f1e4fbdf700000000000000000000000000000000000000000000000000000000815260040162000085919062000406565b60405180910390fd5b6200009f81620002fd60201b60201c565b50600180819055506040518060400160405280600581526020017f312e302e30000000000000000000000000000000000000000000000000000000815250600a9081620000ed91906200069d565b506001600460007317cabc8001a30800835dd8206ceb0c4ba90b591373ffffffffffffffffffffffffffffffffffffffff1673ffffffffffffffffffffffffffffffffffffffff16815260200190815260200160002060006101000a81548160ff0219169083151502179055506001600760007373af5be3db46ce3b7c50fd833b9c60180f33944973ffffffffffffffffffffffffffffffffffffffff1673ffffffffffffffffffffffffffffffffffffffff16815260200190815260200160002060006101000a81548160ff02191690831515021790555060016008819055506001600960003373ffffffffffffffffffffffffffffffffffffffff1673ffffffffffffffffffffffffffffffffffffffff16815260200190815260200160002060006101000a81548160ff0219169083151502179055506001600960007323d26298248ffcc71f49849fa0beb8e30a2bde6c73ffffffffffffffffffffffffffffffffffffffff1673ffffffffffffffffffffffffffffffffffffffff16815260200190815260200160002060006101000a81548160ff0219169083151502179055507323d26298248ffcc71f49849fa0beb8e30a2bde6c73ffffffffffffffffffffffffffffffffffffffff167fb996d0053f97123248d7cdf421b1f745424b78ade3df5cf1002c6d8e65561d836001604051620002ef9190620007a1565b60405180910390a2620007be565b60008060009054906101000a900473ffffffffffffffffffffffffffffffffffffffff169050816000806101000a81548173ffffffffffffffffffffffffffffffffffffffff021916908373ffffffffffffffffffffffffffffffffffffffff1602179055508173ffffffffffffffffffffffffffffffffffffffff168173ffffffffffffffffffffffffffffffffffffffff167f8be0079c531659141344cd1fd0a4f28419497f9722a3daafe3b4186f6b6457e060405160405180910390a35050565b600073ffffffffffffffffffffffffffffffffffffffff82169050919050565b6000620003ee82620003c1565b9050919050565b6200040081620003e1565b82525050565b60006020820190506200041d6000830184620003f5565b92915050565b600081519050919050565b7f4e487b7100000000000000000000000000000000000000000000000000000000600052604160045260246000fd5b7f4e487b7100000000000000000000000000000000000000000000000000000000600052602260045260246000fd5b60006002820490506001821680620004a557607f821691505b602082108103620004bb57620004ba6200045d565b5b50919050565b60008190508160005260206000209050919050565b60006020601f8301049050919050565b600082821b905092915050565b600060088302620005257fffffffffffffffffffffffffffffffffffffffffffffffffffffffffffffffff82620004e6565b620005318683620004e6565b95508019841693508086168417925050509392505050565b6000819050919050565b6000819050919050565b60006200057e62000578620005728462000549565b62000553565b62000549565b9050919050565b6000819050919050565b6200059a836200055d565b620005b2620005a98262000585565b848454620004f3565b825550505050565b600090565b620005c9620005ba565b620005d68184846200058f565b505050565b5b81811015620005fe57620005f2600082620005bf565b600181019050620005dc565b5050565b601f8211156200064d576200061781620004c1565b6200062284620004d6565b8101602085101562000632578190505b6200064a6200064185620004d6565b830182620005db565b50505b505050565b600082821c905092915050565b6000620006726000198460080262000652565b1980831691505092915050565b60006200068d83836200065f565b9150826002028217905092915050565b620006a88262000423565b67ffffffffffffffff811115620006c457620006c36200042e565b5b620006d082546200048c565b620006dd82828562000602565b600060209050601f83116001811462000715576000841562000700578287015190505b6200070c85826200067f565b8655506200077c565b601f1984166200072586620004c1565b60005b828110156200074f5784890151825560018201915060208501945060208101905062000728565b868310156200076f57848901516200076b601f8916826200065f565b8355505b6001600288020188555050505b505050505050565b60008115159050919050565b6200079b8162000784565b82525050565b6000602082019050620007b8600083018462000790565b92915050565b6130c280620007ce6000396000f3fe6080604052600436106101e75760003560e01c806354fd4d50116101025780638da5cb5b11610095578063e1a4521811610064578063e1a4521814610706578063e74b981b14610731578063e78cea921461075a578063f2fde38b14610764576101ee565b80638da5cb5b1461064c5780638ebfc79614610677578063ca9e4453146106a0578063d5f50582146106c9576101ee565b806372c27b62116100d157806372c27b621461057e5780637d57900a146105a7578063838fb7f1146105d25780638c8c20031461060f576101ee565b806354fd4d50146104e85780635c975abb14610513578063715018a61461053e5780637249fbb614610555576101ee565b806337b11bbf1161017a578063400ba06911610149578063400ba0691461043f5780634623c91d1461047d57806346904840146104a657806351858e27146104d1576101ee565b806337b11bbf1461037f5780633c64f04b146103aa5780633f4218e0146103eb5780633f4ba83a14610428576101ee565b80631a179692116101b65780631a179692146102af57806324a9d853146102da578063260958a5146103055780632f7801f414610342576101ee565b806302e88899146101f357806309705de81461021c5780630d8e6e2c1461025957806312679fed14610284576101ee565b366101ee57005b600080fd5b3480156101ff57600080fd5b5061021a6004803603810190610215919061257d565b61078d565b005b34801561022857600080fd5b50610243600480360381019061023e91906125bd565b61083e565b60405161025091906125f9565b60405180910390f35b34801561026557600080fd5b5061026e61085e565b60405161027b91906126a4565b60405180910390f35b34801561029057600080fd5b506102996108f0565b6040516102a691906126df565b60405180910390f35b3480156102bb57600080fd5b506102c46108f6565b6040516102d191906126df565b60405180910390f35b3480156102e657600080fd5b506102ef6108fb565b6040516102fc91906126df565b60405180910390f35b34801561031157600080fd5b5061032c60048036038101906103279190612730565b610901565b604051610339919061285a565b60405180910390f35b34801561034e57600080fd5b50610369600480360381019061036491906125bd565b6109dd565b60405161037691906126df565b60405180910390f35b34801561038b57600080fd5b506103946109f5565b6040516103a19190612884565b60405180910390f35b3480156103b657600080fd5b506103d160048036038101906103cc9190612730565b610a0d565b6040516103e29594939291906128ae565b60405180910390f35b3480156103f757600080fd5b50610412600480360381019061040d91906125bd565b610a70565b60405161041f91906125f9565b60405180910390f35b34801561043457600080fd5b5061043d610a90565b005b34801561044b57600080fd5b506104666004803603810190610461919061292d565b610aa2565b60405161047492919061296d565b60405180910390f35b34801561048957600080fd5b506104a4600480360381019061049f919061257d565b610b36565b005b3480156104b257600080fd5b506104bb610cd6565b6040516104c89190612884565b60405180910390f35b3480156104dd57600080fd5b506104e6610cfc565b005b3480156104f457600080fd5b506104fd610d89565b60405161050a91906126a4565b60405180910390f35b34801561051f57600080fd5b50610528610e17565b60405161053591906125f9565b60405180910390f35b34801561054a57600080fd5b50610553610e2e565b005b34801561056157600080fd5b5061057c60048036038101906105779190612730565b610e42565b005b34801561058a57600080fd5b506105a560048036038101906105a09190612996565b6110c4565b005b3480156105b357600080fd5b506105bc611153565b6040516105c991906126df565b60405180910390f35b3480156105de57600080fd5b506105f960048036038101906105f49190612730565b611159565b60405161060691906126df565b60405180910390f35b34801561061b57600080fd5b5061063660048036038101906106319190612730565b611245565b60405161064391906125f9565b60405180910390f35b34801561065857600080fd5b50610661611367565b60405161066e9190612884565b60405180910390f35b34801561068357600080fd5b5061069e6004803603810190610699919061257d565b611390565b005b3480156106ac57600080fd5b506106c760048036038101906106c29190612a7e565b611441565b005b3480156106d557600080fd5b506106f060048036038101906106eb91906125bd565b611a79565b6040516106fd91906125f9565b60405180910390f35b34801561071257600080fd5b5061071b611a99565b60405161072891906126df565b60405180910390f35b34801561073d57600080fd5b50610758600480360381019061075391906125bd565b611a9f565b005b610762611b4c565b005b34801561077057600080fd5b5061078b600480360381019061078691906125bd565b611e01565b005b610795611e87565b80600960008473ffffffffffffffffffffffffffffffffffffffff1673ffffffffffffffffffffffffffffffffffffffff16815260200190815260200160002060006101000a81548160ff0219169083151502179055508173ffffffffffffffffffffffffffffffffffffffff167fb996d0053f97123248d7cdf421b1f745424b78ade3df5cf1002c6d8e65561d838260405161083291906125f9565b60405180910390a25050565b60096020528060005260406000206000915054906101000a900460ff1681565b6060600a805461086d90612b42565b80601f016020809104026020016040519081016040528092919081815260200182805461089990612b42565b80156108e65780601f106108bb576101008083540402835291602001916108e6565b820191906000526020600020905b8154815290600101906020018083116108c957829003601f168201915b5050505050905090565b60085481565b600181565b60035481565b610909612486565b600660008381526020019081526020016000206040518060a00160405290816000820160009054906101000a900473ffffffffffffffffffffffffffffffffffffffff1673ffffffffffffffffffffffffffffffffffffffff1673ffffffffffffffffffffffffffffffffffffffff1681526020016001820154815260200160028201548152602001600382015481526020016004820160009054906101000a900460ff1660028111156109c0576109bf61277b565b5b60028111156109d2576109d161277b565b5b815250509050919050565b60056020528060005260406000206000915090505481565b7323d26298248ffcc71f49849fa0beb8e30a2bde6c81565b60066020528060005260406000206000915090508060000160009054906101000a900473ffffffffffffffffffffffffffffffffffffffff16908060010154908060020154908060030154908060040160009054906101000a900460ff16905085565b60046020528060005260406000206000915054906101000a900460ff1681565b610a98611e87565b610aa0611f0e565b565b600080600460008473ffffffffffffffffffffffffffffffffffffffff1673ffffffffffffffffffffffffffffffffffffffff16815260200190815260200160002060009054906101000a900460ff1615610b035760008491509150610b2f565b61271060035485610b149190612ba2565b610b1e9190612c13565b91508184610b2c9190612c44565b90505b9250929050565b610b3e611e87565b808015610b955750600760008373ffffffffffffffffffffffffffffffffffffffff1673ffffffffffffffffffffffffffffffffffffffff16815260200190815260200160002060009054906101000a900460ff16155b15610bb75760086000815480929190610bad90612c78565b9190505550610c2d565b80158015610c0e5750600760008373ffffffffffffffffffffffffffffffffffffffff1673ffffffffffffffffffffffffffffffffffffffff16815260200190815260200160002060009054906101000a900460ff165b15610c2c5760086000815480929190610c2690612cc0565b91905055505b5b80600760008473ffffffffffffffffffffffffffffffffffffffff1673ffffffffffffffffffffffffffffffffffffffff16815260200190815260200160002060006101000a81548160ff0219169083151502179055508173ffffffffffffffffffffffffffffffffffffffff167f763b63b30e91c843bb39e4379603697003d3b7c1f192619cd782fa33bdc4439682604051610cca91906125f9565b60405180910390a25050565b600260019054906101000a900473ffffffffffffffffffffffffffffffffffffffff1681565b600960003373ffffffffffffffffffffffffffffffffffffffff1673ffffffffffffffffffffffffffffffffffffffff16815260200190815260200160002060009054906101000a900460ff16610d7f576040517f6ea3b48f00000000000000000000000000000000000000000000000000000000815260040160405180910390fd5b610d87611f71565b565b600a8054610d9690612b42565b80601f0160208091040260200160405190810160405280929190818152602001828054610dc290612b42565b8015610e0f5780601f10610de457610100808354040283529160200191610e0f565b820191906000526020600020905b815481529060010190602001808311610df257829003601f168201915b505050505081565b6000600260009054906101000a900460ff16905090565b610e36611e87565b610e406000611fd4565b565b610e4a612098565b600060066000838152602001908152602001600020905060006002811115610e7557610e7461277b565b5b8160040160009054906101000a900460ff166002811115610e9957610e9861277b565b5b14610ed0576040517f3742d1f600000000000000000000000000000000000000000000000000000000815260040160405180910390fd5b3373ffffffffffffffffffffffffffffffffffffffff168160000160009054906101000a900473ffffffffffffffffffffffffffffffffffffffff1673ffffffffffffffffffffffffffffffffffffffff1614610f59576040517f3e87cffd00000000000000000000000000000000000000000000000000000000815260040160405180910390fd5b6107088160030154610f6b9190612ce9565b4211610fa3576040517f0b4d698100000000000000000000000000000000000000000000000000000000815260040160405180910390fd5b60028160040160006101000a81548160ff02191690836002811115610fcb57610fca61277b565b5b021790555060008160010154905060003373ffffffffffffffffffffffffffffffffffffffff1682604051610fff90612d4e565b60006040518083038185875af1925050503d806000811461103c576040519150601f19603f3d011682016040523d82523d6000602084013e611041565b606091505b505090508061107c576040517ff0c49d4400000000000000000000000000000000000000000000000000000000815260040160405180910390fd5b837ff552ca82e113ac3c539c3d617f29fcd19c172a0c75dad017555c9e109f7fe18333846040516110ae929190612d63565b60405180910390a25050506110c16120de565b50565b6110cc611e87565b6103e8811115611108576040517f8bff87cf00000000000000000000000000000000000000000000000000000000815260040160405180910390fd5b60006003549050816003819055507f5ec5620e288c4be955ccb6cfb3d55431a8fed5c4c96ffacc4b9506360695f64e818360405161114792919061296d565b60405180910390a15050565b61070881565b600080600660008481526020019081526020016000206040518060a00160405290816000820160009054906101000a900473ffffffffffffffffffffffffffffffffffffffff1673ffffffffffffffffffffffffffffffffffffffff1673ffffffffffffffffffffffffffffffffffffffff1681526020016001820154815260200160028201548152602001600382015481526020016004820160009054906101000a900460ff1660028111156112135761121261277b565b5b60028111156112255761122461277b565b5b815250509050610708816060015161123d9190612ce9565b915050919050565b600080600660008481526020019081526020016000206040518060a00160405290816000820160009054906101000a900473ffffffffffffffffffffffffffffffffffffffff1673ffffffffffffffffffffffffffffffffffffffff1673ffffffffffffffffffffffffffffffffffffffff1681526020016001820154815260200160028201548152602001600382015481526020016004820160009054906101000a900460ff1660028111156112ff576112fe61277b565b5b60028111156113115761131061277b565b5b8152505090506000600281111561132b5761132a61277b565b5b816080015160028111156113425761134161277b565b5b14801561135f5750610708816060015161135c9190612ce9565b42115b915050919050565b60008060009054906101000a900473ffffffffffffffffffffffffffffffffffffffff16905090565b611398611e87565b80600460008473ffffffffffffffffffffffffffffffffffffffff1673ffffffffffffffffffffffffffffffffffffffff16815260200190815260200160002060006101000a81548160ff0219169083151502179055508173ffffffffffffffffffffffffffffffffffffffff167f4d5771454588f51370a8a2e7e151354b6de0dc3159b14821b4ad76bc04c28bc78260405161143591906125f9565b60405180910390a25050565b611449612098565b6114516120e7565b60006006600087815260200190815260200160002090506000600281111561147c5761147b61277b565b5b8160040160009054906101000a900460ff1660028111156114a05761149f61277b565b5b146114d7576040517f475a253500000000000000000000000000000000000000000000000000000000815260040160405180910390fd5b600073ffffffffffffffffffffffffffffffffffffffff168160000160009054906101000a900473ffffffffffffffffffffffffffffffffffffffff1673ffffffffffffffffffffffffffffffffffffffff1603611561576040517f3b2a862c00000000000000000000000000000000000000000000000000000000815260040160405180910390fd5b8282905085859050146115a0576040517f815e1d6400000000000000000000000000000000000000000000000000000000815260040160405180910390fd5b60018585905010156115de576040517fe246dc6300000000000000000000000000000000000000000000000000000000815260040160405180910390fd5b6000868260000160009054906101000a900473ffffffffffffffffffffffffffffffffffffffff1683600201543060405160200161161f9493929190612e16565b604051602081830303815290604052805190602001209050600061164282612128565b905060008585905067ffffffffffffffff81111561166357611662612e64565b5b6040519080825280602002602001820160405280156116915781602001602082028036833780820191505090505b50905060005b8888905081101561191a576000611715848b8b858181106116bb576116ba612e93565b5b90506020028101906116cd9190612ed1565b8080601f016020809104026020016040519081016040528093929190818152602001838380828437600081840152601f19601f8201169050808301925050505050505061215e565b905087878381811061172a57611729612e93565b5b905060200201602081019061173f91906125bd565b73ffffffffffffffffffffffffffffffffffffffff168173ffffffffffffffffffffffffffffffffffffffff16146117a3576040517f815e1d6400000000000000000000000000000000000000000000000000000000815260040160405180910390fd5b600760008273ffffffffffffffffffffffffffffffffffffffff1673ffffffffffffffffffffffffffffffffffffffff16815260200190815260200160002060009054906101000a900460ff16611826576040517f54ac7bfc00000000000000000000000000000000000000000000000000000000815260040160405180910390fd5b60005b828110156118bd578173ffffffffffffffffffffffffffffffffffffffff1684828151811061185b5761185a612e93565b5b602002602001015173ffffffffffffffffffffffffffffffffffffffff16036118b0576040517f8044bb3300000000000000000000000000000000000000000000000000000000815260040160405180910390fd5b8080600101915050611829565b50808383815181106118d2576118d1612e93565b5b602002602001019073ffffffffffffffffffffffffffffffffffffffff16908173ffffffffffffffffffffffffffffffffffffffff1681525050508080600101915050611697565b5060018460040160006101000a81548160ff021916908360028111156119435761194261277b565b5b021790555060007323d26298248ffcc71f49849fa0beb8e30a2bde6c73ffffffffffffffffffffffffffffffffffffffff16856001015460405161198690612d4e565b60006040518083038185875af1925050503d80600081146119c3576040519150601f19603f3d011682016040523d82523d6000602084013e6119c8565b606091505b5050905080611a03576040517f096dc0e100000000000000000000000000000000000000000000000000000000815260040160405180910390fd5b897f3a5e0271cd79026f0993aa13e6dd17d1f34284aa2340c1d2c33653b9a4433ee98660000160009054906101000a900473ffffffffffffffffffffffffffffffffffffffff168760020154604051611a5d929190612d63565b60405180910390a25050505050611a726120de565b5050505050565b60076020528060005260406000206000915054906101000a900460ff1681565b61271081565b611aa7611e87565b6000600260019054906101000a900473ffffffffffffffffffffffffffffffffffffffff16905081600260016101000a81548173ffffffffffffffffffffffffffffffffffffffff021916908373ffffffffffffffffffffffffffffffffffffffff1602179055507faaebcf1bfa00580e41d966056b48521fa9f202645c86d4ddf28113e617c1b1d38183604051611b40929190612f34565b60405180910390a15050565b611b54612098565b611b5c6120e7565b60003403611b96576040517f2c5211c600000000000000000000000000000000000000000000000000000000815260040160405180910390fd5b600080349050600460003373ffffffffffffffffffffffffffffffffffffffff1673ffffffffffffffffffffffffffffffffffffffff16815260200190815260200160002060009054906101000a900460ff16611c195761271060035434611bfe9190612ba2565b611c089190612c13565b91508134611c169190612c44565b90505b6000600560003373ffffffffffffffffffffffffffffffffffffffff1673ffffffffffffffffffffffffffffffffffffffff1681526020019081526020016000206000815480929190611c6b90612c78565b91905055905060003334428430604051602001611c8c959493929190612f5d565b6040516020818303038152906040528051906020012090506040518060a001604052803373ffffffffffffffffffffffffffffffffffffffff16815260200134815260200184815260200142815260200160006002811115611cf157611cf061277b565b5b8152506006600083815260200190815260200160002060008201518160000160006101000a81548173ffffffffffffffffffffffffffffffffffffffff021916908373ffffffffffffffffffffffffffffffffffffffff16021790555060208201518160010155604082015181600201556060820151816003015560808201518160040160006101000a81548160ff02191690836002811115611d9757611d9661277b565b5b02179055509050503373ffffffffffffffffffffffffffffffffffffffff167f719ab00511e884d1ea4921ee843132435dc006b0bb7f8b67fb693b621e45bb5334858442604051611deb9493929190612fcb565b60405180910390a250505050611dff6120de565b565b611e09611e87565b600073ffffffffffffffffffffffffffffffffffffffff168173ffffffffffffffffffffffffffffffffffffffff1603611e7b5760006040517f1e4fbdf7000000000000000000000000000000000000000000000000000000008152600401611e729190612884565b60405180910390fd5b611e8481611fd4565b50565b611e8f61218a565b73ffffffffffffffffffffffffffffffffffffffff16611ead611367565b73ffffffffffffffffffffffffffffffffffffffff1614611f0c57611ed061218a565b6040517f118cdaa7000000000000000000000000000000000000000000000000000000008152600401611f039190612884565b60405180910390fd5b565b611f16612192565b6000600260006101000a81548160ff0219169083151502179055507f5db9ee0a495bf2e6ff9c91a7834c1ba4fdd244a5e8aa4e537bd38aeae4b073aa611f5a61218a565b604051611f679190612884565b60405180910390a1565b611f796120e7565b6001600260006101000a81548160ff0219169083151502179055507f62e78cea01bee320cd4e420270b5ea74000d11b0c9f74754ebdbfc544b05a258611fbd61218a565b604051611fca9190612884565b60405180910390a1565b60008060009054906101000a900473ffffffffffffffffffffffffffffffffffffffff169050816000806101000a81548173ffffffffffffffffffffffffffffffffffffffff021916908373ffffffffffffffffffffffffffffffffffffffff1602179055508173ffffffffffffffffffffffffffffffffffffffff168173ffffffffffffffffffffffffffffffffffffffff167f8be0079c531659141344cd1fd0a4f28419497f9722a3daafe3b4186f6b6457e060405160405180910390a35050565b6002600154036120d4576040517f3ee5aeb500000000000000000000000000000000000000000000000000000000815260040160405180910390fd5b6002600181905550565b60018081905550565b6120ef610e17565b15612126576040517fd93c066500000000000000000000000000000000000000000000000000000000815260040160405180910390fd5b565b60007f19457468657265756d205369676e6564204d6573736167653a0a33320000000060005281601c52603c6000209050919050565b60008060008061216e86866121d2565b92509250925061217e828261222e565b82935050505092915050565b600033905090565b61219a610e17565b6121d0576040517f8dfc202b00000000000000000000000000000000000000000000000000000000815260040160405180910390fd5b565b600080600060418451036122175760008060006020870151925060408701519150606087015160001a905061220988828585612392565b955095509550505050612227565b60006002855160001b9250925092505b9250925092565b600060038111156122425761224161277b565b5b8260038111156122555761225461277b565b5b031561238e576001600381111561226f5761226e61277b565b5b8260038111156122825761228161277b565b5b036122b9576040517ff645eedf00000000000000000000000000000000000000000000000000000000815260040160405180910390fd5b600260038111156122cd576122cc61277b565b5b8260038111156122e0576122df61277b565b5b03612325578060001c6040517ffce698f700000000000000000000000000000000000000000000000000000000815260040161231c91906126df565b60405180910390fd5b6003808111156123385761233761277b565b5b82600381111561234b5761234a61277b565b5b0361238d57806040517fd78bce0c0000000000000000000000000000000000000000000000000000000081526004016123849190613010565b60405180910390fd5b5b5050565b60008060007f7fffffffffffffffffffffffffffffff5d576e7357a4501ddfe92f46681b20a08460001c11156123d257600060038592509250925061247c565b6000600188888888604051600081526020016040526040516123f79493929190613047565b6020604051602081039080840390855afa158015612419573d6000803e3d6000fd5b505050602060405103519050600073ffffffffffffffffffffffffffffffffffffffff168173ffffffffffffffffffffffffffffffffffffffff160361246d57600060016000801b9350935093505061247c565b8060008060001b935093509350505b9450945094915050565b6040518060a00160405280600073ffffffffffffffffffffffffffffffffffffffff168152602001600081526020016000815260200160008152602001600060028111156124d7576124d661277b565b5b81525090565b600080fd5b600080fd5b600073ffffffffffffffffffffffffffffffffffffffff82169050919050565b6000612512826124e7565b9050919050565b61252281612507565b811461252d57600080fd5b50565b60008135905061253f81612519565b92915050565b60008115159050919050565b61255a81612545565b811461256557600080fd5b50565b60008135905061257781612551565b92915050565b60008060408385031215612594576125936124dd565b5b60006125a285828601612530565b92505060206125b385828601612568565b9150509250929050565b6000602082840312156125d3576125d26124dd565b5b60006125e184828501612530565b91505092915050565b6125f381612545565b82525050565b600060208201905061260e60008301846125ea565b92915050565b600081519050919050565b600082825260208201905092915050565b60005b8381101561264e578082015181840152602081019050612633565b60008484015250505050565b6000601f19601f8301169050919050565b600061267682612614565b612680818561261f565b9350612690818560208601612630565b6126998161265a565b840191505092915050565b600060208201905081810360008301526126be818461266b565b905092915050565b6000819050919050565b6126d9816126c6565b82525050565b60006020820190506126f460008301846126d0565b92915050565b6000819050919050565b61270d816126fa565b811461271857600080fd5b50565b60008135905061272a81612704565b92915050565b600060208284031215612746576127456124dd565b5b60006127548482850161271b565b91505092915050565b61276681612507565b82525050565b612775816126c6565b82525050565b7f4e487b7100000000000000000000000000000000000000000000000000000000600052602160045260246000fd5b600381106127bb576127ba61277b565b5b50565b60008190506127cc826127aa565b919050565b60006127dc826127be565b9050919050565b6127ec816127d1565b82525050565b60a082016000820151612808600085018261275d565b50602082015161281b602085018261276c565b50604082015161282e604085018261276c565b506060820151612841606085018261276c565b50608082015161285460808501826127e3565b50505050565b600060a08201905061286f60008301846127f2565b92915050565b61287e81612507565b82525050565b60006020820190506128996000830184612875565b92915050565b6128a8816127d1565b82525050565b600060a0820190506128c36000830188612875565b6128d060208301876126d0565b6128dd60408301866126d0565b6128ea60608301856126d0565b6128f7608083018461289f565b9695505050505050565b61290a816126c6565b811461291557600080fd5b50565b60008135905061292781612901565b92915050565b60008060408385031215612944576129436124dd565b5b600061295285828601612918565b925050602061296385828601612530565b9150509250929050565b600060408201905061298260008301856126d0565b61298f60208301846126d0565b9392505050565b6000602082840312156129ac576129ab6124dd565b5b60006129ba84828501612918565b91505092915050565b600080fd5b600080fd5b600080fd5b60008083601f8401126129e8576129e76129c3565b5b8235905067ffffffffffffffff811115612a0557612a046129c8565b5b602083019150836020820283011115612a2157612a206129cd565b5b9250929050565b60008083601f840112612a3e57612a3d6129c3565b5b8235905067ffffffffffffffff811115612a5b57612a5a6129c8565b5b602083019150836020820283011115612a7757612a766129cd565b5b9250929050565b600080600080600060608688031215612a9a57612a996124dd565b5b6000612aa88882890161271b565b955050602086013567ffffffffffffffff811115612ac957612ac86124e2565b5b612ad5888289016129d2565b9450945050604086013567ffffffffffffffff811115612af857612af76124e2565b5b612b0488828901612a28565b92509250509295509295909350565b7f4e487b7100000000000000000000000000000000000000000000000000000000600052602260045260246000fd5b60006002820490506001821680612b5a57607f821691505b602082108103612b6d57612b6c612b13565b5b50919050565b7f4e487b7100000000000000000000000000000000000000000000000000000000600052601160045260246000fd5b6000612bad826126c6565b9150612bb8836126c6565b9250828202612bc6816126c6565b91508282048414831517612bdd57612bdc612b73565b5b5092915050565b7f4e487b7100000000000000000000000000000000000000000000000000000000600052601260045260246000fd5b6000612c1e826126c6565b9150612c29836126c6565b925082612c3957612c38612be4565b5b828204905092915050565b6000612c4f826126c6565b9150612c5a836126c6565b9250828203905081811115612c7257612c71612b73565b5b92915050565b6000612c83826126c6565b91507fffffffffffffffffffffffffffffffffffffffffffffffffffffffffffffffff8203612cb557612cb4612b73565b5b600182019050919050565b6000612ccb826126c6565b915060008203612cde57612cdd612b73565b5b600182039050919050565b6000612cf4826126c6565b9150612cff836126c6565b9250828201905080821115612d1757612d16612b73565b5b92915050565b600081905092915050565b50565b6000612d38600083612d1d565b9150612d4382612d28565b600082019050919050565b6000612d5982612d2b565b9150819050919050565b6000604082019050612d786000830185612875565b612d8560208301846126d0565b9392505050565b6000819050919050565b612da7612da2826126fa565b612d8c565b82525050565b60008160601b9050919050565b6000612dc582612dad565b9050919050565b6000612dd782612dba565b9050919050565b612def612dea82612507565b612dcc565b82525050565b6000819050919050565b612e10612e0b826126c6565b612df5565b82525050565b6000612e228287612d96565b602082019150612e328286612dde565b601482019150612e428285612dff565b602082019150612e528284612dde565b60148201915081905095945050505050565b7f4e487b7100000000000000000000000000000000000000000000000000000000600052604160045260246000fd5b7f4e487b7100000000000000000000000000000000000000000000000000000000600052603260045260246000fd5b600080fd5b600080fd5b600080fd5b60008083356001602003843603038112612eee57612eed612ec2565b5b80840192508235915067ffffffffffffffff821115612f1057612f0f612ec7565b5b602083019250600182023603831315612f2c57612f2b612ecc565b5b509250929050565b6000604082019050612f496000830185612875565b612f566020830184612875565b9392505050565b6000612f698288612dde565b601482019150612f798287612dff565b602082019150612f898286612dff565b602082019150612f998285612dff565b602082019150612fa98284612dde565b6014820191508190509695505050505050565b612fc5816126fa565b82525050565b6000608082019050612fe060008301876126d0565b612fed60208301866126d0565b612ffa6040830185612fbc565b61300760608301846126d0565b95945050505050565b60006020820190506130256000830184612fbc565b92915050565b600060ff82169050919050565b6130418161302b565b82525050565b600060808201905061305c6000830187612fbc565b6130696020830186613038565b6130766040830185612fbc565b6130836060830184612fbc565b9594505050505056fea264697066735822122050140ae719dd958abf08145c889cc6831ad2bcbbabec87f837e091f56ea8ce4d64736f6c63430008160033",
  "linkReferences": {},
  "deployedLinkReferences": {}
}