{
  "_format": "hh-sol-artifact-1",
  "contractName": "SuperBridgeL2",
  "sourceName": "contracts/SuperBridgeL2.sol",
  "abi": [
    {
      "inputs": [],
      "stateMutability": "nonpayable",
      "type": "constructor"
    },
    {
      "inputs": [
        {
          "internalType": "address",
          "name": "target",
          "type": "address"
        }
      ],
      "name": "AddressEmptyCode",
      "type": "error"
    },
    {
      "inputs": [],
      "name": "AlreadyFinalized",
      "type": "error"
    },
    {
      "inputs": [],
      "name": "DuplicateSigner",
      "type": "error"
    },
    {
      "inputs": [],
      "name": "ECDSAInvalidSignature",
      "type": "error"
    },
    {
      "inputs": [
        {
          "internalType": "uint256",
          "name": "length",
          "type": "uint256"
        }
      ],
      "name": "ECDSAInvalidSignatureLength",
      "type": "error"
    },
    {
      "inputs": [
        {
          "internalType": "bytes32",
          "name": "s",
          "type": "bytes32"
        }
      ],
      "name": "ECDSAInvalidSignatureS",
      "type": "error"
    },
    {
      "inputs": [
        {
          "internalType": "address",
          "name": "implementation",
          "type": "address"
        }
      ],
      "name": "ERC1967InvalidImplementation",
      "type": "error"
    },
    {
      "inputs": [],
      "name": "ERC1967NonPayable",
      "type": "error"
    },
    {
      "inputs": [],
      "name": "EnforcedPause",
      "type": "error"
    },
    {
      "inputs": [],
      "name": "ExpectedPause",
      "type": "error"
    },
    {
      "inputs": [],
      "name": "FailedCall",
      "type": "error"
    },
    {
      "inputs": [],
      "name": "ForwardFailed",
      "type": "error"
    },
    {
      "inputs": [],
      "name": "InvalidAmount",
      "type": "error"
    },
    {
      "inputs": [],
      "name": "InvalidInitialization",
      "type": "error"
    },
    {
      "inputs": [],
      "name": "InvalidSigner",
      "type": "error"
    },
    {
      "inputs": [],
      "name": "InvalidTimelock",
      "type": "error"
    },
    {
      "inputs": [],
      "name": "InvalidTransferId",
      "type": "error"
    },
    {
      "inputs": [],
      "name": "NotAuthorized",
      "type": "error"
    },
    {
      "inputs": [],
      "name": "NotAuthorizedSigner",
      "type": "error"
    },
    {
      "inputs": [],
      "name": "NotEnoughSignatures",
      "type": "error"
    },
    {
      "inputs": [],
      "name": "NotInitializing",
      "type": "error"
    },
    {
      "inputs": [],
      "name": "NotRefundable",
      "type": "error"
    },
    {
      "inputs": [],
      "name": "NotYourTransfer",
      "type": "error"
    },
    {
      "inputs": [
        {
          "internalType": "address",
          "name": "owner",
          "type": "address"
        }
      ],
      "name": "OwnableInvalidOwner",
      "type": "error"
    },
    {
      "inputs": [
        {
          "internalType": "address",
          "name": "account",
          "type": "address"
        }
      ],
      "name": "OwnableUnauthorizedAccount",
      "type": "error"
    },
    {
      "inputs": [],
      "name": "ReentrancyGuardReentrantCall",
      "type": "error"
    },
    {
      "inputs": [],
      "name": "RefundFailed",
      "type": "error"
    },
    {
      "inputs": [],
      "name": "RefundNotAvailable",
      "type": "error"
    },
    {
      "inputs": [],
      "name": "UUPSUnauthorizedCallContext",
      "type": "error"
    },
    {
      "inputs": [
        {
          "internalType": "bytes32",
          "name": "slot",
          "type": "bytes32"
        }
      ],
      "name": "UUPSUnsupportedProxiableUUID",
      "type": "error"
    },
    {
      "inputs": [],
      "name": "UpgradeNotReady",
      "type": "error"
    },
    {
      "inputs": [],
      "name": "UpgradeNotScheduled",
      "type": "error"
    },
    {
      "anonymous": false,
      "inputs": [
        {
          "indexed": true,
          "internalType": "bytes32",
          "name": "transferId",
          "type": "bytes32"
        },
        {
          "indexed": false,
          "internalType": "address",
          "name": "user",
          "type": "address"
        },
        {
          "indexed": false,
          "internalType": "uint256",
          "name": "bridgedAmount",
          "type": "uint256"
        }
      ],
      "name": "BridgeCompleted",
      "type": "event"
    },
    {
      "anonymous": false,
      "inputs": [
        {
          "indexed": true,
          "internalType": "address",
          "name": "user",
          "type": "address"
        },
        {
          "indexed": false,
          "internalType": "uint256",
          "name": "originalAmount",
          "type": "uint256"
        },
        {
          "indexed": false,
          "internalType": "uint256",
          "name": "bridgedAmount",
          "type": "uint256"
        },
        {
          "indexed": false,
          "internalType": "bytes32",
          "name": "transferId",
          "type": "bytes32"
        },
        {
          "indexed": false,
          "internalType": "uint256",
          "name": "timestamp",
          "type": "uint256"
        }
      ],
      "name": "BridgeInitiated",
      "type": "event"
    },
    {
      "anonymous": false,
      "inputs": [
        {
          "indexed": true,
          "internalType": "address",
          "name": "user",
          "type": "address"
        },
        {
          "indexed": false,
          "internalType": "bool",
          "name": "exempt",
          "type": "bool"
        }
      ],
      "name": "FeeExemptUpdated",
      "type": "event"
    },
    {
      "anonymous": false,
      "inputs": [
        {
          "indexed": false,
          "internalType": "address",
          "name": "oldRecipient",
          "type": "address"
        },
        {
          "indexed": false,
          "internalType": "address",
          "name": "newRecipient",
          "type": "address"
        }
      ],
      "name": "FeeRecipientUpdated",
      "type": "event"
    },
    {
      "anonymous": false,
      "inputs": [
        {
          "indexed": false,
          "internalType": "uint64",
          "name": "version",
          "type": "uint64"
        }
      ],
      "name": "Initialized",
      "type": "event"
    },
    {
      "anonymous": false,
      "inputs": [
        {
          "indexed": true,
          "internalType": "address",
          "name": "previousOwner",
          "type": "address"
        },
        {
          "indexed": true,
          "internalType": "address",
          "name": "newOwner",
          "type": "address"
        }
      ],
      "name": "OwnershipTransferred",
      "type": "event"
    },
    {
      "anonymous": false,
      "inputs": [
        {
          "indexed": false,
          "internalType": "address",
          "name": "account",
          "type": "address"
        }
      ],
      "name": "Paused",
      "type": "event"
    },
    {
      "anonymous": false,
      "inputs": [
        {
          "indexed": true,
          "internalType": "bytes32",
          "name": "transferId",
          "type": "bytes32"
        },
        {
          "indexed": false,
          "internalType": "address",
          "name": "user",
          "type": "address"
        },
        {
          "indexed": false,
          "internalType": "uint256",
          "name": "amount",
          "type": "uint256"
        }
      ],
      "name": "Refunded",
      "type": "event"
    },
    {
      "anonymous": false,
      "inputs": [
        {
          "indexed": false,
          "internalType": "uint256",
          "name": "oldTimelock",
          "type": "uint256"
        },
        {
          "indexed": false,
          "internalType": "uint256",
          "name": "newTimelock",
          "type": "uint256"
        }
      ],
      "name": "TimelockUpdated",
      "type": "event"
    },
    {
      "anonymous": false,
      "inputs": [
        {
          "indexed": false,
          "internalType": "address",
          "name": "account",
          "type": "address"
        }
      ],
      "name": "Unpaused",
      "type": "event"
    },
    {
      "anonymous": false,
      "inputs": [
        {
          "indexed": true,
          "internalType": "bytes32",
          "name": "upgradeHash",
          "type": "bytes32"
        },
        {
          "indexed": false,
          "internalType": "address",
          "name": "newImplementation",
          "type": "address"
        }
      ],
      "name": "UpgradeExecuted",
      "type": "event"
    },
    {
      "anonymous": false,
      "inputs": [
        {
          "indexed": true,
          "internalType": "bytes32",
          "name": "upgradeHash",
          "type": "bytes32"
        },
        {
          "indexed": false,
          "internalType": "address",
          "name": "newImplementation",
          "type": "address"
        },
        {
          "indexed": false,
          "internalType": "uint256",
          "name": "executeTime",
          "type": "uint256"
        }
      ],
      "name": "UpgradeScheduled",
      "type": "event"
    },
    {
      "anonymous": false,
      "inputs": [
        {
          "indexed": true,
          "internalType": "address",
          "name": "implementation",
          "type": "address"
        }
      ],
      "name": "Upgraded",
      "type": "event"
    },
    {
      "anonymous": false,
      "inputs": [
        {
          "indexed": true,
          "internalType": "address",
          "name": "validator",
          "type": "address"
        },
        {
          "indexed": false,
          "internalType": "bool",
          "name": "isValid",
          "type": "bool"
        }
      ],
      "name": "ValidatorUpdated",
      "type": "event"
    },
    {
      "inputs": [],
      "name": "BPS_DENOMINATOR",
      "outputs": [
        {
          "internalType": "uint256",
          "name": "",
          "type": "uint256"
        }
      ],
      "stateMutability": "view",
      "type": "function"
    },
    {
      "inputs": [],
      "name": "FEE_BPS",
      "outputs": [
        {
          "internalType": "uint256",
          "name": "",
          "type": "uint256"
        }
      ],
      "stateMutability": "view",
      "type": "function"
    },
    {
      "inputs": [],
      "name": "MIN_SIGNATURES",
      "outputs": [
        {
          "internalType": "uint256",
          "name": "",
          "type": "uint256"
        }
      ],
      "stateMutability": "view",
      "type": "function"
    },
    {
      "inputs": [],
      "name": "REFUND_TIMEOUT",
      "outputs": [
        {
          "internalType": "uint256",
          "name": "",
          "type": "uint256"
        }
      ],
      "stateMutability": "view",
      "type": "function"
    },
    {
      "inputs": [],
      "name": "UPGRADE_INTERFACE_VERSION",
      "outputs": [
        {
          "internalType": "string",
          "name": "",
          "type": "string"
        }
      ],
      "stateMutability": "view",
      "type": "function"
    },
    {
      "inputs": [],
      "name": "bridge",
      "outputs": [],
      "stateMutability": "payable",
      "type": "function"
    },
    {
      "inputs": [
        {
          "internalType": "uint256",
          "name": "amount",
          "type": "uint256"
        },
        {
          "internalType": "address",
          "name": "user",
          "type": "address"
        }
      ],
      "name": "calculateFee",
      "outputs": [
        {
          "internalType": "uint256",
          "name": "fee",
          "type": "uint256"
        },
        {
          "internalType": "uint256",
          "name": "bridged",
          "type": "uint256"
        }
      ],
      "stateMutability": "view",
      "type": "function"
    },
    {
      "inputs": [
        {
          "internalType": "bytes32",
          "name": "transferId",
          "type": "bytes32"
        }
      ],
      "name": "canRefund",
      "outputs": [
        {
          "internalType": "bool",
          "name": "",
          "type": "bool"
        }
      ],
      "stateMutability": "view",
      "type": "function"
    },
    {
      "inputs": [
        {
          "internalType": "bytes32",
          "name": "transferId",
          "type": "bytes32"
        },
        {
          "internalType": "bytes[]",
          "name": "signatures",
          "type": "bytes[]"
        },
        {
          "internalType": "address[]",
          "name": "signers",
          "type": "address[]"
        }
      ],
      "name": "complete",
      "outputs": [],
      "stateMutability": "nonpayable",
      "type": "function"
    },
    {
      "inputs": [
        {
          "internalType": "address",
          "name": "",
          "type": "address"
        }
      ],
      "name": "emergencyOperators",
      "outputs": [
        {
          "internalType": "bool",
          "name": "",
          "type": "bool"
        }
      ],
      "stateMutability": "view",
      "type": "function"
    },
    {
      "inputs": [],
      "name": "emergencyPause",
      "outputs": [],
      "stateMutability": "nonpayable",
      "type": "function"
    },
    {
      "inputs": [],
      "name": "emergencyWithdrawDelay",
      "outputs": [
        {
          "internalType": "uint256",
          "name": "",
          "type": "uint256"
        }
      ],
      "stateMutability": "view",
      "type": "function"
    },
    {
      "inputs": [],
      "name": "emergencyWithdrawTime",
      "outputs": [
        {
          "internalType": "uint256",
          "name": "",
          "type": "uint256"
        }
      ],
      "stateMutability": "view",
      "type": "function"
    },
    {
      "inputs": [
        {
          "internalType": "address",
          "name": "newImplementation",
          "type": "address"
        },
        {
          "internalType": "uint256",
          "name": "scheduleTime",
          "type": "uint256"
        }
      ],
      "name": "executeUpgrade",
      "outputs": [],
      "stateMutability": "nonpayable",
      "type": "function"
    },
    {
      "inputs": [],
      "name": "feeRecipient",
      "outputs": [
        {
          "internalType": "address",
          "name": "",
          "type": "address"
        }
      ],
      "stateMutability": "view",
      "type": "function"
    },
    {
      "inputs": [
        {
          "internalType": "bytes32",
          "name": "transferId",
          "type": "bytes32"
        }
      ],
      "name": "getRefundTime",
      "outputs": [
        {
          "internalType": "uint256",
          "name": "",
          "type": "uint256"
        }
      ],
      "stateMutability": "view",
      "type": "function"
    },
    {
      "inputs": [
        {
          "internalType": "bytes32",
          "name": "transferId",
          "type": "bytes32"
        }
      ],
      "name": "getTransfer",
      "outputs": [
        {
          "components": [
            {
              "internalType": "address",
              "name": "user",
              "type": "address"
            },
            {
              "internalType": "uint256",
              "name": "originalAmount",
              "type": "uint256"
            },
            {
              "internalType": "uint256",
              "name": "bridgedAmount",
              "type": "uint256"
            },
            {
              "internalType": "uint256",
              "name": "timestamp",
              "type": "uint256"
            },
            {
              "internalType": "enum SuperBridgeL2.Status",
              "name": "status",
              "type": "uint8"
            }
          ],
          "internalType": "struct SuperBridgeL2.Transfer",
          "name": "",
          "type": "tuple"
        }
      ],
      "stateMutability": "view",
      "type": "function"
    },
    {
      "inputs": [],
      "name": "getVersion",
      "outputs": [
        {
          "internalType": "string",
          "name": "",
          "type": "string"
        }
      ],
      "stateMutability": "view",
      "type": "function"
    },
    {
      "inputs": [
        {
          "internalType": "address",
          "name": "_feeRecipient",
          "type": "address"
        },
        {
          "internalType": "uint256",
          "name": "_upgradeTimelock",
          "type": "uint256"
        }
      ],
      "name": "initialize",
      "outputs": [],
      "stateMutability": "nonpayable",
      "type": "function"
    },
    {
      "inputs": [
        {
          "internalType": "address",
          "name": "",
          "type": "address"
        }
      ],
      "name": "isFeeExempt",
      "outputs": [
        {
          "internalType": "bool",
          "name": "",
          "type": "bool"
        }
      ],
      "stateMutability": "view",
      "type": "function"
    },
    {
      "inputs": [
        {
          "internalType": "address",
          "name": "implementation",
          "type": "address"
        },
        {
          "internalType": "uint256",
          "name": "scheduleTime",
          "type": "uint256"
        }
      ],
      "name": "isUpgradeReady",
      "outputs": [
        {
          "internalType": "bool",
          "name": "",
          "type": "bool"
        }
      ],
      "stateMutability": "view",
      "type": "function"
    },
    {
      "inputs": [
        {
          "internalType": "address",
          "name": "",
          "type": "address"
        }
      ],
      "name": "isValidSigner",
      "outputs": [
        {
          "internalType": "bool",
          "name": "",
          "type": "bool"
        }
      ],
      "stateMutability": "view",
      "type": "function"
    },
    {
      "inputs": [],
      "name": "numSigners",
      "outputs": [
        {
          "internalType": "uint256",
          "name": "",
          "type": "uint256"
        }
      ],
      "stateMutability": "view",
      "type": "function"
    },
    {
      "inputs": [],
      "name": "owner",
      "outputs": [
        {
          "internalType": "address",
          "name": "",
          "type": "address"
        }
      ],
      "stateMutability": "view",
      "type": "function"
    },
    {
      "inputs": [],
      "name": "paused",
      "outputs": [
        {
          "internalType": "bool",
          "name": "",
          "type": "bool"
        }
      ],
      "stateMutability": "view",
      "type": "function"
    },
    {
      "inputs": [
        {
          "internalType": "bytes32",
          "name": "",
          "type": "bytes32"
        }
      ],
      "name": "pendingUpgrades",
      "outputs": [
        {
          "internalType": "uint256",
          "name": "",
          "type": "uint256"
        }
      ],
      "stateMutability": "view",
      "type": "function"
    },
    {
      "inputs": [],
      "name": "proxiableUUID",
      "outputs": [
        {
          "internalType": "bytes32",
          "name": "",
          "type": "bytes32"
        }
      ],
      "stateMutability": "view",
      "type": "function"
    },
    {
      "inputs": [
        {
          "internalType": "bytes32",
          "name": "transferId",
          "type": "bytes32"
        }
      ],
      "name": "refund",
      "outputs": [],
      "stateMutability": "nonpayable",
      "type": "function"
    },
    {
      "inputs": [],
      "name": "renounceOwnership",
      "outputs": [],
      "stateMutability": "nonpayable",
      "type": "function"
    },
    {
      "inputs": [
        {
          "internalType": "address",
          "name": "newImplementation",
          "type": "address"
        }
      ],
      "name": "scheduleUpgrade",
      "outputs": [],
      "stateMutability": "nonpayable",
      "type": "function"
    },
    {
      "inputs": [
        {
          "internalType": "address",
          "name": "operator",
          "type": "address"
        },
        {
          "internalType": "bool",
          "name": "status",
          "type": "bool"
        }
      ],
      "name": "setEmergencyOperator",
      "outputs": [],
      "stateMutability": "nonpayable",
      "type": "function"
    },
    {
      "inputs": [
        {
          "internalType": "address",
          "name": "user",
          "type": "address"
        },
        {
          "internalType": "bool",
          "name": "exempt",
          "type": "bool"
        }
      ],
      "name": "setFeeExempt",
      "outputs": [],
      "stateMutability": "nonpayable",
      "type": "function"
    },
    {
      "inputs": [
        {
          "internalType": "address",
          "name": "_feeRecipient",
          "type": "address"
        }
      ],
      "name": "setFeeRecipient",
      "outputs": [],
      "stateMutability": "nonpayable",
      "type": "function"
    },
    {
      "inputs": [
        {
          "internalType": "address",
          "name": "validator",
          "type": "address"
        },
        {
          "internalType": "bool",
          "name": "isValid",
          "type": "bool"
        }
      ],
      "name": "setValidator",
      "outputs": [],
      "stateMutability": "nonpayable",
      "type": "function"
    },
    {
      "inputs": [
        {
          "internalType": "address",
          "name": "newOwner",
          "type": "address"
        }
      ],
      "name": "transferOwnership",
      "outputs": [],
      "stateMutability": "nonpayable",
      "type": "function"
    },
    {
      "inputs": [
        {
          "internalType": "bytes32",
          "name": "",
          "type": "bytes32"
        }
      ],
      "name": "transfers",
      "outputs": [
        {
          "internalType": "address",
          "name": "user",
          "type": "address"
        },
        {
          "internalType": "uint256",
          "name": "originalAmount",
          "type": "uint256"
        },
        {
          "internalType": "uint256",
          "name": "bridgedAmount",
          "type": "uint256"
        },
        {
          "internalType": "uint256",
          "name": "timestamp",
          "type": "uint256"
        },
        {
          "internalType": "enum SuperBridgeL2.Status",
          "name": "status",
          "type": "uint8"
        }
      ],
      "stateMutability": "view",
      "type": "function"
    },
    {
      "inputs": [],
      "name": "unpause",
      "outputs": [],
      "stateMutability": "nonpayable",
      "type": "function"
    },
    {
      "inputs": [
        {
          "internalType": "uint256",
          "name": "newTimelock",
          "type": "uint256"
        }
      ],
      "name": "updateTimelock",
      "outputs": [],
      "stateMutability": "nonpayable",
      "type": "function"
    },
    {
      "inputs": [],
      "name": "upgradeTimelock",
      "outputs": [
        {
          "internalType": "uint256",
          "name": "",
          "type": "uint256"
        }
      ],
      "stateMutability": "view",
      "type": "function"
    },
    {
      "inputs": [
        {
          "internalType": "address",
          "name": "newImplementation",
          "type": "address"
        },
        {
          "internalType": "bytes",
          "name": "data",
          "type": "bytes"
        }
      ],
      "name": "upgradeToAndCall",
      "outputs": [],
      "stateMutability": "payable",
      "type": "function"
    },
    {
      "inputs": [
        {
          "internalType": "address",
          "name": "",
          "type": "address"
        }
      ],
      "name": "userNonces",
      "outputs": [
        {
          "internalType": "uint256",
          "name": "",
          "type": "uint256"
        }
      ],
      "stateMutability": "view",
      "type": "function"
    },
    {
      "inputs": [],
      "name": "version",
      "outputs": [
        {
          "internalType": "string",
          "name": "",
          "type": "string"
        }
      ],
      "stateMutability": "view",
      "type": "function"
    }
  ],
  "bytecode": "0x60a06040523073ffffffffffffffffffffffffffffffffffffffff1660809073ffffffffffffffffffffffffffffffffffffffff168152503480156200004457600080fd5b50620000556200005b60201b60201c565b620001ee565b60006200006d6200016560201b60201c565b90508060000160089054906101000a900460ff1615620000b9576040517ff92ee8a900000000000000000000000000000000000000000000000000000000815260040160405180910390fd5b67ffffffffffffffff80168160000160009054906101000a900467ffffffffffffffff1667ffffffffffffffff1614620001625767ffffffffffffffff8160000160006101000a81548167ffffffffffffffff021916908367ffffffffffffffff1602179055507fc7f505b2f371ae2175ee4913f4499e1f2633a7b5936321eed1cdaeb6115181d267ffffffffffffffff604051620001599190620001d1565b60405180910390a15b50565b600080620001786200018160201b60201c565b90508091505090565b60007ff0c57e16840df040f15088dc2f81fe391c3923bec73e23a9662efc9c229c6a0060001b905090565b600067ffffffffffffffff82169050919050565b620001cb81620001ac565b82525050565b6000602082019050620001e86000830184620001c0565b92915050565b60805161471f6200021860003960008181612879015281816128ce0152612afb015261471f6000f3fe6080604052600436106102515760003560e01c8063715018a611610139578063bf333f2c116100b6578063de9b94881161007a578063de9b9488146108d2578063e1a45218146108fd578063e74b981b14610928578063e78cea9214610951578063f2fde38b1461095b578063fa1ccffd1461098457610251565b8063bf333f2c146107db578063ca9e445314610806578063cd6dc6871461082f578063d5f5058214610858578063d8c171141461089557610251565b80638c879fb9116100fd5780638c879fb9146106f45780638c8c20031461071f5780638da5cb5b1461075c5780638ebfc79614610787578063ad3cb1cc146107b057610251565b8063715018a61461062157806372070b81146106385780637249fbb6146106635780637d57900a1461068c578063838fb7f1146106b757610251565b80633e718e83116101d2578063469048401161019657806346904840146105425780634f1ef2861461056d57806351858e271461058957806352d1902d146105a057806354fd4d50146105cb5780635c975abb146105f657610251565b80633e718e831461045e5780633f4218e0146104875780633f4ba83a146104c4578063400ba069146104db5780634623c91d1461051957610251565b806312679fed1161021957806312679fed1461034d5780631a17969214610378578063260958a5146103a35780632f7801f4146103e05780633c64f04b1461041d57610251565b806302e888991461025657806305acedf51461027f57806309705de8146102bc5780630c80447a146102f95780630d8e6e2c14610322575b600080fd5b34801561026257600080fd5b5061027d60048036038101906102789190613694565b6109ad565b005b34801561028b57600080fd5b506102a660048036038101906102a1919061370a565b610a10565b6040516102b39190613759565b60405180910390f35b3480156102c857600080fd5b506102e360048036038101906102de9190613774565b610a71565b6040516102f09190613759565b60405180910390f35b34801561030557600080fd5b50610320600480360381019061031b9190613774565b610a91565b005b34801561032e57600080fd5b50610337610b2f565b6040516103449190613831565b60405180910390f35b34801561035957600080fd5b50610362610bc1565b60405161036f9190613862565b60405180910390f35b34801561038457600080fd5b5061038d610bc7565b60405161039a9190613862565b60405180910390f35b3480156103af57600080fd5b506103ca60048036038101906103c591906138b3565b610bcc565b6040516103d791906139dd565b60405180910390f35b3480156103ec57600080fd5b5061040760048036038101906104029190613774565b610ca8565b6040516104149190613862565b60405180910390f35b34801561042957600080fd5b50610444600480360381019061043f91906138b3565b610cc0565b604051610455959493929190613a16565b60405180910390f35b34801561046a57600080fd5b506104856004803603810190610480919061370a565b610d23565b005b34801561049357600080fd5b506104ae60048036038101906104a99190613774565b610e39565b6040516104bb9190613759565b60405180910390f35b3480156104d057600080fd5b506104d9610e59565b005b3480156104e757600080fd5b5061050260048036038101906104fd9190613a69565b610e6b565b604051610510929190613aa9565b60405180910390f35b34801561052557600080fd5b50610540600480360381019061053b9190613694565b610eff565b005b34801561054e57600080fd5b5061055761109f565b6040516105649190613ad2565b60405180910390f35b61058760048036038101906105829190613c22565b6110c3565b005b34801561059557600080fd5b5061059e6110e2565b005b3480156105ac57600080fd5b506105b561116f565b6040516105c29190613c8d565b60405180910390f35b3480156105d757600080fd5b506105e06111a2565b6040516105ed9190613831565b60405180910390f35b34801561060257600080fd5b5061060b611230565b6040516106189190613759565b60405180910390f35b34801561062d57600080fd5b50610636611255565b005b34801561064457600080fd5b5061064d611269565b60405161065a9190613862565b60405180910390f35b34801561066f57600080fd5b5061068a600480360381019061068591906138b3565b61126f565b005b34801561069857600080fd5b506106a16114f1565b6040516106ae9190613862565b60405180910390f35b3480156106c357600080fd5b506106de60048036038101906106d991906138b3565b6114f7565b6040516106eb9190613862565b60405180910390f35b34801561070057600080fd5b506107096115e3565b6040516107169190613862565b60405180910390f35b34801561072b57600080fd5b50610746600480360381019061074191906138b3565b6115e9565b6040516107539190613759565b60405180910390f35b34801561076857600080fd5b5061077161170b565b60405161077e9190613ad2565b60405180910390f35b34801561079357600080fd5b506107ae60048036038101906107a99190613694565b611743565b005b3480156107bc57600080fd5b506107c56117f4565b6040516107d29190613831565b60405180910390f35b3480156107e757600080fd5b506107f061182d565b6040516107fd9190613862565b60405180910390f35b34801561081257600080fd5b5061082d60048036038101906108289190613d5e565b611833565b005b34801561083b57600080fd5b506108566004803603810190610851919061370a565b611e78565b005b34801561086457600080fd5b5061087f600480360381019061087a9190613774565b6122c5565b60405161088c9190613759565b60405180910390f35b3480156108a157600080fd5b506108bc60048036038101906108b791906138b3565b6122e5565b6040516108c99190613862565b60405180910390f35b3480156108de57600080fd5b506108e76122fd565b6040516108f49190613862565b60405180910390f35b34801561090957600080fd5b50610912612303565b60405161091f9190613862565b60405180910390f35b34801561093457600080fd5b5061094f600480360381019061094a9190613774565b612309565b005b6109596123b4565b005b34801561096757600080fd5b50610982600480360381019061097d9190613774565b612669565b005b34801561099057600080fd5b506109ab60048036038101906109a69190613df3565b6126ef565b005b6109b561277e565b80600860008473ffffffffffffffffffffffffffffffffffffffff1673ffffffffffffffffffffffffffffffffffffffff16815260200190815260200160002060006101000a81548160ff0219169083151502179055505050565b6000808383604051602001610a26929190613e89565b60405160208183030381529060405280519060200120905060006007600083815260200190815260200160002054905060008114158015610a675750804210155b9250505092915050565b60086020528060005260406000206000915054906101000a900460ff1681565b610a9961277e565b60008142604051602001610aae929190613e89565b604051602081830303815290604052805190602001209050600060065442610ad69190613ee4565b9050806007600084815260200190815260200160002081905550817f79e2dca331f93c0d9119556c8a471734e6bc8470283391068f156e9a6d3cd3e68483604051610b22929190613f18565b60405180910390a2505050565b6060600b8054610b3e90613f70565b80601f0160208091040260200160405190810160405280929190818152602001828054610b6a90613f70565b8015610bb75780601f10610b8c57610100808354040283529160200191610bb7565b820191906000526020600020905b815481529060010190602001808311610b9a57829003601f168201915b5050505050905090565b60055481565b600281565b610bd4613593565b600360008381526020019081526020016000206040518060a00160405290816000820160009054906101000a900473ffffffffffffffffffffffffffffffffffffffff1673ffffffffffffffffffffffffffffffffffffffff1673ffffffffffffffffffffffffffffffffffffffff1681526020016001820154815260200160028201548152602001600382015481526020016004820160009054906101000a900460ff166002811115610c8b57610c8a6138fe565b5b6002811115610c9d57610c9c6138fe565b5b815250509050919050565b60026020528060005260406000206000915090505481565b60036020528060005260406000206000915090508060000160009054906101000a900473ffffffffffffffffffffffffffffffffffffffff16908060010154908060020154908060030154908060040160009054906101000a900460ff16905085565b610d2b61277e565b60008282604051602001610d40929190613e89565b60405160208183030381529060405280519060200120905060006007600083815260200190815260200160002054905060008103610daa576040517fe1af1e2e00000000000000000000000000000000000000000000000000000000815260040160405180910390fd5b80421015610de4576040517f1bada80200000000000000000000000000000000000000000000000000000000815260040160405180910390fd5b6007600083815260200190815260200160002060009055817f1b011fae1a8fa8755c05a1200229cf94f1218002d660dae8eca1e796db11e21285604051610e2b9190613ad2565b60405180910390a250505050565b60016020528060005260406000206000915054906101000a900460ff1681565b610e6161277e565b610e69612805565b565b600080600160008473ffffffffffffffffffffffffffffffffffffffff1673ffffffffffffffffffffffffffffffffffffffff16815260200190815260200160002060009054906101000a900460ff1615610ecc5760008491509150610ef8565b6127106101f485610edd9190613fa1565b610ee79190614012565b91508184610ef59190614043565b90505b9250929050565b610f0761277e565b808015610f5e5750600460008373ffffffffffffffffffffffffffffffffffffffff1673ffffffffffffffffffffffffffffffffffffffff16815260200190815260200160002060009054906101000a900460ff16155b15610f805760056000815480929190610f7690614077565b9190505550610ff6565b80158015610fd75750600460008373ffffffffffffffffffffffffffffffffffffffff1673ffffffffffffffffffffffffffffffffffffffff16815260200190815260200160002060009054906101000a900460ff165b15610ff55760056000815480929190610fef906140bf565b91905055505b5b80600460008473ffffffffffffffffffffffffffffffffffffffff1673ffffffffffffffffffffffffffffffffffffffff16815260200190815260200160002060006101000a81548160ff0219169083151502179055508173ffffffffffffffffffffffffffffffffffffffff167f763b63b30e91c843bb39e4379603697003d3b7c1f192619cd782fa33bdc44396826040516110939190613759565b60405180910390a25050565b60008054906101000a900473ffffffffffffffffffffffffffffffffffffffff1681565b6110cb612877565b6110d48261295d565b6110de8282612968565b5050565b600860003373ffffffffffffffffffffffffffffffffffffffff1673ffffffffffffffffffffffffffffffffffffffff16815260200190815260200160002060009054906101000a900460ff16611165576040517fea8e4eb500000000000000000000000000000000000000000000000000000000815260040160405180910390fd5b61116d612a87565b565b6000611179612af9565b7f360894a13ba1a3210667c828492db98dca3e2076cc3735a920a3ca505d382bbc60001b905090565b600b80546111af90613f70565b80601f01602080910402602001604051908101604052809291908181526020018280546111db90613f70565b80156112285780601f106111fd57610100808354040283529160200191611228565b820191906000526020600020905b81548152906001019060200180831161120b57829003601f168201915b505050505081565b60008061123b612b80565b90508060000160009054906101000a900460ff1691505090565b61125d61277e565b6112676000612ba8565b565b60095481565b611277612c7f565b6000600360008381526020019081526020016000209050600060028111156112a2576112a16138fe565b5b8160040160009054906101000a900460ff1660028111156112c6576112c56138fe565b5b146112fd576040517f3742d1f600000000000000000000000000000000000000000000000000000000815260040160405180910390fd5b3373ffffffffffffffffffffffffffffffffffffffff168160000160009054906101000a900473ffffffffffffffffffffffffffffffffffffffff1673ffffffffffffffffffffffffffffffffffffffff1614611386576040517f3e87cffd00000000000000000000000000000000000000000000000000000000815260040160405180910390fd5b61070881600301546113989190613ee4565b42116113d0576040517f0b4d698100000000000000000000000000000000000000000000000000000000815260040160405180910390fd5b60028160040160006101000a81548160ff021916908360028111156113f8576113f76138fe565b5b021790555060008160010154905060003373ffffffffffffffffffffffffffffffffffffffff168260405161142c90614119565b60006040518083038185875af1925050503d8060008114611469576040519150601f19603f3d011682016040523d82523d6000602084013e61146e565b606091505b50509050806114a9576040517ff0c49d4400000000000000000000000000000000000000000000000000000000815260040160405180910390fd5b837ff552ca82e113ac3c539c3d617f29fcd19c172a0c75dad017555c9e109f7fe18333846040516114db929190613f18565b60405180910390a25050506114ee612cd6565b50565b61070881565b600080600360008481526020019081526020016000206040518060a00160405290816000820160009054906101000a900473ffffffffffffffffffffffffffffffffffffffff1673ffffffffffffffffffffffffffffffffffffffff1673ffffffffffffffffffffffffffffffffffffffff1681526020016001820154815260200160028201548152602001600382015481526020016004820160009054906101000a900460ff1660028111156115b1576115b06138fe565b5b60028111156115c3576115c26138fe565b5b81525050905061070881606001516115db9190613ee4565b915050919050565b60065481565b600080600360008481526020019081526020016000206040518060a00160405290816000820160009054906101000a900473ffffffffffffffffffffffffffffffffffffffff1673ffffffffffffffffffffffffffffffffffffffff1673ffffffffffffffffffffffffffffffffffffffff1681526020016001820154815260200160028201548152602001600382015481526020016004820160009054906101000a900460ff1660028111156116a3576116a26138fe565b5b60028111156116b5576116b46138fe565b5b815250509050600060028111156116cf576116ce6138fe565b5b816080015160028111156116e6576116e56138fe565b5b148015611703575061070881606001516117009190613ee4565b42115b915050919050565b600080611716612cef565b90508060000160009054906101000a900473ffffffffffffffffffffffffffffffffffffffff1691505090565b61174b61277e565b80600160008473ffffffffffffffffffffffffffffffffffffffff1673ffffffffffffffffffffffffffffffffffffffff16815260200190815260200160002060006101000a81548160ff0219169083151502179055508173ffffffffffffffffffffffffffffffffffffffff167f4d5771454588f51370a8a2e7e151354b6de0dc3159b14821b4ad76bc04c28bc7826040516117e89190613759565b60405180910390a25050565b6040518060400160405280600581526020017f352e302e3000000000000000000000000000000000000000000000000000000081525081565b6101f481565b61183b612c7f565b611843612d17565b60006003600087815260200190815260200160002090506000600281111561186e5761186d6138fe565b5b8160040160009054906101000a900460ff166002811115611892576118916138fe565b5b146118c9576040517f475a253500000000000000000000000000000000000000000000000000000000815260040160405180910390fd5b600073ffffffffffffffffffffffffffffffffffffffff168160000160009054906101000a900473ffffffffffffffffffffffffffffffffffffffff1673ffffffffffffffffffffffffffffffffffffffff1603611953576040517f3b2a862c00000000000000000000000000000000000000000000000000000000815260040160405180910390fd5b828290508585905014611992576040517f815e1d6400000000000000000000000000000000000000000000000000000000815260040160405180910390fd5b60028585905010156119d0576040517fe246dc6300000000000000000000000000000000000000000000000000000000815260040160405180910390fd5b6000868260000160009054906101000a900473ffffffffffffffffffffffffffffffffffffffff16836002015430604051602001611a11949392919061414f565b6040516020818303038152906040528051906020012090506000611a3482612d58565b905060008585905067ffffffffffffffff811115611a5557611a54613af7565b5b604051908082528060200260200182016040528015611a835781602001602082028036833780820191505090505b50905060005b88889050811015611d0c576000611b07848b8b85818110611aad57611aac61419d565b5b9050602002810190611abf91906141db565b8080601f016020809104026020016040519081016040528093929190818152602001838380828437600081840152601f19601f82011690508083019250505050505050612d8e565b9050878783818110611b1c57611b1b61419d565b5b9050602002016020810190611b319190613774565b73ffffffffffffffffffffffffffffffffffffffff168173ffffffffffffffffffffffffffffffffffffffff1614611b95576040517f815e1d6400000000000000000000000000000000000000000000000000000000815260040160405180910390fd5b600460008273ffffffffffffffffffffffffffffffffffffffff1673ffffffffffffffffffffffffffffffffffffffff16815260200190815260200160002060009054906101000a900460ff16611c18576040517f54ac7bfc00000000000000000000000000000000000000000000000000000000815260040160405180910390fd5b60005b82811015611caf578173ffffffffffffffffffffffffffffffffffffffff16848281518110611c4d57611c4c61419d565b5b602002602001015173ffffffffffffffffffffffffffffffffffffffff1603611ca2576040517f8044bb3300000000000000000000000000000000000000000000000000000000815260040160405180910390fd5b8080600101915050611c1b565b5080838381518110611cc457611cc361419d565b5b602002602001019073ffffffffffffffffffffffffffffffffffffffff16908173ffffffffffffffffffffffffffffffffffffffff1681525050508080600101915050611a89565b5060018460040160006101000a81548160ff02191690836002811115611d3557611d346138fe565b5b021790555060008060009054906101000a900473ffffffffffffffffffffffffffffffffffffffff1673ffffffffffffffffffffffffffffffffffffffff168560010154604051611d8590614119565b60006040518083038185875af1925050503d8060008114611dc2576040519150601f19603f3d011682016040523d82523d6000602084013e611dc7565b606091505b5050905080611e02576040517f096dc0e100000000000000000000000000000000000000000000000000000000815260040160405180910390fd5b897f3a5e0271cd79026f0993aa13e6dd17d1f34284aa2340c1d2c33653b9a4433ee98660000160009054906101000a900473ffffffffffffffffffffffffffffffffffffffff168760020154604051611e5c929190613f18565b60405180910390a25050505050611e71612cd6565b5050505050565b6000611e82612dba565b905060008160000160089054906101000a900460ff1615905060008260000160009054906101000a900467ffffffffffffffff1690506000808267ffffffffffffffff16148015611ed05750825b9050600060018367ffffffffffffffff16148015611f05575060003073ffffffffffffffffffffffffffffffffffffffff163b145b905081158015611f13575080155b15611f4a576040517ff92ee8a900000000000000000000000000000000000000000000000000000000815260040160405180910390fd5b60018560000160006101000a81548167ffffffffffffffff021916908367ffffffffffffffff1602179055508315611f9a5760018560000160086101000a81548160ff0219169083151502179055505b611fa333612dce565b611fab612de2565b611fb3612df4565b611fbb612dfe565b866000806101000a81548173ffffffffffffffffffffffffffffffffffffffff021916908373ffffffffffffffffffffffffffffffffffffffff16021790555085600681905550620151806009819055506040518060400160405280600581526020017f312e302e30000000000000000000000000000000000000000000000000000000815250600b908161205091906143ea565b5060018060007317cabc8001a30800835dd8206ceb0c4ba90b591373ffffffffffffffffffffffffffffffffffffffff1673ffffffffffffffffffffffffffffffffffffffff16815260200190815260200160002060006101000a81548160ff0219169083151502179055506001600460007395c46439bd9559e10c4ff49bff3e20720d93b66e73ffffffffffffffffffffffffffffffffffffffff1673ffffffffffffffffffffffffffffffffffffffff16815260200190815260200160002060006101000a81548160ff021916908315150217905550600160046000737e217fa1ce282653115ba04686ae73dd689ee58873ffffffffffffffffffffffffffffffffffffffff1673ffffffffffffffffffffffffffffffffffffffff16815260200190815260200160002060006101000a81548160ff0219169083151502179055506001600460007362942bbbb86482bfa0c064d0262e23ca04ea99c573ffffffffffffffffffffffffffffffffffffffff1673ffffffffffffffffffffffffffffffffffffffff16815260200190815260200160002060006101000a81548160ff02191690831515021790555060036005819055506001600860003373ffffffffffffffffffffffffffffffffffffffff1673ffffffffffffffffffffffffffffffffffffffff16815260200190815260200160002060006101000a81548160ff02191690831515021790555083156122bc5760008560000160086101000a81548160ff0219169083151502179055507fc7f505b2f371ae2175ee4913f4499e1f2633a7b5936321eed1cdaeb6115181d260016040516122b3919061450b565b60405180910390a15b50505050505050565b60046020528060005260406000206000915054906101000a900460ff1681565b60076020528060005260406000206000915090505481565b600a5481565b61271081565b61231161277e565b60008060009054906101000a900473ffffffffffffffffffffffffffffffffffffffff169050816000806101000a81548173ffffffffffffffffffffffffffffffffffffffff021916908373ffffffffffffffffffffffffffffffffffffffff1602179055507faaebcf1bfa00580e41d966056b48521fa9f202645c86d4ddf28113e617c1b1d381836040516123a8929190614526565b60405180910390a15050565b6123bc612c7f565b6123c4612d17565b600034036123fe576040517f2c5211c600000000000000000000000000000000000000000000000000000000815260040160405180910390fd5b600080349050600160003373ffffffffffffffffffffffffffffffffffffffff1673ffffffffffffffffffffffffffffffffffffffff16815260200190815260200160002060009054906101000a900460ff16612481576127106101f4346124669190613fa1565b6124709190614012565b9150813461247e9190614043565b90505b6000600260003373ffffffffffffffffffffffffffffffffffffffff1673ffffffffffffffffffffffffffffffffffffffff16815260200190815260200160002060008154809291906124d390614077565b919050559050600033344284306040516020016124f495949392919061454f565b6040516020818303038152906040528051906020012090506040518060a001604052803373ffffffffffffffffffffffffffffffffffffffff16815260200134815260200184815260200142815260200160006002811115612559576125586138fe565b5b8152506003600083815260200190815260200160002060008201518160000160006101000a81548173ffffffffffffffffffffffffffffffffffffffff021916908373ffffffffffffffffffffffffffffffffffffffff16021790555060208201518160010155604082015181600201556060820151816003015560808201518160040160006101000a81548160ff021916908360028111156125ff576125fe6138fe565b5b02179055509050503373ffffffffffffffffffffffffffffffffffffffff167f719ab00511e884d1ea4921ee843132435dc006b0bb7f8b67fb693b621e45bb533485844260405161265394939291906145ae565b60405180910390a250505050612667612cd6565b565b61267161277e565b600073ffffffffffffffffffffffffffffffffffffffff168173ffffffffffffffffffffffffffffffffffffffff16036126e35760006040517f1e4fbdf70000000000000000000000000000000000000000000000000000000081526004016126da9190613ad2565b60405180910390fd5b6126ec81612ba8565b50565b6126f761277e565b61012c811015612733576040517ff8d10e8200000000000000000000000000000000000000000000000000000000815260040160405180910390fd5b60006006549050816006819055507f3e9cac94b7c7db9b86df56321e6f7e3e88a6c87fc15fd825df1492cf69e335518183604051612772929190613aa9565b60405180910390a15050565b612786612e08565b73ffffffffffffffffffffffffffffffffffffffff166127a461170b565b73ffffffffffffffffffffffffffffffffffffffff1614612803576127c7612e08565b6040517f118cdaa70000000000000000000000000000000000000000000000000000000081526004016127fa9190613ad2565b60405180910390fd5b565b61280d612e10565b6000612817612b80565b905060008160000160006101000a81548160ff0219169083151502179055507f5db9ee0a495bf2e6ff9c91a7834c1ba4fdd244a5e8aa4e537bd38aeae4b073aa61285f612e08565b60405161286c9190613ad2565b60405180910390a150565b7f000000000000000000000000000000000000000000000000000000000000000073ffffffffffffffffffffffffffffffffffffffff163073ffffffffffffffffffffffffffffffffffffffff16148061292457507f000000000000000000000000000000000000000000000000000000000000000073ffffffffffffffffffffffffffffffffffffffff1661290b612e50565b73ffffffffffffffffffffffffffffffffffffffff1614155b1561295b576040517fe07c8dba00000000000000000000000000000000000000000000000000000000815260040160405180910390fd5b565b61296561277e565b50565b8173ffffffffffffffffffffffffffffffffffffffff166352d1902d6040518163ffffffff1660e01b8152600401602060405180830381865afa9250505080156129d057506040513d601f19601f820116820180604052508101906129cd9190614608565b60015b612a1157816040517f4c9c8ce3000000000000000000000000000000000000000000000000000000008152600401612a089190613ad2565b60405180910390fd5b7f360894a13ba1a3210667c828492db98dca3e2076cc3735a920a3ca505d382bbc60001b8114612a7857806040517faa1d49a4000000000000000000000000000000000000000000000000000000008152600401612a6f9190613c8d565b60405180910390fd5b612a828383612ea7565b505050565b612a8f612d17565b6000612a99612b80565b905060018160000160006101000a81548160ff0219169083151502179055507f62e78cea01bee320cd4e420270b5ea74000d11b0c9f74754ebdbfc544b05a258612ae1612e08565b604051612aee9190613ad2565b60405180910390a150565b7f000000000000000000000000000000000000000000000000000000000000000073ffffffffffffffffffffffffffffffffffffffff163073ffffffffffffffffffffffffffffffffffffffff1614612b7e576040517fe07c8dba00000000000000000000000000000000000000000000000000000000815260040160405180910390fd5b565b60007fcd5ed15c6e187e77e9aee88184c21f4f2182ab5827cb3b7e07fbedcd63f03300905090565b6000612bb2612cef565b905060008160000160009054906101000a900473ffffffffffffffffffffffffffffffffffffffff169050828260000160006101000a81548173ffffffffffffffffffffffffffffffffffffffff021916908373ffffffffffffffffffffffffffffffffffffffff1602179055508273ffffffffffffffffffffffffffffffffffffffff168173ffffffffffffffffffffffffffffffffffffffff167f8be0079c531659141344cd1fd0a4f28419497f9722a3daafe3b4186f6b6457e060405160405180910390a3505050565b6000612c89612f1a565b90506002816000015403612cc9576040517f3ee5aeb500000000000000000000000000000000000000000000000000000000815260040160405180910390fd5b6002816000018190555050565b6000612ce0612f1a565b90506001816000018190555050565b60007f9016d09d72d40fdae2fd8ceac6b6234c7706214fd39c1cd1e609a0528c199300905090565b612d1f611230565b15612d56576040517fd93c066500000000000000000000000000000000000000000000000000000000815260040160405180910390fd5b565b60007f19457468657265756d205369676e6564204d6573736167653a0a33320000000060005281601c52603c6000209050919050565b600080600080612d9e8686612f42565b925092509250612dae8282612f9e565b82935050505092915050565b600080612dc5613102565b90508091505090565b612dd661312d565b612ddf8161316d565b50565b612dea61312d565b612df26131f3565b565b612dfc61312d565b565b612e0661312d565b565b600033905090565b612e18611230565b612e4e576040517f8dfc202b00000000000000000000000000000000000000000000000000000000815260040160405180910390fd5b565b6000612e7e7f360894a13ba1a3210667c828492db98dca3e2076cc3735a920a3ca505d382bbc60001b613214565b60000160009054906101000a900473ffffffffffffffffffffffffffffffffffffffff16905090565b612eb08261321e565b8173ffffffffffffffffffffffffffffffffffffffff167fbc7cd75a20ee27fd9adebab32041f755214dbc6bffa90cc0225b39da2e5c2d3b60405160405180910390a2600081511115612f0d57612f0782826132eb565b50612f16565b612f1561336f565b5b5050565b60007f9b779b17422d0df92223018b32b4d1fa46e071723d6817e2486d003becc55f00905090565b60008060006041845103612f875760008060006020870151925060408701519150606087015160001a9050612f79888285856133ac565b955095509550505050612f97565b60006002855160001b9250925092505b9250925092565b60006003811115612fb257612fb16138fe565b5b826003811115612fc557612fc46138fe565b5b03156130fe5760016003811115612fdf57612fde6138fe565b5b826003811115612ff257612ff16138fe565b5b03613029576040517ff645eedf00000000000000000000000000000000000000000000000000000000815260040160405180910390fd5b6002600381111561303d5761303c6138fe565b5b8260038111156130505761304f6138fe565b5b03613095578060001c6040517ffce698f700000000000000000000000000000000000000000000000000000000815260040161308c9190613862565b60405180910390fd5b6003808111156130a8576130a76138fe565b5b8260038111156130bb576130ba6138fe565b5b036130fd57806040517fd78bce0c0000000000000000000000000000000000000000000000000000000081526004016130f49190613c8d565b60405180910390fd5b5b5050565b60007ff0c57e16840df040f15088dc2f81fe391c3923bec73e23a9662efc9c229c6a0060001b905090565b6131356134a0565b61316b576040517fd7e6bcf800000000000000000000000000000000000000000000000000000000815260040160405180910390fd5b565b61317561312d565b600073ffffffffffffffffffffffffffffffffffffffff168173ffffffffffffffffffffffffffffffffffffffff16036131e75760006040517f1e4fbdf70000000000000000000000000000000000000000000000000000000081526004016131de9190613ad2565b60405180910390fd5b6131f081612ba8565b50565b6131fb61312d565b6000613205612f1a565b90506001816000018190555050565b6000819050919050565b60008173ffffffffffffffffffffffffffffffffffffffff163b0361327a57806040517f4c9c8ce30000000000000000000000000000000000000000000000000000000081526004016132719190613ad2565b60405180910390fd5b806132a77f360894a13ba1a3210667c828492db98dca3e2076cc3735a920a3ca505d382bbc60001b613214565b60000160006101000a81548173ffffffffffffffffffffffffffffffffffffffff021916908373ffffffffffffffffffffffffffffffffffffffff16021790555050565b60606000808473ffffffffffffffffffffffffffffffffffffffff16846040516133159190614671565b600060405180830381855af49150503d8060008114613350576040519150601f19603f3d011682016040523d82523d6000602084013e613355565b606091505b50915091506133658583836134c0565b9250505092915050565b60003411156133aa576040517fb398979f00000000000000000000000000000000000000000000000000000000815260040160405180910390fd5b565b60008060007f7fffffffffffffffffffffffffffffff5d576e7357a4501ddfe92f46681b20a08460001c11156133ec576000600385925092509250613496565b60006001888888886040516000815260200160405260405161341194939291906146a4565b6020604051602081039080840390855afa158015613433573d6000803e3d6000fd5b505050602060405103519050600073ffffffffffffffffffffffffffffffffffffffff168173ffffffffffffffffffffffffffffffffffffffff160361348757600060016000801b93509350935050613496565b8060008060001b935093509350505b9450945094915050565b60006134aa612dba565b60000160089054906101000a900460ff16905090565b6060826134d5576134d08261354f565b613547565b600082511480156134fd575060008473ffffffffffffffffffffffffffffffffffffffff163b145b1561353f57836040517f9996b3150000000000000000000000000000000000000000000000000000000081526004016135369190613ad2565b60405180910390fd5b819050613548565b5b9392505050565b60008151111561356157805160208201fd5b6040517fd6bda27500000000000000000000000000000000000000000000000000000000815260040160405180910390fd5b6040518060a00160405280600073ffffffffffffffffffffffffffffffffffffffff168152602001600081526020016000815260200160008152602001600060028111156135e4576135e36138fe565b5b81525090565b6000604051905090565b600080fd5b600080fd5b600073ffffffffffffffffffffffffffffffffffffffff82169050919050565b6000613629826135fe565b9050919050565b6136398161361e565b811461364457600080fd5b50565b60008135905061365681613630565b92915050565b60008115159050919050565b6136718161365c565b811461367c57600080fd5b50565b60008135905061368e81613668565b92915050565b600080604083850312156136ab576136aa6135f4565b5b60006136b985828601613647565b92505060206136ca8582860161367f565b9150509250929050565b6000819050919050565b6136e7816136d4565b81146136f257600080fd5b50565b600081359050613704816136de565b92915050565b60008060408385031215613721576137206135f4565b5b600061372f85828601613647565b9250506020613740858286016136f5565b9150509250929050565b6137538161365c565b82525050565b600060208201905061376e600083018461374a565b92915050565b60006020828403121561378a576137896135f4565b5b600061379884828501613647565b91505092915050565b600081519050919050565b600082825260208201905092915050565b60005b838110156137db5780820151818401526020810190506137c0565b60008484015250505050565b6000601f19601f8301169050919050565b6000613803826137a1565b61380d81856137ac565b935061381d8185602086016137bd565b613826816137e7565b840191505092915050565b6000602082019050818103600083015261384b81846137f8565b905092915050565b61385c816136d4565b82525050565b60006020820190506138776000830184613853565b92915050565b6000819050919050565b6138908161387d565b811461389b57600080fd5b50565b6000813590506138ad81613887565b92915050565b6000602082840312156138c9576138c86135f4565b5b60006138d78482850161389e565b91505092915050565b6138e98161361e565b82525050565b6138f8816136d4565b82525050565b7f4e487b7100000000000000000000000000000000000000000000000000000000600052602160045260246000fd5b6003811061393e5761393d6138fe565b5b50565b600081905061394f8261392d565b919050565b600061395f82613941565b9050919050565b61396f81613954565b82525050565b60a08201600082015161398b60008501826138e0565b50602082015161399e60208501826138ef565b5060408201516139b160408501826138ef565b5060608201516139c460608501826138ef565b5060808201516139d76080850182613966565b50505050565b600060a0820190506139f26000830184613975565b92915050565b613a018161361e565b82525050565b613a1081613954565b82525050565b600060a082019050613a2b60008301886139f8565b613a386020830187613853565b613a456040830186613853565b613a526060830185613853565b613a5f6080830184613a07565b9695505050505050565b60008060408385031215613a8057613a7f6135f4565b5b6000613a8e858286016136f5565b9250506020613a9f85828601613647565b9150509250929050565b6000604082019050613abe6000830185613853565b613acb6020830184613853565b9392505050565b6000602082019050613ae760008301846139f8565b92915050565b600080fd5b600080fd5b7f4e487b7100000000000000000000000000000000000000000000000000000000600052604160045260246000fd5b613b2f826137e7565b810181811067ffffffffffffffff82111715613b4e57613b4d613af7565b5b80604052505050565b6000613b616135ea565b9050613b6d8282613b26565b919050565b600067ffffffffffffffff821115613b8d57613b8c613af7565b5b613b96826137e7565b9050602081019050919050565b82818337600083830152505050565b6000613bc5613bc084613b72565b613b57565b905082815260208101848484011115613be157613be0613af2565b5b613bec848285613ba3565b509392505050565b600082601f830112613c0957613c08613aed565b5b8135613c19848260208601613bb2565b91505092915050565b60008060408385031215613c3957613c386135f4565b5b6000613c4785828601613647565b925050602083013567ffffffffffffffff811115613c6857613c676135f9565b5b613c7485828601613bf4565b9150509250929050565b613c878161387d565b82525050565b6000602082019050613ca26000830184613c7e565b92915050565b600080fd5b600080fd5b60008083601f840112613cc857613cc7613aed565b5b8235905067ffffffffffffffff811115613ce557613ce4613ca8565b5b602083019150836020820283011115613d0157613d00613cad565b5b9250929050565b60008083601f840112613d1e57613d1d613aed565b5b8235905067ffffffffffffffff811115613d3b57613d3a613ca8565b5b602083019150836020820283011115613d5757613d56613cad565b5b9250929050565b600080600080600060608688031215613d7a57613d796135f4565b5b6000613d888882890161389e565b955050602086013567ffffffffffffffff811115613da957613da86135f9565b5b613db588828901613cb2565b9450945050604086013567ffffffffffffffff811115613dd857613dd76135f9565b5b613de488828901613d08565b92509250509295509295909350565b600060208284031215613e0957613e086135f4565b5b6000613e17848285016136f5565b91505092915050565b60008160601b9050919050565b6000613e3882613e20565b9050919050565b6000613e4a82613e2d565b9050919050565b613e62613e5d8261361e565b613e3f565b82525050565b6000819050919050565b613e83613e7e826136d4565b613e68565b82525050565b6000613e958285613e51565b601482019150613ea58284613e72565b6020820191508190509392505050565b7f4e487b7100000000000000000000000000000000000000000000000000000000600052601160045260246000fd5b6000613eef826136d4565b9150613efa836136d4565b9250828201905080821115613f1257613f11613eb5565b5b92915050565b6000604082019050613f2d60008301856139f8565b613f3a6020830184613853565b9392505050565b7f4e487b7100000000000000000000000000000000000000000000000000000000600052602260045260246000fd5b60006002820490506001821680613f8857607f821691505b602082108103613f9b57613f9a613f41565b5b50919050565b6000613fac826136d4565b9150613fb7836136d4565b9250828202613fc5816136d4565b91508282048414831517613fdc57613fdb613eb5565b5b5092915050565b7f4e487b7100000000000000000000000000000000000000000000000000000000600052601260045260246000fd5b600061401d826136d4565b9150614028836136d4565b92508261403857614037613fe3565b5b828204905092915050565b600061404e826136d4565b9150614059836136d4565b925082820390508181111561407157614070613eb5565b5b92915050565b6000614082826136d4565b91507fffffffffffffffffffffffffffffffffffffffffffffffffffffffffffffffff82036140b4576140b3613eb5565b5b600182019050919050565b60006140ca826136d4565b9150600082036140dd576140dc613eb5565b5b600182039050919050565b600081905092915050565b50565b60006141036000836140e8565b915061410e826140f3565b600082019050919050565b6000614124826140f6565b9150819050919050565b6000819050919050565b6141496141448261387d565b61412e565b82525050565b600061415b8287614138565b60208201915061416b8286613e51565b60148201915061417b8285613e72565b60208201915061418b8284613e51565b60148201915081905095945050505050565b7f4e487b7100000000000000000000000000000000000000000000000000000000600052603260045260246000fd5b600080fd5b600080fd5b600080fd5b600080833560016020038436030381126141f8576141f76141cc565b5b80840192508235915067ffffffffffffffff82111561421a576142196141d1565b5b602083019250600182023603831315614236576142356141d6565b5b509250929050565b60008190508160005260206000209050919050565b60006020601f8301049050919050565b600082821b905092915050565b6000600883026142a07fffffffffffffffffffffffffffffffffffffffffffffffffffffffffffffffff82614263565b6142aa8683614263565b95508019841693508086168417925050509392505050565b6000819050919050565b60006142e76142e26142dd846136d4565b6142c2565b6136d4565b9050919050565b6000819050919050565b614301836142cc565b61431561430d826142ee565b848454614270565b825550505050565b600090565b61432a61431d565b6143358184846142f8565b505050565b5b818110156143595761434e600082614322565b60018101905061433b565b5050565b601f82111561439e5761436f8161423e565b61437884614253565b81016020851015614387578190505b61439b61439385614253565b83018261433a565b50505b505050565b600082821c905092915050565b60006143c1600019846008026143a3565b1980831691505092915050565b60006143da83836143b0565b9150826002028217905092915050565b6143f3826137a1565b67ffffffffffffffff81111561440c5761440b613af7565b5b6144168254613f70565b61442182828561435d565b600060209050601f8311600181146144545760008415614442578287015190505b61444c85826143ce565b8655506144b4565b601f1984166144628661423e565b60005b8281101561448a57848901518255600182019150602085019450602081019050614465565b868310156144a757848901516144a3601f8916826143b0565b8355505b6001600288020188555050505b505050505050565b6000819050919050565b600067ffffffffffffffff82169050919050565b60006144f56144f06144eb846144bc565b6142c2565b6144c6565b9050919050565b614505816144da565b82525050565b600060208201905061452060008301846144fc565b92915050565b600060408201905061453b60008301856139f8565b61454860208301846139f8565b9392505050565b600061455b8288613e51565b60148201915061456b8287613e72565b60208201915061457b8286613e72565b60208201915061458b8285613e72565b60208201915061459b8284613e51565b6014820191508190509695505050505050565b60006080820190506145c36000830187613853565b6145d06020830186613853565b6145dd6040830185613c7e565b6145ea6060830184613853565b95945050505050565b60008151905061460281613887565b92915050565b60006020828403121561461e5761461d6135f4565b5b600061462c848285016145f3565b91505092915050565b600081519050919050565b600061464b82614635565b61465581856140e8565b93506146658185602086016137bd565b80840191505092915050565b600061467d8284614640565b915081905092915050565b600060ff82169050919050565b61469e81614688565b82525050565b60006080820190506146b96000830187613c7e565b6146c66020830186614695565b6146d36040830185613c7e565b6146e06060830184613c7e565b9594505050505056fea2646970667358221220f6e277f90b2dbfa9341db74f604d9e9ea508d69f2a72787340995d49cf092b2864736f6c63430008160033",
  "linkReferences": {},
  "deployedLinkReferences": {}
}