{
  "_format": "hh-sol-artifact-1",
  "contractName": "SuperBridgeL2",
  "sourceName": "contracts/SuperBridgeL2.sol",
  "abi": [
    {
      "inputs": [],
      "stateMutability": "nonpayable",
      "type": "constructor"
    },
    {
      "inputs": [],
      "name": "AlreadyFinalized",
      "type": "error"
    },
    {
      "inputs": [],
      "name": "DuplicateSigner",
      "type": "error"
    },
    {
      "inputs": [],
      "name": "ECDSAInvalidSignature",
      "type": "error"
    },
    {
      "inputs": [
        {
          "internalType": "uint256",
          "name": "length",
          "type": "uint256"
        }
      ],
      "name": "ECDSAInvalidSignatureLength",
      "type": "error"
    },
    {
      "inputs": [
        {
          "internalType": "bytes32",
          "name": "s",
          "type": "bytes32"
        }
      ],
      "name": "ECDSAInvalidSignatureS",
      "type": "error"
    },
    {
      "inputs": [],
      "name": "EnforcedPause",
      "type": "error"
    },
    {
      "inputs": [],
      "name": "ExpectedPause",
      "type": "error"
    },
    {
      "inputs": [],
      "name": "ForwardFailed",
      "type": "error"
    },
    {
      "inputs": [],
      "name": "InvalidAmount",
      "type": "error"
    },
    {
      "inputs": [],
      "name": "InvalidSigner",
      "type": "error"
    },
    {
      "inputs": [],
      "name": "InvalidTransferId",
      "type": "error"
    },
    {
      "inputs": [],
      "name": "NotAuthorized",
      "type": "error"
    },
    {
      "inputs": [],
      "name": "NotAuthorizedSigner",
      "type": "error"
    },
    {
      "inputs": [],
      "name": "NotEmergencyOperator",
      "type": "error"
    },
    {
      "inputs": [],
      "name": "NotEnoughSignatures",
      "type": "error"
    },
    {
      "inputs": [],
      "name": "NotRefundable",
      "type": "error"
    },
    {
      "inputs": [],
      "name": "NotYourTransfer",
      "type": "error"
    },
    {
      "inputs": [
        {
          "internalType": "address",
          "name": "owner",
          "type": "address"
        }
      ],
      "name": "OwnableInvalidOwner",
      "type": "error"
    },
    {
      "inputs": [
        {
          "internalType": "address",
          "name": "account",
          "type": "address"
        }
      ],
      "name": "OwnableUnauthorizedAccount",
      "type": "error"
    },
    {
      "inputs": [],
      "name": "ReentrancyGuardReentrantCall",
      "type": "error"
    },
    {
      "inputs": [],
      "name": "RefundFailed",
      "type": "error"
    },
    {
      "inputs": [],
      "name": "RefundNotAvailable",
      "type": "error"
    },
    {
      "anonymous": false,
      "inputs": [
        {
          "indexed": true,
          "internalType": "bytes32",
          "name": "transferId",
          "type": "bytes32"
        },
        {
          "indexed": false,
          "internalType": "address",
          "name": "user",
          "type": "address"
        },
        {
          "indexed": false,
          "internalType": "uint256",
          "name": "bridgedAmount",
          "type": "uint256"
        }
      ],
      "name": "BridgeCompleted",
      "type": "event"
    },
    {
      "anonymous": false,
      "inputs": [
        {
          "indexed": true,
          "internalType": "address",
          "name": "user",
          "type": "address"
        },
        {
          "indexed": false,
          "internalType": "uint256",
          "name": "originalAmount",
          "type": "uint256"
        },
        {
          "indexed": false,
          "internalType": "uint256",
          "name": "bridgedAmount",
          "type": "uint256"
        },
        {
          "indexed": false,
          "internalType": "bytes32",
          "name": "transferId",
          "type": "bytes32"
        },
        {
          "indexed": false,
          "internalType": "uint256",
          "name": "timestamp",
          "type": "uint256"
        }
      ],
      "name": "BridgeInitiated",
      "type": "event"
    },
    {
      "anonymous": false,
      "inputs": [
        {
          "indexed": true,
          "internalType": "address",
          "name": "operator",
          "type": "address"
        },
        {
          "indexed": false,
          "internalType": "bool",
          "name": "status",
          "type": "bool"
        }
      ],
      "name": "EmergencyOperatorUpdated",
      "type": "event"
    },
    {
      "anonymous": false,
      "inputs": [
        {
          "indexed": true,
          "internalType": "address",
          "name": "user",
          "type": "address"
        },
        {
          "indexed": false,
          "internalType": "bool",
          "name": "exempt",
          "type": "bool"
        }
      ],
      "name": "FeeExemptUpdated",
      "type": "event"
    },
    {
      "anonymous": false,
      "inputs": [
        {
          "indexed": false,
          "internalType": "address",
          "name": "oldRecipient",
          "type": "address"
        },
        {
          "indexed": false,
          "internalType": "address",
          "name": "newRecipient",
          "type": "address"
        }
      ],
      "name": "FeeRecipientUpdated",
      "type": "event"
    },
    {
      "anonymous": false,
      "inputs": [
        {
          "indexed": true,
          "internalType": "address",
          "name": "previousOwner",
          "type": "address"
        },
        {
          "indexed": true,
          "internalType": "address",
          "name": "newOwner",
          "type": "address"
        }
      ],
      "name": "OwnershipTransferred",
      "type": "event"
    },
    {
      "anonymous": false,
      "inputs": [
        {
          "indexed": false,
          "internalType": "address",
          "name": "account",
          "type": "address"
        }
      ],
      "name": "Paused",
      "type": "event"
    },
    {
      "anonymous": false,
      "inputs": [
        {
          "indexed": true,
          "internalType": "bytes32",
          "name": "transferId",
          "type": "bytes32"
        },
        {
          "indexed": false,
          "internalType": "address",
          "name": "user",
          "type": "address"
        },
        {
          "indexed": false,
          "internalType": "uint256",
          "name": "amount",
          "type": "uint256"
        }
      ],
      "name": "Refunded",
      "type": "event"
    },
    {
      "anonymous": false,
      "inputs": [
        {
          "indexed": false,
          "internalType": "address",
          "name": "account",
          "type": "address"
        }
      ],
      "name": "Unpaused",
      "type": "event"
    },
    {
      "anonymous": false,
      "inputs": [
        {
          "indexed": true,
          "internalType": "address",
          "name": "validator",
          "type": "address"
        },
        {
          "indexed": false,
          "internalType": "bool",
          "name": "isValid",
          "type": "bool"
        }
      ],
      "name": "ValidatorUpdated",
      "type": "event"
    },
    {
      "inputs": [],
      "name": "BPS_DENOMINATOR",
      "outputs": [
        {
          "internalType": "uint256",
          "name": "",
          "type": "uint256"
        }
      ],
      "stateMutability": "view",
      "type": "function"
    },
    {
      "inputs": [],
      "name": "FEE_BPS",
      "outputs": [
        {
          "internalType": "uint256",
          "name": "",
          "type": "uint256"
        }
      ],
      "stateMutability": "view",
      "type": "function"
    },
    {
      "inputs": [],
      "name": "FUNDS_RECIPIENT",
      "outputs": [
        {
          "internalType": "address",
          "name": "",
          "type": "address"
        }
      ],
      "stateMutability": "view",
      "type": "function"
    },
    {
      "inputs": [],
      "name": "MIN_SIGNATURES",
      "outputs": [
        {
          "internalType": "uint256",
          "name": "",
          "type": "uint256"
        }
      ],
      "stateMutability": "view",
      "type": "function"
    },
    {
      "inputs": [],
      "name": "REFUND_TIMEOUT",
      "outputs": [
        {
          "internalType": "uint256",
          "name": "",
          "type": "uint256"
        }
      ],
      "stateMutability": "view",
      "type": "function"
    },
    {
      "inputs": [],
      "name": "bridge",
      "outputs": [],
      "stateMutability": "payable",
      "type": "function"
    },
    {
      "inputs": [
        {
          "internalType": "uint256",
          "name": "amount",
          "type": "uint256"
        },
        {
          "internalType": "address",
          "name": "user",
          "type": "address"
        }
      ],
      "name": "calculateFee",
      "outputs": [
        {
          "internalType": "uint256",
          "name": "fee",
          "type": "uint256"
        },
        {
          "internalType": "uint256",
          "name": "bridged",
          "type": "uint256"
        }
      ],
      "stateMutability": "view",
      "type": "function"
    },
    {
      "inputs": [
        {
          "internalType": "bytes32",
          "name": "transferId",
          "type": "bytes32"
        }
      ],
      "name": "canRefund",
      "outputs": [
        {
          "internalType": "bool",
          "name": "",
          "type": "bool"
        }
      ],
      "stateMutability": "view",
      "type": "function"
    },
    {
      "inputs": [
        {
          "internalType": "bytes32",
          "name": "transferId",
          "type": "bytes32"
        },
        {
          "internalType": "bytes[]",
          "name": "signatures",
          "type": "bytes[]"
        },
        {
          "internalType": "address[]",
          "name": "signers",
          "type": "address[]"
        }
      ],
      "name": "complete",
      "outputs": [],
      "stateMutability": "nonpayable",
      "type": "function"
    },
    {
      "inputs": [
        {
          "internalType": "address",
          "name": "",
          "type": "address"
        }
      ],
      "name": "emergencyOperators",
      "outputs": [
        {
          "internalType": "bool",
          "name": "",
          "type": "bool"
        }
      ],
      "stateMutability": "view",
      "type": "function"
    },
    {
      "inputs": [],
      "name": "emergencyPause",
      "outputs": [],
      "stateMutability": "nonpayable",
      "type": "function"
    },
    {
      "inputs": [],
      "name": "feeRecipient",
      "outputs": [
        {
          "internalType": "address",
          "name": "",
          "type": "address"
        }
      ],
      "stateMutability": "view",
      "type": "function"
    },
    {
      "inputs": [
        {
          "internalType": "bytes32",
          "name": "transferId",
          "type": "bytes32"
        }
      ],
      "name": "getRefundTime",
      "outputs": [
        {
          "internalType": "uint256",
          "name": "",
          "type": "uint256"
        }
      ],
      "stateMutability": "view",
      "type": "function"
    },
    {
      "inputs": [
        {
          "internalType": "bytes32",
          "name": "transferId",
          "type": "bytes32"
        }
      ],
      "name": "getTransfer",
      "outputs": [
        {
          "components": [
            {
              "internalType": "address",
              "name": "user",
              "type": "address"
            },
            {
              "internalType": "uint256",
              "name": "originalAmount",
              "type": "uint256"
            },
            {
              "internalType": "uint256",
              "name": "bridgedAmount",
              "type": "uint256"
            },
            {
              "internalType": "uint256",
              "name": "timestamp",
              "type": "uint256"
            },
            {
              "internalType": "enum SuperBridgeL2.Status",
              "name": "status",
              "type": "uint8"
            }
          ],
          "internalType": "struct SuperBridgeL2.Transfer",
          "name": "",
          "type": "tuple"
        }
      ],
      "stateMutability": "view",
      "type": "function"
    },
    {
      "inputs": [],
      "name": "getVersion",
      "outputs": [
        {
          "internalType": "string",
          "name": "",
          "type": "string"
        }
      ],
      "stateMutability": "view",
      "type": "function"
    },
    {
      "inputs": [
        {
          "internalType": "address",
          "name": "",
          "type": "address"
        }
      ],
      "name": "isFeeExempt",
      "outputs": [
        {
          "internalType": "bool",
          "name": "",
          "type": "bool"
        }
      ],
      "stateMutability": "view",
      "type": "function"
    },
    {
      "inputs": [
        {
          "internalType": "address",
          "name": "",
          "type": "address"
        }
      ],
      "name": "isValidSigner",
      "outputs": [
        {
          "internalType": "bool",
          "name": "",
          "type": "bool"
        }
      ],
      "stateMutability": "view",
      "type": "function"
    },
    {
      "inputs": [],
      "name": "numSigners",
      "outputs": [
        {
          "internalType": "uint256",
          "name": "",
          "type": "uint256"
        }
      ],
      "stateMutability": "view",
      "type": "function"
    },
    {
      "inputs": [],
      "name": "owner",
      "outputs": [
        {
          "internalType": "address",
          "name": "",
          "type": "address"
        }
      ],
      "stateMutability": "view",
      "type": "function"
    },
    {
      "inputs": [],
      "name": "paused",
      "outputs": [
        {
          "internalType": "bool",
          "name": "",
          "type": "bool"
        }
      ],
      "stateMutability": "view",
      "type": "function"
    },
    {
      "inputs": [
        {
          "internalType": "bytes32",
          "name": "transferId",
          "type": "bytes32"
        }
      ],
      "name": "refund",
      "outputs": [],
      "stateMutability": "nonpayable",
      "type": "function"
    },
    {
      "inputs": [],
      "name": "renounceOwnership",
      "outputs": [],
      "stateMutability": "nonpayable",
      "type": "function"
    },
    {
      "inputs": [
        {
          "internalType": "address",
          "name": "operator",
          "type": "address"
        },
        {
          "internalType": "bool",
          "name": "status",
          "type": "bool"
        }
      ],
      "name": "setEmergencyOperator",
      "outputs": [],
      "stateMutability": "nonpayable",
      "type": "function"
    },
    {
      "inputs": [
        {
          "internalType": "address",
          "name": "user",
          "type": "address"
        },
        {
          "internalType": "bool",
          "name": "exempt",
          "type": "bool"
        }
      ],
      "name": "setFeeExempt",
      "outputs": [],
      "stateMutability": "nonpayable",
      "type": "function"
    },
    {
      "inputs": [
        {
          "internalType": "address",
          "name": "_feeRecipient",
          "type": "address"
        }
      ],
      "name": "setFeeRecipient",
      "outputs": [],
      "stateMutability": "nonpayable",
      "type": "function"
    },
    {
      "inputs": [
        {
          "internalType": "address",
          "name": "validator",
          "type": "address"
        },
        {
          "internalType": "bool",
          "name": "isValid",
          "type": "bool"
        }
      ],
      "name": "setValidator",
      "outputs": [],
      "stateMutability": "nonpayable",
      "type": "function"
    },
    {
      "inputs": [
        {
          "internalType": "address",
          "name": "newOwner",
          "type": "address"
        }
      ],
      "name": "transferOwnership",
      "outputs": [],
      "stateMutability": "nonpayable",
      "type": "function"
    },
    {
      "inputs": [
        {
          "internalType": "bytes32",
          "name": "",
          "type": "bytes32"
        }
      ],
      "name": "transfers",
      "outputs": [
        {
          "internalType": "address",
          "name": "user",
          "type": "address"
        },
        {
          "internalType": "uint256",
          "name": "originalAmount",
          "type": "uint256"
        },
        {
          "internalType": "uint256",
          "name": "bridgedAmount",
          "type": "uint256"
        },
        {
          "internalType": "uint256",
          "name": "timestamp",
          "type": "uint256"
        },
        {
          "internalType": "enum SuperBridgeL2.Status",
          "name": "status",
          "type": "uint8"
        }
      ],
      "stateMutability": "view",
      "type": "function"
    },
    {
      "inputs": [],
      "name": "unpause",
      "outputs": [],
      "stateMutability": "nonpayable",
      "type": "function"
    },
    {
      "inputs": [
        {
          "internalType": "address",
          "name": "",
          "type": "address"
        }
      ],
      "name": "userNonces",
      "outputs": [
        {
          "internalType": "uint256",
          "name": "",
          "type": "uint256"
        }
      ],
      "stateMutability": "view",
      "type": "function"
    },
    {
      "inputs": [],
      "name": "version",
      "outputs": [
        {
          "internalType": "string",
          "name": "",
          "type": "string"
        }
      ],
      "stateMutability": "view",
      "type": "function"
    },
    {
      "stateMutability": "payable",
      "type": "receive"
    }
  ],
  "bytecode": "0x60806040523480156200001157600080fd5b5033600073ffffffffffffffffffffffffffffffffffffffff168173ffffffffffffffffffffffffffffffffffffffff1603620000885760006040517f1e4fbdf70000000000000000000000000000000000000000000000000000000081526004016200007f919062000400565b60405180910390fd5b6200009981620002f760201b60201c565b50600180819055506040518060400160405280600581526020017f312e302e3000000000000000000000000000000000000000000000000000000081525060099081620000e7919062000697565b506001600360007317cabc8001a30800835dd8206ceb0c4ba90b591373ffffffffffffffffffffffffffffffffffffffff1673ffffffffffffffffffffffffffffffffffffffff16815260200190815260200160002060006101000a81548160ff0219169083151502179055506001600660007373af5be3db46ce3b7c50fd833b9c60180f33944973ffffffffffffffffffffffffffffffffffffffff1673ffffffffffffffffffffffffffffffffffffffff16815260200190815260200160002060006101000a81548160ff02191690831515021790555060016007819055506001600860003373ffffffffffffffffffffffffffffffffffffffff1673ffffffffffffffffffffffffffffffffffffffff16815260200190815260200160002060006101000a81548160ff0219169083151502179055506001600860007323d26298248ffcc71f49849fa0beb8e30a2bde6c73ffffffffffffffffffffffffffffffffffffffff1673ffffffffffffffffffffffffffffffffffffffff16815260200190815260200160002060006101000a81548160ff0219169083151502179055507323d26298248ffcc71f49849fa0beb8e30a2bde6c73ffffffffffffffffffffffffffffffffffffffff167fb996d0053f97123248d7cdf421b1f745424b78ade3df5cf1002c6d8e65561d836001604051620002e991906200079b565b60405180910390a2620007b8565b60008060009054906101000a900473ffffffffffffffffffffffffffffffffffffffff169050816000806101000a81548173ffffffffffffffffffffffffffffffffffffffff021916908373ffffffffffffffffffffffffffffffffffffffff1602179055508173ffffffffffffffffffffffffffffffffffffffff168173ffffffffffffffffffffffffffffffffffffffff167f8be0079c531659141344cd1fd0a4f28419497f9722a3daafe3b4186f6b6457e060405160405180910390a35050565b600073ffffffffffffffffffffffffffffffffffffffff82169050919050565b6000620003e882620003bb565b9050919050565b620003fa81620003db565b82525050565b6000602082019050620004176000830184620003ef565b92915050565b600081519050919050565b7f4e487b7100000000000000000000000000000000000000000000000000000000600052604160045260246000fd5b7f4e487b7100000000000000000000000000000000000000000000000000000000600052602260045260246000fd5b600060028204905060018216806200049f57607f821691505b602082108103620004b557620004b462000457565b5b50919050565b60008190508160005260206000209050919050565b60006020601f8301049050919050565b600082821b905092915050565b6000600883026200051f7fffffffffffffffffffffffffffffffffffffffffffffffffffffffffffffffff82620004e0565b6200052b8683620004e0565b95508019841693508086168417925050509392505050565b6000819050919050565b6000819050919050565b600062000578620005726200056c8462000543565b6200054d565b62000543565b9050919050565b6000819050919050565b620005948362000557565b620005ac620005a3826200057f565b848454620004ed565b825550505050565b600090565b620005c3620005b4565b620005d081848462000589565b505050565b5b81811015620005f857620005ec600082620005b9565b600181019050620005d6565b5050565b601f82111562000647576200061181620004bb565b6200061c84620004d0565b810160208510156200062c578190505b620006446200063b85620004d0565b830182620005d5565b50505b505050565b600082821c905092915050565b60006200066c600019846008026200064c565b1980831691505092915050565b600062000687838362000659565b9150826002028217905092915050565b620006a2826200041d565b67ffffffffffffffff811115620006be57620006bd62000428565b5b620006ca825462000486565b620006d7828285620005fc565b600060209050601f8311600181146200070f5760008415620006fa578287015190505b62000706858262000679565b86555062000776565b601f1984166200071f86620004bb565b60005b82811015620007495784890151825560018201915060208501945060208101905062000722565b8683101562000769578489015162000765601f89168262000659565b8355505b6001600288020188555050505b505050505050565b60008115159050919050565b62000795816200077e565b82525050565b6000602082019050620007b260008301846200078a565b92915050565b612fd280620007c86000396000f3fe6080604052600436106101dc5760003560e01c806354fd4d50116101025780638ebfc79611610095578063e1a4521811610064578063e1a45218146106d2578063e74b981b146106fd578063e78cea9214610726578063f2fde38b14610730576101e3565b80638ebfc79614610618578063bf333f2c14610641578063ca9e44531461066c578063d5f5058214610695576101e3565b80637d57900a116100d15780637d57900a14610548578063838fb7f1146105735780638c8c2003146105b05780638da5cb5b146105ed576101e3565b806354fd4d50146104b25780635c975abb146104dd578063715018a6146105085780637249fbb61461051f576101e3565b806337b11bbf1161017a578063400ba06911610149578063400ba069146104095780634623c91d14610447578063469048401461047057806351858e271461049b576101e3565b806337b11bbf146103495780633c64f04b146103745780633f4218e0146103b55780633f4ba83a146103f2576101e3565b806312679fed116101b657806312679fed146102795780631a179692146102a4578063260958a5146102cf5780632f7801f41461030c576101e3565b806302e88899146101e857806309705de8146102115780630d8e6e2c1461024e576101e3565b366101e357005b600080fd5b3480156101f457600080fd5b5061020f600480360381019061020a91906124ba565b610759565b005b34801561021d57600080fd5b50610238600480360381019061023391906124fa565b61080a565b6040516102459190612536565b60405180910390f35b34801561025a57600080fd5b5061026361082a565b60405161027091906125e1565b60405180910390f35b34801561028557600080fd5b5061028e6108bc565b60405161029b919061261c565b60405180910390f35b3480156102b057600080fd5b506102b96108c2565b6040516102c6919061261c565b60405180910390f35b3480156102db57600080fd5b506102f660048036038101906102f1919061266d565b6108c7565b6040516103039190612797565b60405180910390f35b34801561031857600080fd5b50610333600480360381019061032e91906124fa565b6109a3565b604051610340919061261c565b60405180910390f35b34801561035557600080fd5b5061035e6109bb565b60405161036b91906127c1565b60405180910390f35b34801561038057600080fd5b5061039b6004803603810190610396919061266d565b6109d3565b6040516103ac9594939291906127eb565b60405180910390f35b3480156103c157600080fd5b506103dc60048036038101906103d791906124fa565b610a36565b6040516103e99190612536565b60405180910390f35b3480156103fe57600080fd5b50610407610a56565b005b34801561041557600080fd5b50610430600480360381019061042b919061286a565b610a68565b60405161043e9291906128aa565b60405180910390f35b34801561045357600080fd5b5061046e600480360381019061046991906124ba565b610afc565b005b34801561047c57600080fd5b50610485610c9c565b60405161049291906127c1565b60405180910390f35b3480156104a757600080fd5b506104b0610cc2565b005b3480156104be57600080fd5b506104c7610d4f565b6040516104d491906125e1565b60405180910390f35b3480156104e957600080fd5b506104f2610ddd565b6040516104ff9190612536565b60405180910390f35b34801561051457600080fd5b5061051d610df4565b005b34801561052b57600080fd5b506105466004803603810190610541919061266d565b610e08565b005b34801561055457600080fd5b5061055d61108a565b60405161056a919061261c565b60405180910390f35b34801561057f57600080fd5b5061059a6004803603810190610595919061266d565b611090565b6040516105a7919061261c565b60405180910390f35b3480156105bc57600080fd5b506105d760048036038101906105d2919061266d565b61117c565b6040516105e49190612536565b60405180910390f35b3480156105f957600080fd5b5061060261129e565b60405161060f91906127c1565b60405180910390f35b34801561062457600080fd5b5061063f600480360381019061063a91906124ba565b6112c7565b005b34801561064d57600080fd5b50610656611378565b604051610663919061261c565b60405180910390f35b34801561067857600080fd5b50610693600480360381019061068e919061298e565b61137e565b005b3480156106a157600080fd5b506106bc60048036038101906106b791906124fa565b6119b6565b6040516106c99190612536565b60405180910390f35b3480156106de57600080fd5b506106e76119d6565b6040516106f4919061261c565b60405180910390f35b34801561070957600080fd5b50610724600480360381019061071f91906124fa565b6119dc565b005b61072e611a89565b005b34801561073c57600080fd5b50610757600480360381019061075291906124fa565b611d3e565b005b610761611dc4565b80600860008473ffffffffffffffffffffffffffffffffffffffff1673ffffffffffffffffffffffffffffffffffffffff16815260200190815260200160002060006101000a81548160ff0219169083151502179055508173ffffffffffffffffffffffffffffffffffffffff167fb996d0053f97123248d7cdf421b1f745424b78ade3df5cf1002c6d8e65561d83826040516107fe9190612536565b60405180910390a25050565b60086020528060005260406000206000915054906101000a900460ff1681565b60606009805461083990612a52565b80601f016020809104026020016040519081016040528092919081815260200182805461086590612a52565b80156108b25780601f10610887576101008083540402835291602001916108b2565b820191906000526020600020905b81548152906001019060200180831161089557829003601f168201915b5050505050905090565b60075481565b600181565b6108cf6123c3565b600560008381526020019081526020016000206040518060a00160405290816000820160009054906101000a900473ffffffffffffffffffffffffffffffffffffffff1673ffffffffffffffffffffffffffffffffffffffff1673ffffffffffffffffffffffffffffffffffffffff1681526020016001820154815260200160028201548152602001600382015481526020016004820160009054906101000a900460ff166002811115610986576109856126b8565b5b6002811115610998576109976126b8565b5b815250509050919050565b60046020528060005260406000206000915090505481565b7323d26298248ffcc71f49849fa0beb8e30a2bde6c81565b60056020528060005260406000206000915090508060000160009054906101000a900473ffffffffffffffffffffffffffffffffffffffff16908060010154908060020154908060030154908060040160009054906101000a900460ff16905085565b60036020528060005260406000206000915054906101000a900460ff1681565b610a5e611dc4565b610a66611e4b565b565b600080600360008473ffffffffffffffffffffffffffffffffffffffff1673ffffffffffffffffffffffffffffffffffffffff16815260200190815260200160002060009054906101000a900460ff1615610ac95760008491509150610af5565b6127106101f485610ada9190612ab2565b610ae49190612b23565b91508184610af29190612b54565b90505b9250929050565b610b04611dc4565b808015610b5b5750600660008373ffffffffffffffffffffffffffffffffffffffff1673ffffffffffffffffffffffffffffffffffffffff16815260200190815260200160002060009054906101000a900460ff16155b15610b7d5760076000815480929190610b7390612b88565b9190505550610bf3565b80158015610bd45750600660008373ffffffffffffffffffffffffffffffffffffffff1673ffffffffffffffffffffffffffffffffffffffff16815260200190815260200160002060009054906101000a900460ff165b15610bf25760076000815480929190610bec90612bd0565b91905055505b5b80600660008473ffffffffffffffffffffffffffffffffffffffff1673ffffffffffffffffffffffffffffffffffffffff16815260200190815260200160002060006101000a81548160ff0219169083151502179055508173ffffffffffffffffffffffffffffffffffffffff167f763b63b30e91c843bb39e4379603697003d3b7c1f192619cd782fa33bdc4439682604051610c909190612536565b60405180910390a25050565b600260019054906101000a900473ffffffffffffffffffffffffffffffffffffffff1681565b600860003373ffffffffffffffffffffffffffffffffffffffff1673ffffffffffffffffffffffffffffffffffffffff16815260200190815260200160002060009054906101000a900460ff16610d45576040517f6ea3b48f00000000000000000000000000000000000000000000000000000000815260040160405180910390fd5b610d4d611eae565b565b60098054610d5c90612a52565b80601f0160208091040260200160405190810160405280929190818152602001828054610d8890612a52565b8015610dd55780601f10610daa57610100808354040283529160200191610dd5565b820191906000526020600020905b815481529060010190602001808311610db857829003601f168201915b505050505081565b6000600260009054906101000a900460ff16905090565b610dfc611dc4565b610e066000611f11565b565b610e10611fd5565b600060056000838152602001908152602001600020905060006002811115610e3b57610e3a6126b8565b5b8160040160009054906101000a900460ff166002811115610e5f57610e5e6126b8565b5b14610e96576040517f3742d1f600000000000000000000000000000000000000000000000000000000815260040160405180910390fd5b3373ffffffffffffffffffffffffffffffffffffffff168160000160009054906101000a900473ffffffffffffffffffffffffffffffffffffffff1673ffffffffffffffffffffffffffffffffffffffff1614610f1f576040517f3e87cffd00000000000000000000000000000000000000000000000000000000815260040160405180910390fd5b6107088160030154610f319190612bf9565b4211610f69576040517f0b4d698100000000000000000000000000000000000000000000000000000000815260040160405180910390fd5b60028160040160006101000a81548160ff02191690836002811115610f9157610f906126b8565b5b021790555060008160010154905060003373ffffffffffffffffffffffffffffffffffffffff1682604051610fc590612c5e565b60006040518083038185875af1925050503d8060008114611002576040519150601f19603f3d011682016040523d82523d6000602084013e611007565b606091505b5050905080611042576040517ff0c49d4400000000000000000000000000000000000000000000000000000000815260040160405180910390fd5b837ff552ca82e113ac3c539c3d617f29fcd19c172a0c75dad017555c9e109f7fe1833384604051611074929190612c73565b60405180910390a250505061108761201b565b50565b61070881565b600080600560008481526020019081526020016000206040518060a00160405290816000820160009054906101000a900473ffffffffffffffffffffffffffffffffffffffff1673ffffffffffffffffffffffffffffffffffffffff1673ffffffffffffffffffffffffffffffffffffffff1681526020016001820154815260200160028201548152602001600382015481526020016004820160009054906101000a900460ff16600281111561114a576111496126b8565b5b600281111561115c5761115b6126b8565b5b81525050905061070881606001516111749190612bf9565b915050919050565b600080600560008481526020019081526020016000206040518060a00160405290816000820160009054906101000a900473ffffffffffffffffffffffffffffffffffffffff1673ffffffffffffffffffffffffffffffffffffffff1673ffffffffffffffffffffffffffffffffffffffff1681526020016001820154815260200160028201548152602001600382015481526020016004820160009054906101000a900460ff166002811115611236576112356126b8565b5b6002811115611248576112476126b8565b5b81525050905060006002811115611262576112616126b8565b5b81608001516002811115611279576112786126b8565b5b148015611296575061070881606001516112939190612bf9565b42115b915050919050565b60008060009054906101000a900473ffffffffffffffffffffffffffffffffffffffff16905090565b6112cf611dc4565b80600360008473ffffffffffffffffffffffffffffffffffffffff1673ffffffffffffffffffffffffffffffffffffffff16815260200190815260200160002060006101000a81548160ff0219169083151502179055508173ffffffffffffffffffffffffffffffffffffffff167f4d5771454588f51370a8a2e7e151354b6de0dc3159b14821b4ad76bc04c28bc78260405161136c9190612536565b60405180910390a25050565b6101f481565b611386611fd5565b61138e612024565b6000600560008781526020019081526020016000209050600060028111156113b9576113b86126b8565b5b8160040160009054906101000a900460ff1660028111156113dd576113dc6126b8565b5b14611414576040517f475a253500000000000000000000000000000000000000000000000000000000815260040160405180910390fd5b600073ffffffffffffffffffffffffffffffffffffffff168160000160009054906101000a900473ffffffffffffffffffffffffffffffffffffffff1673ffffffffffffffffffffffffffffffffffffffff160361149e576040517f3b2a862c00000000000000000000000000000000000000000000000000000000815260040160405180910390fd5b8282905085859050146114dd576040517f815e1d6400000000000000000000000000000000000000000000000000000000815260040160405180910390fd5b600185859050101561151b576040517fe246dc6300000000000000000000000000000000000000000000000000000000815260040160405180910390fd5b6000868260000160009054906101000a900473ffffffffffffffffffffffffffffffffffffffff1683600201543060405160200161155c9493929190612d26565b604051602081830303815290604052805190602001209050600061157f82612065565b905060008585905067ffffffffffffffff8111156115a05761159f612d74565b5b6040519080825280602002602001820160405280156115ce5781602001602082028036833780820191505090505b50905060005b88889050811015611857576000611652848b8b858181106115f8576115f7612da3565b5b905060200281019061160a9190612de1565b8080601f016020809104026020016040519081016040528093929190818152602001838380828437600081840152601f19601f8201169050808301925050505050505061209b565b905087878381811061166757611666612da3565b5b905060200201602081019061167c91906124fa565b73ffffffffffffffffffffffffffffffffffffffff168173ffffffffffffffffffffffffffffffffffffffff16146116e0576040517f815e1d6400000000000000000000000000000000000000000000000000000000815260040160405180910390fd5b600660008273ffffffffffffffffffffffffffffffffffffffff1673ffffffffffffffffffffffffffffffffffffffff16815260200190815260200160002060009054906101000a900460ff16611763576040517f54ac7bfc00000000000000000000000000000000000000000000000000000000815260040160405180910390fd5b60005b828110156117fa578173ffffffffffffffffffffffffffffffffffffffff1684828151811061179857611797612da3565b5b602002602001015173ffffffffffffffffffffffffffffffffffffffff16036117ed576040517f8044bb3300000000000000000000000000000000000000000000000000000000815260040160405180910390fd5b8080600101915050611766565b508083838151811061180f5761180e612da3565b5b602002602001019073ffffffffffffffffffffffffffffffffffffffff16908173ffffffffffffffffffffffffffffffffffffffff16815250505080806001019150506115d4565b5060018460040160006101000a81548160ff021916908360028111156118805761187f6126b8565b5b021790555060007323d26298248ffcc71f49849fa0beb8e30a2bde6c73ffffffffffffffffffffffffffffffffffffffff1685600101546040516118c390612c5e565b60006040518083038185875af1925050503d8060008114611900576040519150601f19603f3d011682016040523d82523d6000602084013e611905565b606091505b5050905080611940576040517f096dc0e100000000000000000000000000000000000000000000000000000000815260040160405180910390fd5b897f3a5e0271cd79026f0993aa13e6dd17d1f34284aa2340c1d2c33653b9a4433ee98660000160009054906101000a900473ffffffffffffffffffffffffffffffffffffffff16876002015460405161199a929190612c73565b60405180910390a250505050506119af61201b565b5050505050565b60066020528060005260406000206000915054906101000a900460ff1681565b61271081565b6119e4611dc4565b6000600260019054906101000a900473ffffffffffffffffffffffffffffffffffffffff16905081600260016101000a81548173ffffffffffffffffffffffffffffffffffffffff021916908373ffffffffffffffffffffffffffffffffffffffff1602179055507faaebcf1bfa00580e41d966056b48521fa9f202645c86d4ddf28113e617c1b1d38183604051611a7d929190612e44565b60405180910390a15050565b611a91611fd5565b611a99612024565b60003403611ad3576040517f2c5211c600000000000000000000000000000000000000000000000000000000815260040160405180910390fd5b600080349050600360003373ffffffffffffffffffffffffffffffffffffffff1673ffffffffffffffffffffffffffffffffffffffff16815260200190815260200160002060009054906101000a900460ff16611b56576127106101f434611b3b9190612ab2565b611b459190612b23565b91508134611b539190612b54565b90505b6000600460003373ffffffffffffffffffffffffffffffffffffffff1673ffffffffffffffffffffffffffffffffffffffff1681526020019081526020016000206000815480929190611ba890612b88565b91905055905060003334428430604051602001611bc9959493929190612e6d565b6040516020818303038152906040528051906020012090506040518060a001604052803373ffffffffffffffffffffffffffffffffffffffff16815260200134815260200184815260200142815260200160006002811115611c2e57611c2d6126b8565b5b8152506005600083815260200190815260200160002060008201518160000160006101000a81548173ffffffffffffffffffffffffffffffffffffffff021916908373ffffffffffffffffffffffffffffffffffffffff16021790555060208201518160010155604082015181600201556060820151816003015560808201518160040160006101000a81548160ff02191690836002811115611cd457611cd36126b8565b5b02179055509050503373ffffffffffffffffffffffffffffffffffffffff167f719ab00511e884d1ea4921ee843132435dc006b0bb7f8b67fb693b621e45bb5334858442604051611d289493929190612edb565b60405180910390a250505050611d3c61201b565b565b611d46611dc4565b600073ffffffffffffffffffffffffffffffffffffffff168173ffffffffffffffffffffffffffffffffffffffff1603611db85760006040517f1e4fbdf7000000000000000000000000000000000000000000000000000000008152600401611daf91906127c1565b60405180910390fd5b611dc181611f11565b50565b611dcc6120c7565b73ffffffffffffffffffffffffffffffffffffffff16611dea61129e565b73ffffffffffffffffffffffffffffffffffffffff1614611e4957611e0d6120c7565b6040517f118cdaa7000000000000000000000000000000000000000000000000000000008152600401611e4091906127c1565b60405180910390fd5b565b611e536120cf565b6000600260006101000a81548160ff0219169083151502179055507f5db9ee0a495bf2e6ff9c91a7834c1ba4fdd244a5e8aa4e537bd38aeae4b073aa611e976120c7565b604051611ea491906127c1565b60405180910390a1565b611eb6612024565b6001600260006101000a81548160ff0219169083151502179055507f62e78cea01bee320cd4e420270b5ea74000d11b0c9f74754ebdbfc544b05a258611efa6120c7565b604051611f0791906127c1565b60405180910390a1565b60008060009054906101000a900473ffffffffffffffffffffffffffffffffffffffff169050816000806101000a81548173ffffffffffffffffffffffffffffffffffffffff021916908373ffffffffffffffffffffffffffffffffffffffff1602179055508173ffffffffffffffffffffffffffffffffffffffff168173ffffffffffffffffffffffffffffffffffffffff167f8be0079c531659141344cd1fd0a4f28419497f9722a3daafe3b4186f6b6457e060405160405180910390a35050565b600260015403612011576040517f3ee5aeb500000000000000000000000000000000000000000000000000000000815260040160405180910390fd5b6002600181905550565b60018081905550565b61202c610ddd565b15612063576040517fd93c066500000000000000000000000000000000000000000000000000000000815260040160405180910390fd5b565b60007f19457468657265756d205369676e6564204d6573736167653a0a33320000000060005281601c52603c6000209050919050565b6000806000806120ab868661210f565b9250925092506120bb828261216b565b82935050505092915050565b600033905090565b6120d7610ddd565b61210d576040517f8dfc202b00000000000000000000000000000000000000000000000000000000815260040160405180910390fd5b565b600080600060418451036121545760008060006020870151925060408701519150606087015160001a9050612146888285856122cf565b955095509550505050612164565b60006002855160001b9250925092505b9250925092565b6000600381111561217f5761217e6126b8565b5b826003811115612192576121916126b8565b5b03156122cb57600160038111156121ac576121ab6126b8565b5b8260038111156121bf576121be6126b8565b5b036121f6576040517ff645eedf00000000000000000000000000000000000000000000000000000000815260040160405180910390fd5b6002600381111561220a576122096126b8565b5b82600381111561221d5761221c6126b8565b5b03612262578060001c6040517ffce698f7000000000000000000000000000000000000000000000000000000008152600401612259919061261c565b60405180910390fd5b600380811115612275576122746126b8565b5b826003811115612288576122876126b8565b5b036122ca57806040517fd78bce0c0000000000000000000000000000000000000000000000000000000081526004016122c19190612f20565b60405180910390fd5b5b5050565b60008060007f7fffffffffffffffffffffffffffffff5d576e7357a4501ddfe92f46681b20a08460001c111561230f5760006003859250925092506123b9565b6000600188888888604051600081526020016040526040516123349493929190612f57565b6020604051602081039080840390855afa158015612356573d6000803e3d6000fd5b505050602060405103519050600073ffffffffffffffffffffffffffffffffffffffff168173ffffffffffffffffffffffffffffffffffffffff16036123aa57600060016000801b935093509350506123b9565b8060008060001b935093509350505b9450945094915050565b6040518060a00160405280600073ffffffffffffffffffffffffffffffffffffffff16815260200160008152602001600081526020016000815260200160006002811115612414576124136126b8565b5b81525090565b600080fd5b600080fd5b600073ffffffffffffffffffffffffffffffffffffffff82169050919050565b600061244f82612424565b9050919050565b61245f81612444565b811461246a57600080fd5b50565b60008135905061247c81612456565b92915050565b60008115159050919050565b61249781612482565b81146124a257600080fd5b50565b6000813590506124b48161248e565b92915050565b600080604083850312156124d1576124d061241a565b5b60006124df8582860161246d565b92505060206124f0858286016124a5565b9150509250929050565b6000602082840312156125105761250f61241a565b5b600061251e8482850161246d565b91505092915050565b61253081612482565b82525050565b600060208201905061254b6000830184612527565b92915050565b600081519050919050565b600082825260208201905092915050565b60005b8381101561258b578082015181840152602081019050612570565b60008484015250505050565b6000601f19601f8301169050919050565b60006125b382612551565b6125bd818561255c565b93506125cd81856020860161256d565b6125d681612597565b840191505092915050565b600060208201905081810360008301526125fb81846125a8565b905092915050565b6000819050919050565b61261681612603565b82525050565b6000602082019050612631600083018461260d565b92915050565b6000819050919050565b61264a81612637565b811461265557600080fd5b50565b60008135905061266781612641565b92915050565b6000602082840312156126835761268261241a565b5b600061269184828501612658565b91505092915050565b6126a381612444565b82525050565b6126b281612603565b82525050565b7f4e487b7100000000000000000000000000000000000000000000000000000000600052602160045260246000fd5b600381106126f8576126f76126b8565b5b50565b6000819050612709826126e7565b919050565b6000612719826126fb565b9050919050565b6127298161270e565b82525050565b60a082016000820151612745600085018261269a565b50602082015161275860208501826126a9565b50604082015161276b60408501826126a9565b50606082015161277e60608501826126a9565b5060808201516127916080850182612720565b50505050565b600060a0820190506127ac600083018461272f565b92915050565b6127bb81612444565b82525050565b60006020820190506127d660008301846127b2565b92915050565b6127e58161270e565b82525050565b600060a08201905061280060008301886127b2565b61280d602083018761260d565b61281a604083018661260d565b612827606083018561260d565b61283460808301846127dc565b9695505050505050565b61284781612603565b811461285257600080fd5b50565b6000813590506128648161283e565b92915050565b600080604083850312156128815761288061241a565b5b600061288f85828601612855565b92505060206128a08582860161246d565b9150509250929050565b60006040820190506128bf600083018561260d565b6128cc602083018461260d565b9392505050565b600080fd5b600080fd5b600080fd5b60008083601f8401126128f8576128f76128d3565b5b8235905067ffffffffffffffff811115612915576129146128d8565b5b602083019150836020820283011115612931576129306128dd565b5b9250929050565b60008083601f84011261294e5761294d6128d3565b5b8235905067ffffffffffffffff81111561296b5761296a6128d8565b5b602083019150836020820283011115612987576129866128dd565b5b9250929050565b6000806000806000606086880312156129aa576129a961241a565b5b60006129b888828901612658565b955050602086013567ffffffffffffffff8111156129d9576129d861241f565b5b6129e5888289016128e2565b9450945050604086013567ffffffffffffffff811115612a0857612a0761241f565b5b612a1488828901612938565b92509250509295509295909350565b7f4e487b7100000000000000000000000000000000000000000000000000000000600052602260045260246000fd5b60006002820490506001821680612a6a57607f821691505b602082108103612a7d57612a7c612a23565b5b50919050565b7f4e487b7100000000000000000000000000000000000000000000000000000000600052601160045260246000fd5b6000612abd82612603565b9150612ac883612603565b9250828202612ad681612603565b91508282048414831517612aed57612aec612a83565b5b5092915050565b7f4e487b7100000000000000000000000000000000000000000000000000000000600052601260045260246000fd5b6000612b2e82612603565b9150612b3983612603565b925082612b4957612b48612af4565b5b828204905092915050565b6000612b5f82612603565b9150612b6a83612603565b9250828203905081811115612b8257612b81612a83565b5b92915050565b6000612b9382612603565b91507fffffffffffffffffffffffffffffffffffffffffffffffffffffffffffffffff8203612bc557612bc4612a83565b5b600182019050919050565b6000612bdb82612603565b915060008203612bee57612bed612a83565b5b600182039050919050565b6000612c0482612603565b9150612c0f83612603565b9250828201905080821115612c2757612c26612a83565b5b92915050565b600081905092915050565b50565b6000612c48600083612c2d565b9150612c5382612c38565b600082019050919050565b6000612c6982612c3b565b9150819050919050565b6000604082019050612c8860008301856127b2565b612c95602083018461260d565b9392505050565b6000819050919050565b612cb7612cb282612637565b612c9c565b82525050565b60008160601b9050919050565b6000612cd582612cbd565b9050919050565b6000612ce782612cca565b9050919050565b612cff612cfa82612444565b612cdc565b82525050565b6000819050919050565b612d20612d1b82612603565b612d05565b82525050565b6000612d328287612ca6565b602082019150612d428286612cee565b601482019150612d528285612d0f565b602082019150612d628284612cee565b60148201915081905095945050505050565b7f4e487b7100000000000000000000000000000000000000000000000000000000600052604160045260246000fd5b7f4e487b7100000000000000000000000000000000000000000000000000000000600052603260045260246000fd5b600080fd5b600080fd5b600080fd5b60008083356001602003843603038112612dfe57612dfd612dd2565b5b80840192508235915067ffffffffffffffff821115612e2057612e1f612dd7565b5b602083019250600182023603831315612e3c57612e3b612ddc565b5b509250929050565b6000604082019050612e5960008301856127b2565b612e6660208301846127b2565b9392505050565b6000612e798288612cee565b601482019150612e898287612d0f565b602082019150612e998286612d0f565b602082019150612ea98285612d0f565b602082019150612eb98284612cee565b6014820191508190509695505050505050565b612ed581612637565b82525050565b6000608082019050612ef0600083018761260d565b612efd602083018661260d565b612f0a6040830185612ecc565b612f17606083018461260d565b95945050505050565b6000602082019050612f356000830184612ecc565b92915050565b600060ff82169050919050565b612f5181612f3b565b82525050565b6000608082019050612f6c6000830187612ecc565b612f796020830186612f48565b612f866040830185612ecc565b612f936060830184612ecc565b9594505050505056fea2646970667358221220b0dcb0246be62cd909ec4fbf9d4ad8771ddc93337754f096cdef0dc693e89b3664736f6c63430008160033",
  "linkReferences": {},
  "deployedLinkReferences": {}
}