{
  "_format": "hh-sol-artifact-1",
  "contractName": "SuperBridgeL2",
  "sourceName": "contracts/SuperBridgeL2.sol",
  "abi": [
    {
      "inputs": [],
      "stateMutability": "nonpayable",
      "type": "constructor"
    },
    {
      "inputs": [
        {
          "internalType": "address",
          "name": "target",
          "type": "address"
        }
      ],
      "name": "AddressEmptyCode",
      "type": "error"
    },
    {
      "inputs": [],
      "name": "AlreadyFinalized",
      "type": "error"
    },
    {
      "inputs": [],
      "name": "DuplicateSigner",
      "type": "error"
    },
    {
      "inputs": [],
      "name": "ECDSAInvalidSignature",
      "type": "error"
    },
    {
      "inputs": [
        {
          "internalType": "uint256",
          "name": "length",
          "type": "uint256"
        }
      ],
      "name": "ECDSAInvalidSignatureLength",
      "type": "error"
    },
    {
      "inputs": [
        {
          "internalType": "bytes32",
          "name": "s",
          "type": "bytes32"
        }
      ],
      "name": "ECDSAInvalidSignatureS",
      "type": "error"
    },
    {
      "inputs": [
        {
          "internalType": "address",
          "name": "implementation",
          "type": "address"
        }
      ],
      "name": "ERC1967InvalidImplementation",
      "type": "error"
    },
    {
      "inputs": [],
      "name": "ERC1967NonPayable",
      "type": "error"
    },
    {
      "inputs": [],
      "name": "EnforcedPause",
      "type": "error"
    },
    {
      "inputs": [],
      "name": "ExpectedPause",
      "type": "error"
    },
    {
      "inputs": [],
      "name": "FailedCall",
      "type": "error"
    },
    {
      "inputs": [],
      "name": "ForwardFailed",
      "type": "error"
    },
    {
      "inputs": [],
      "name": "InvalidAmount",
      "type": "error"
    },
    {
      "inputs": [],
      "name": "InvalidInitialization",
      "type": "error"
    },
    {
      "inputs": [],
      "name": "InvalidSigner",
      "type": "error"
    },
    {
      "inputs": [],
      "name": "InvalidTimelock",
      "type": "error"
    },
    {
      "inputs": [],
      "name": "InvalidTransferId",
      "type": "error"
    },
    {
      "inputs": [],
      "name": "NotAuthorized",
      "type": "error"
    },
    {
      "inputs": [],
      "name": "NotAuthorizedSigner",
      "type": "error"
    },
    {
      "inputs": [],
      "name": "NotEnoughSignatures",
      "type": "error"
    },
    {
      "inputs": [],
      "name": "NotInitializing",
      "type": "error"
    },
    {
      "inputs": [],
      "name": "NotRefundable",
      "type": "error"
    },
    {
      "inputs": [],
      "name": "NotYourTransfer",
      "type": "error"
    },
    {
      "inputs": [
        {
          "internalType": "address",
          "name": "owner",
          "type": "address"
        }
      ],
      "name": "OwnableInvalidOwner",
      "type": "error"
    },
    {
      "inputs": [
        {
          "internalType": "address",
          "name": "account",
          "type": "address"
        }
      ],
      "name": "OwnableUnauthorizedAccount",
      "type": "error"
    },
    {
      "inputs": [],
      "name": "ReentrancyGuardReentrantCall",
      "type": "error"
    },
    {
      "inputs": [],
      "name": "RefundFailed",
      "type": "error"
    },
    {
      "inputs": [],
      "name": "RefundNotAvailable",
      "type": "error"
    },
    {
      "inputs": [],
      "name": "UUPSUnauthorizedCallContext",
      "type": "error"
    },
    {
      "inputs": [
        {
          "internalType": "bytes32",
          "name": "slot",
          "type": "bytes32"
        }
      ],
      "name": "UUPSUnsupportedProxiableUUID",
      "type": "error"
    },
    {
      "inputs": [],
      "name": "UpgradeNotReady",
      "type": "error"
    },
    {
      "inputs": [],
      "name": "UpgradeNotScheduled",
      "type": "error"
    },
    {
      "anonymous": false,
      "inputs": [
        {
          "indexed": true,
          "internalType": "bytes32",
          "name": "transferId",
          "type": "bytes32"
        },
        {
          "indexed": false,
          "internalType": "address",
          "name": "user",
          "type": "address"
        },
        {
          "indexed": false,
          "internalType": "uint256",
          "name": "bridgedAmount",
          "type": "uint256"
        }
      ],
      "name": "BridgeCompleted",
      "type": "event"
    },
    {
      "anonymous": false,
      "inputs": [
        {
          "indexed": true,
          "internalType": "address",
          "name": "user",
          "type": "address"
        },
        {
          "indexed": false,
          "internalType": "uint256",
          "name": "originalAmount",
          "type": "uint256"
        },
        {
          "indexed": false,
          "internalType": "uint256",
          "name": "bridgedAmount",
          "type": "uint256"
        },
        {
          "indexed": false,
          "internalType": "bytes32",
          "name": "transferId",
          "type": "bytes32"
        },
        {
          "indexed": false,
          "internalType": "uint256",
          "name": "timestamp",
          "type": "uint256"
        }
      ],
      "name": "BridgeInitiated",
      "type": "event"
    },
    {
      "anonymous": false,
      "inputs": [
        {
          "indexed": true,
          "internalType": "address",
          "name": "user",
          "type": "address"
        },
        {
          "indexed": false,
          "internalType": "bool",
          "name": "exempt",
          "type": "bool"
        }
      ],
      "name": "FeeExemptUpdated",
      "type": "event"
    },
    {
      "anonymous": false,
      "inputs": [
        {
          "indexed": false,
          "internalType": "address",
          "name": "oldRecipient",
          "type": "address"
        },
        {
          "indexed": false,
          "internalType": "address",
          "name": "newRecipient",
          "type": "address"
        }
      ],
      "name": "FeeRecipientUpdated",
      "type": "event"
    },
    {
      "anonymous": false,
      "inputs": [
        {
          "indexed": false,
          "internalType": "uint64",
          "name": "version",
          "type": "uint64"
        }
      ],
      "name": "Initialized",
      "type": "event"
    },
    {
      "anonymous": false,
      "inputs": [
        {
          "indexed": true,
          "internalType": "address",
          "name": "previousOwner",
          "type": "address"
        },
        {
          "indexed": true,
          "internalType": "address",
          "name": "newOwner",
          "type": "address"
        }
      ],
      "name": "OwnershipTransferred",
      "type": "event"
    },
    {
      "anonymous": false,
      "inputs": [
        {
          "indexed": false,
          "internalType": "address",
          "name": "account",
          "type": "address"
        }
      ],
      "name": "Paused",
      "type": "event"
    },
    {
      "anonymous": false,
      "inputs": [
        {
          "indexed": true,
          "internalType": "bytes32",
          "name": "transferId",
          "type": "bytes32"
        },
        {
          "indexed": false,
          "internalType": "address",
          "name": "user",
          "type": "address"
        },
        {
          "indexed": false,
          "internalType": "uint256",
          "name": "amount",
          "type": "uint256"
        }
      ],
      "name": "Refunded",
      "type": "event"
    },
    {
      "anonymous": false,
      "inputs": [
        {
          "indexed": false,
          "internalType": "uint256",
          "name": "oldTimelock",
          "type": "uint256"
        },
        {
          "indexed": false,
          "internalType": "uint256",
          "name": "newTimelock",
          "type": "uint256"
        }
      ],
      "name": "TimelockUpdated",
      "type": "event"
    },
    {
      "anonymous": false,
      "inputs": [
        {
          "indexed": false,
          "internalType": "address",
          "name": "account",
          "type": "address"
        }
      ],
      "name": "Unpaused",
      "type": "event"
    },
    {
      "anonymous": false,
      "inputs": [
        {
          "indexed": true,
          "internalType": "bytes32",
          "name": "upgradeHash",
          "type": "bytes32"
        },
        {
          "indexed": false,
          "internalType": "address",
          "name": "newImplementation",
          "type": "address"
        }
      ],
      "name": "UpgradeExecuted",
      "type": "event"
    },
    {
      "anonymous": false,
      "inputs": [
        {
          "indexed": true,
          "internalType": "bytes32",
          "name": "upgradeHash",
          "type": "bytes32"
        },
        {
          "indexed": false,
          "internalType": "address",
          "name": "newImplementation",
          "type": "address"
        },
        {
          "indexed": false,
          "internalType": "uint256",
          "name": "executeTime",
          "type": "uint256"
        }
      ],
      "name": "UpgradeScheduled",
      "type": "event"
    },
    {
      "anonymous": false,
      "inputs": [
        {
          "indexed": true,
          "internalType": "address",
          "name": "implementation",
          "type": "address"
        }
      ],
      "name": "Upgraded",
      "type": "event"
    },
    {
      "anonymous": false,
      "inputs": [
        {
          "indexed": true,
          "internalType": "address",
          "name": "validator",
          "type": "address"
        },
        {
          "indexed": false,
          "internalType": "bool",
          "name": "isValid",
          "type": "bool"
        }
      ],
      "name": "ValidatorUpdated",
      "type": "event"
    },
    {
      "inputs": [],
      "name": "BPS_DENOMINATOR",
      "outputs": [
        {
          "internalType": "uint256",
          "name": "",
          "type": "uint256"
        }
      ],
      "stateMutability": "view",
      "type": "function"
    },
    {
      "inputs": [],
      "name": "FEE_BPS",
      "outputs": [
        {
          "internalType": "uint256",
          "name": "",
          "type": "uint256"
        }
      ],
      "stateMutability": "view",
      "type": "function"
    },
    {
      "inputs": [],
      "name": "MIN_SIGNATURES",
      "outputs": [
        {
          "internalType": "uint256",
          "name": "",
          "type": "uint256"
        }
      ],
      "stateMutability": "view",
      "type": "function"
    },
    {
      "inputs": [],
      "name": "REFUND_TIMEOUT",
      "outputs": [
        {
          "internalType": "uint256",
          "name": "",
          "type": "uint256"
        }
      ],
      "stateMutability": "view",
      "type": "function"
    },
    {
      "inputs": [],
      "name": "UPGRADE_INTERFACE_VERSION",
      "outputs": [
        {
          "internalType": "string",
          "name": "",
          "type": "string"
        }
      ],
      "stateMutability": "view",
      "type": "function"
    },
    {
      "inputs": [],
      "name": "bridge",
      "outputs": [],
      "stateMutability": "payable",
      "type": "function"
    },
    {
      "inputs": [
        {
          "internalType": "uint256",
          "name": "amount",
          "type": "uint256"
        },
        {
          "internalType": "address",
          "name": "user",
          "type": "address"
        }
      ],
      "name": "calculateFee",
      "outputs": [
        {
          "internalType": "uint256",
          "name": "fee",
          "type": "uint256"
        },
        {
          "internalType": "uint256",
          "name": "bridged",
          "type": "uint256"
        }
      ],
      "stateMutability": "view",
      "type": "function"
    },
    {
      "inputs": [
        {
          "internalType": "bytes32",
          "name": "transferId",
          "type": "bytes32"
        }
      ],
      "name": "canRefund",
      "outputs": [
        {
          "internalType": "bool",
          "name": "",
          "type": "bool"
        }
      ],
      "stateMutability": "view",
      "type": "function"
    },
    {
      "inputs": [
        {
          "internalType": "bytes32",
          "name": "transferId",
          "type": "bytes32"
        },
        {
          "internalType": "bytes[]",
          "name": "signatures",
          "type": "bytes[]"
        },
        {
          "internalType": "address[]",
          "name": "signers",
          "type": "address[]"
        }
      ],
      "name": "complete",
      "outputs": [],
      "stateMutability": "nonpayable",
      "type": "function"
    },
    {
      "inputs": [
        {
          "internalType": "address",
          "name": "",
          "type": "address"
        }
      ],
      "name": "emergencyOperators",
      "outputs": [
        {
          "internalType": "bool",
          "name": "",
          "type": "bool"
        }
      ],
      "stateMutability": "view",
      "type": "function"
    },
    {
      "inputs": [],
      "name": "emergencyPause",
      "outputs": [],
      "stateMutability": "nonpayable",
      "type": "function"
    },
    {
      "inputs": [],
      "name": "emergencyWithdrawDelay",
      "outputs": [
        {
          "internalType": "uint256",
          "name": "",
          "type": "uint256"
        }
      ],
      "stateMutability": "view",
      "type": "function"
    },
    {
      "inputs": [],
      "name": "emergencyWithdrawTime",
      "outputs": [
        {
          "internalType": "uint256",
          "name": "",
          "type": "uint256"
        }
      ],
      "stateMutability": "view",
      "type": "function"
    },
    {
      "inputs": [
        {
          "internalType": "address",
          "name": "newImplementation",
          "type": "address"
        },
        {
          "internalType": "uint256",
          "name": "scheduleTime",
          "type": "uint256"
        }
      ],
      "name": "executeUpgrade",
      "outputs": [],
      "stateMutability": "nonpayable",
      "type": "function"
    },
    {
      "inputs": [],
      "name": "feeRecipient",
      "outputs": [
        {
          "internalType": "address",
          "name": "",
          "type": "address"
        }
      ],
      "stateMutability": "view",
      "type": "function"
    },
    {
      "inputs": [
        {
          "internalType": "bytes32",
          "name": "transferId",
          "type": "bytes32"
        }
      ],
      "name": "getRefundTime",
      "outputs": [
        {
          "internalType": "uint256",
          "name": "",
          "type": "uint256"
        }
      ],
      "stateMutability": "view",
      "type": "function"
    },
    {
      "inputs": [
        {
          "internalType": "bytes32",
          "name": "transferId",
          "type": "bytes32"
        }
      ],
      "name": "getTransfer",
      "outputs": [
        {
          "components": [
            {
              "internalType": "address",
              "name": "user",
              "type": "address"
            },
            {
              "internalType": "uint256",
              "name": "originalAmount",
              "type": "uint256"
            },
            {
              "internalType": "uint256",
              "name": "bridgedAmount",
              "type": "uint256"
            },
            {
              "internalType": "uint256",
              "name": "timestamp",
              "type": "uint256"
            },
            {
              "internalType": "enum SuperBridgeL2.Status",
              "name": "status",
              "type": "uint8"
            }
          ],
          "internalType": "struct SuperBridgeL2.Transfer",
          "name": "",
          "type": "tuple"
        }
      ],
      "stateMutability": "view",
      "type": "function"
    },
    {
      "inputs": [],
      "name": "getVersion",
      "outputs": [
        {
          "internalType": "string",
          "name": "",
          "type": "string"
        }
      ],
      "stateMutability": "view",
      "type": "function"
    },
    {
      "inputs": [
        {
          "internalType": "address",
          "name": "_feeRecipient",
          "type": "address"
        },
        {
          "internalType": "uint256",
          "name": "_upgradeTimelock",
          "type": "uint256"
        }
      ],
      "name": "initialize",
      "outputs": [],
      "stateMutability": "nonpayable",
      "type": "function"
    },
    {
      "inputs": [
        {
          "internalType": "address",
          "name": "",
          "type": "address"
        }
      ],
      "name": "isFeeExempt",
      "outputs": [
        {
          "internalType": "bool",
          "name": "",
          "type": "bool"
        }
      ],
      "stateMutability": "view",
      "type": "function"
    },
    {
      "inputs": [
        {
          "internalType": "address",
          "name": "implementation",
          "type": "address"
        },
        {
          "internalType": "uint256",
          "name": "scheduleTime",
          "type": "uint256"
        }
      ],
      "name": "isUpgradeReady",
      "outputs": [
        {
          "internalType": "bool",
          "name": "",
          "type": "bool"
        }
      ],
      "stateMutability": "view",
      "type": "function"
    },
    {
      "inputs": [
        {
          "internalType": "address",
          "name": "",
          "type": "address"
        }
      ],
      "name": "isValidSigner",
      "outputs": [
        {
          "internalType": "bool",
          "name": "",
          "type": "bool"
        }
      ],
      "stateMutability": "view",
      "type": "function"
    },
    {
      "inputs": [],
      "name": "numSigners",
      "outputs": [
        {
          "internalType": "uint256",
          "name": "",
          "type": "uint256"
        }
      ],
      "stateMutability": "view",
      "type": "function"
    },
    {
      "inputs": [],
      "name": "owner",
      "outputs": [
        {
          "internalType": "address",
          "name": "",
          "type": "address"
        }
      ],
      "stateMutability": "view",
      "type": "function"
    },
    {
      "inputs": [],
      "name": "paused",
      "outputs": [
        {
          "internalType": "bool",
          "name": "",
          "type": "bool"
        }
      ],
      "stateMutability": "view",
      "type": "function"
    },
    {
      "inputs": [
        {
          "internalType": "bytes32",
          "name": "",
          "type": "bytes32"
        }
      ],
      "name": "pendingUpgrades",
      "outputs": [
        {
          "internalType": "uint256",
          "name": "",
          "type": "uint256"
        }
      ],
      "stateMutability": "view",
      "type": "function"
    },
    {
      "inputs": [],
      "name": "proxiableUUID",
      "outputs": [
        {
          "internalType": "bytes32",
          "name": "",
          "type": "bytes32"
        }
      ],
      "stateMutability": "view",
      "type": "function"
    },
    {
      "inputs": [
        {
          "internalType": "bytes32",
          "name": "transferId",
          "type": "bytes32"
        }
      ],
      "name": "refund",
      "outputs": [],
      "stateMutability": "nonpayable",
      "type": "function"
    },
    {
      "inputs": [],
      "name": "renounceOwnership",
      "outputs": [],
      "stateMutability": "nonpayable",
      "type": "function"
    },
    {
      "inputs": [
        {
          "internalType": "address",
          "name": "newImplementation",
          "type": "address"
        }
      ],
      "name": "scheduleUpgrade",
      "outputs": [],
      "stateMutability": "nonpayable",
      "type": "function"
    },
    {
      "inputs": [
        {
          "internalType": "address",
          "name": "operator",
          "type": "address"
        },
        {
          "internalType": "bool",
          "name": "status",
          "type": "bool"
        }
      ],
      "name": "setEmergencyOperator",
      "outputs": [],
      "stateMutability": "nonpayable",
      "type": "function"
    },
    {
      "inputs": [
        {
          "internalType": "address",
          "name": "user",
          "type": "address"
        },
        {
          "internalType": "bool",
          "name": "exempt",
          "type": "bool"
        }
      ],
      "name": "setFeeExempt",
      "outputs": [],
      "stateMutability": "nonpayable",
      "type": "function"
    },
    {
      "inputs": [
        {
          "internalType": "address",
          "name": "_feeRecipient",
          "type": "address"
        }
      ],
      "name": "setFeeRecipient",
      "outputs": [],
      "stateMutability": "nonpayable",
      "type": "function"
    },
    {
      "inputs": [
        {
          "internalType": "address",
          "name": "validator",
          "type": "address"
        },
        {
          "internalType": "bool",
          "name": "isValid",
          "type": "bool"
        }
      ],
      "name": "setValidator",
      "outputs": [],
      "stateMutability": "nonpayable",
      "type": "function"
    },
    {
      "inputs": [
        {
          "internalType": "address",
          "name": "newOwner",
          "type": "address"
        }
      ],
      "name": "transferOwnership",
      "outputs": [],
      "stateMutability": "nonpayable",
      "type": "function"
    },
    {
      "inputs": [
        {
          "internalType": "bytes32",
          "name": "",
          "type": "bytes32"
        }
      ],
      "name": "transfers",
      "outputs": [
        {
          "internalType": "address",
          "name": "user",
          "type": "address"
        },
        {
          "internalType": "uint256",
          "name": "originalAmount",
          "type": "uint256"
        },
        {
          "internalType": "uint256",
          "name": "bridgedAmount",
          "type": "uint256"
        },
        {
          "internalType": "uint256",
          "name": "timestamp",
          "type": "uint256"
        },
        {
          "internalType": "enum SuperBridgeL2.Status",
          "name": "status",
          "type": "uint8"
        }
      ],
      "stateMutability": "view",
      "type": "function"
    },
    {
      "inputs": [],
      "name": "unpause",
      "outputs": [],
      "stateMutability": "nonpayable",
      "type": "function"
    },
    {
      "inputs": [
        {
          "internalType": "uint256",
          "name": "newTimelock",
          "type": "uint256"
        }
      ],
      "name": "updateTimelock",
      "outputs": [],
      "stateMutability": "nonpayable",
      "type": "function"
    },
    {
      "inputs": [],
      "name": "upgradeTimelock",
      "outputs": [
        {
          "internalType": "uint256",
          "name": "",
          "type": "uint256"
        }
      ],
      "stateMutability": "view",
      "type": "function"
    },
    {
      "inputs": [
        {
          "internalType": "address",
          "name": "newImplementation",
          "type": "address"
        },
        {
          "internalType": "bytes",
          "name": "data",
          "type": "bytes"
        }
      ],
      "name": "upgradeToAndCall",
      "outputs": [],
      "stateMutability": "payable",
      "type": "function"
    },
    {
      "inputs": [
        {
          "internalType": "address",
          "name": "",
          "type": "address"
        }
      ],
      "name": "userNonces",
      "outputs": [
        {
          "internalType": "uint256",
          "name": "",
          "type": "uint256"
        }
      ],
      "stateMutability": "view",
      "type": "function"
    },
    {
      "inputs": [],
      "name": "version",
      "outputs": [
        {
          "internalType": "string",
          "name": "",
          "type": "string"
        }
      ],
      "stateMutability": "view",
      "type": "function"
    }
  ],
  "bytecode": "0x60a06040523073ffffffffffffffffffffffffffffffffffffffff1660809073ffffffffffffffffffffffffffffffffffffffff168152503480156200004457600080fd5b50620000556200005b60201b60201c565b620001ee565b60006200006d6200016560201b60201c565b90508060000160089054906101000a900460ff1615620000b9576040517ff92ee8a900000000000000000000000000000000000000000000000000000000815260040160405180910390fd5b67ffffffffffffffff80168160000160009054906101000a900467ffffffffffffffff1667ffffffffffffffff1614620001625767ffffffffffffffff8160000160006101000a81548167ffffffffffffffff021916908367ffffffffffffffff1602179055507fc7f505b2f371ae2175ee4913f4499e1f2633a7b5936321eed1cdaeb6115181d267ffffffffffffffff604051620001599190620001d1565b60405180910390a15b50565b600080620001786200018160201b60201c565b90508091505090565b60007ff0c57e16840df040f15088dc2f81fe391c3923bec73e23a9662efc9c229c6a0060001b905090565b600067ffffffffffffffff82169050919050565b620001cb81620001ac565b82525050565b6000602082019050620001e86000830184620001c0565b92915050565b60805161464762000218600039600081816127a1015281816127f60152612a2301526146476000f3fe6080604052600436106102515760003560e01c8063715018a611610139578063bf333f2c116100b6578063de9b94881161007a578063de9b9488146108d2578063e1a45218146108fd578063e74b981b14610928578063e78cea9214610951578063f2fde38b1461095b578063fa1ccffd1461098457610251565b8063bf333f2c146107db578063ca9e445314610806578063cd6dc6871461082f578063d5f5058214610858578063d8c171141461089557610251565b80638c879fb9116100fd5780638c879fb9146106f45780638c8c20031461071f5780638da5cb5b1461075c5780638ebfc79614610787578063ad3cb1cc146107b057610251565b8063715018a61461062157806372070b81146106385780637249fbb6146106635780637d57900a1461068c578063838fb7f1146106b757610251565b80633e718e83116101d2578063469048401161019657806346904840146105425780634f1ef2861461056d57806351858e271461058957806352d1902d146105a057806354fd4d50146105cb5780635c975abb146105f657610251565b80633e718e831461045e5780633f4218e0146104875780633f4ba83a146104c4578063400ba069146104db5780634623c91d1461051957610251565b806312679fed1161021957806312679fed1461034d5780631a17969214610378578063260958a5146103a35780632f7801f4146103e05780633c64f04b1461041d57610251565b806302e888991461025657806305acedf51461027f57806309705de8146102bc5780630c80447a146102f95780630d8e6e2c14610322575b600080fd5b34801561026257600080fd5b5061027d600480360381019061027891906135bc565b6109ad565b005b34801561028b57600080fd5b506102a660048036038101906102a19190613632565b610a10565b6040516102b39190613681565b60405180910390f35b3480156102c857600080fd5b506102e360048036038101906102de919061369c565b610a71565b6040516102f09190613681565b60405180910390f35b34801561030557600080fd5b50610320600480360381019061031b919061369c565b610a91565b005b34801561032e57600080fd5b50610337610b2f565b6040516103449190613759565b60405180910390f35b34801561035957600080fd5b50610362610bc1565b60405161036f919061378a565b60405180910390f35b34801561038457600080fd5b5061038d610bc7565b60405161039a919061378a565b60405180910390f35b3480156103af57600080fd5b506103ca60048036038101906103c591906137db565b610bcc565b6040516103d79190613905565b60405180910390f35b3480156103ec57600080fd5b506104076004803603810190610402919061369c565b610ca8565b604051610414919061378a565b60405180910390f35b34801561042957600080fd5b50610444600480360381019061043f91906137db565b610cc0565b60405161045595949392919061393e565b60405180910390f35b34801561046a57600080fd5b5061048560048036038101906104809190613632565b610d23565b005b34801561049357600080fd5b506104ae60048036038101906104a9919061369c565b610e39565b6040516104bb9190613681565b60405180910390f35b3480156104d057600080fd5b506104d9610e59565b005b3480156104e757600080fd5b5061050260048036038101906104fd9190613991565b610e6b565b6040516105109291906139d1565b60405180910390f35b34801561052557600080fd5b50610540600480360381019061053b91906135bc565b610eff565b005b34801561054e57600080fd5b5061055761109f565b60405161056491906139fa565b60405180910390f35b61058760048036038101906105829190613b4a565b6110c3565b005b34801561059557600080fd5b5061059e6110e2565b005b3480156105ac57600080fd5b506105b561116f565b6040516105c29190613bb5565b60405180910390f35b3480156105d757600080fd5b506105e06111a2565b6040516105ed9190613759565b60405180910390f35b34801561060257600080fd5b5061060b611230565b6040516106189190613681565b60405180910390f35b34801561062d57600080fd5b50610636611255565b005b34801561064457600080fd5b5061064d611269565b60405161065a919061378a565b60405180910390f35b34801561066f57600080fd5b5061068a600480360381019061068591906137db565b61126f565b005b34801561069857600080fd5b506106a16114f1565b6040516106ae919061378a565b60405180910390f35b3480156106c357600080fd5b506106de60048036038101906106d991906137db565b6114f7565b6040516106eb919061378a565b60405180910390f35b34801561070057600080fd5b506107096115e3565b604051610716919061378a565b60405180910390f35b34801561072b57600080fd5b50610746600480360381019061074191906137db565b6115e9565b6040516107539190613681565b60405180910390f35b34801561076857600080fd5b5061077161170b565b60405161077e91906139fa565b60405180910390f35b34801561079357600080fd5b506107ae60048036038101906107a991906135bc565b611743565b005b3480156107bc57600080fd5b506107c56117f4565b6040516107d29190613759565b60405180910390f35b3480156107e757600080fd5b506107f061182d565b6040516107fd919061378a565b60405180910390f35b34801561081257600080fd5b5061082d60048036038101906108289190613c86565b611833565b005b34801561083b57600080fd5b5061085660048036038101906108519190613632565b611e78565b005b34801561086457600080fd5b5061087f600480360381019061087a919061369c565b6121ed565b60405161088c9190613681565b60405180910390f35b3480156108a157600080fd5b506108bc60048036038101906108b791906137db565b61220d565b6040516108c9919061378a565b60405180910390f35b3480156108de57600080fd5b506108e7612225565b6040516108f4919061378a565b60405180910390f35b34801561090957600080fd5b5061091261222b565b60405161091f919061378a565b60405180910390f35b34801561093457600080fd5b5061094f600480360381019061094a919061369c565b612231565b005b6109596122dc565b005b34801561096757600080fd5b50610982600480360381019061097d919061369c565b612591565b005b34801561099057600080fd5b506109ab60048036038101906109a69190613d1b565b612617565b005b6109b56126a6565b80600860008473ffffffffffffffffffffffffffffffffffffffff1673ffffffffffffffffffffffffffffffffffffffff16815260200190815260200160002060006101000a81548160ff0219169083151502179055505050565b6000808383604051602001610a26929190613db1565b60405160208183030381529060405280519060200120905060006007600083815260200190815260200160002054905060008114158015610a675750804210155b9250505092915050565b60086020528060005260406000206000915054906101000a900460ff1681565b610a996126a6565b60008142604051602001610aae929190613db1565b604051602081830303815290604052805190602001209050600060065442610ad69190613e0c565b9050806007600084815260200190815260200160002081905550817f79e2dca331f93c0d9119556c8a471734e6bc8470283391068f156e9a6d3cd3e68483604051610b22929190613e40565b60405180910390a2505050565b6060600b8054610b3e90613e98565b80601f0160208091040260200160405190810160405280929190818152602001828054610b6a90613e98565b8015610bb75780601f10610b8c57610100808354040283529160200191610bb7565b820191906000526020600020905b815481529060010190602001808311610b9a57829003601f168201915b5050505050905090565b60055481565b600181565b610bd46134bb565b600360008381526020019081526020016000206040518060a00160405290816000820160009054906101000a900473ffffffffffffffffffffffffffffffffffffffff1673ffffffffffffffffffffffffffffffffffffffff1673ffffffffffffffffffffffffffffffffffffffff1681526020016001820154815260200160028201548152602001600382015481526020016004820160009054906101000a900460ff166002811115610c8b57610c8a613826565b5b6002811115610c9d57610c9c613826565b5b815250509050919050565b60026020528060005260406000206000915090505481565b60036020528060005260406000206000915090508060000160009054906101000a900473ffffffffffffffffffffffffffffffffffffffff16908060010154908060020154908060030154908060040160009054906101000a900460ff16905085565b610d2b6126a6565b60008282604051602001610d40929190613db1565b60405160208183030381529060405280519060200120905060006007600083815260200190815260200160002054905060008103610daa576040517fe1af1e2e00000000000000000000000000000000000000000000000000000000815260040160405180910390fd5b80421015610de4576040517f1bada80200000000000000000000000000000000000000000000000000000000815260040160405180910390fd5b6007600083815260200190815260200160002060009055817f1b011fae1a8fa8755c05a1200229cf94f1218002d660dae8eca1e796db11e21285604051610e2b91906139fa565b60405180910390a250505050565b60016020528060005260406000206000915054906101000a900460ff1681565b610e616126a6565b610e6961272d565b565b600080600160008473ffffffffffffffffffffffffffffffffffffffff1673ffffffffffffffffffffffffffffffffffffffff16815260200190815260200160002060009054906101000a900460ff1615610ecc5760008491509150610ef8565b6127106101f485610edd9190613ec9565b610ee79190613f3a565b91508184610ef59190613f6b565b90505b9250929050565b610f076126a6565b808015610f5e5750600460008373ffffffffffffffffffffffffffffffffffffffff1673ffffffffffffffffffffffffffffffffffffffff16815260200190815260200160002060009054906101000a900460ff16155b15610f805760056000815480929190610f7690613f9f565b9190505550610ff6565b80158015610fd75750600460008373ffffffffffffffffffffffffffffffffffffffff1673ffffffffffffffffffffffffffffffffffffffff16815260200190815260200160002060009054906101000a900460ff165b15610ff55760056000815480929190610fef90613fe7565b91905055505b5b80600460008473ffffffffffffffffffffffffffffffffffffffff1673ffffffffffffffffffffffffffffffffffffffff16815260200190815260200160002060006101000a81548160ff0219169083151502179055508173ffffffffffffffffffffffffffffffffffffffff167f763b63b30e91c843bb39e4379603697003d3b7c1f192619cd782fa33bdc44396826040516110939190613681565b60405180910390a25050565b60008054906101000a900473ffffffffffffffffffffffffffffffffffffffff1681565b6110cb61279f565b6110d482612885565b6110de8282612890565b5050565b600860003373ffffffffffffffffffffffffffffffffffffffff1673ffffffffffffffffffffffffffffffffffffffff16815260200190815260200160002060009054906101000a900460ff16611165576040517fea8e4eb500000000000000000000000000000000000000000000000000000000815260040160405180910390fd5b61116d6129af565b565b6000611179612a21565b7f360894a13ba1a3210667c828492db98dca3e2076cc3735a920a3ca505d382bbc60001b905090565b600b80546111af90613e98565b80601f01602080910402602001604051908101604052809291908181526020018280546111db90613e98565b80156112285780601f106111fd57610100808354040283529160200191611228565b820191906000526020600020905b81548152906001019060200180831161120b57829003601f168201915b505050505081565b60008061123b612aa8565b90508060000160009054906101000a900460ff1691505090565b61125d6126a6565b6112676000612ad0565b565b60095481565b611277612ba7565b6000600360008381526020019081526020016000209050600060028111156112a2576112a1613826565b5b8160040160009054906101000a900460ff1660028111156112c6576112c5613826565b5b146112fd576040517f3742d1f600000000000000000000000000000000000000000000000000000000815260040160405180910390fd5b3373ffffffffffffffffffffffffffffffffffffffff168160000160009054906101000a900473ffffffffffffffffffffffffffffffffffffffff1673ffffffffffffffffffffffffffffffffffffffff1614611386576040517f3e87cffd00000000000000000000000000000000000000000000000000000000815260040160405180910390fd5b61070881600301546113989190613e0c565b42116113d0576040517f0b4d698100000000000000000000000000000000000000000000000000000000815260040160405180910390fd5b60028160040160006101000a81548160ff021916908360028111156113f8576113f7613826565b5b021790555060008160010154905060003373ffffffffffffffffffffffffffffffffffffffff168260405161142c90614041565b60006040518083038185875af1925050503d8060008114611469576040519150601f19603f3d011682016040523d82523d6000602084013e61146e565b606091505b50509050806114a9576040517ff0c49d4400000000000000000000000000000000000000000000000000000000815260040160405180910390fd5b837ff552ca82e113ac3c539c3d617f29fcd19c172a0c75dad017555c9e109f7fe18333846040516114db929190613e40565b60405180910390a25050506114ee612bfe565b50565b61070881565b600080600360008481526020019081526020016000206040518060a00160405290816000820160009054906101000a900473ffffffffffffffffffffffffffffffffffffffff1673ffffffffffffffffffffffffffffffffffffffff1673ffffffffffffffffffffffffffffffffffffffff1681526020016001820154815260200160028201548152602001600382015481526020016004820160009054906101000a900460ff1660028111156115b1576115b0613826565b5b60028111156115c3576115c2613826565b5b81525050905061070881606001516115db9190613e0c565b915050919050565b60065481565b600080600360008481526020019081526020016000206040518060a00160405290816000820160009054906101000a900473ffffffffffffffffffffffffffffffffffffffff1673ffffffffffffffffffffffffffffffffffffffff1673ffffffffffffffffffffffffffffffffffffffff1681526020016001820154815260200160028201548152602001600382015481526020016004820160009054906101000a900460ff1660028111156116a3576116a2613826565b5b60028111156116b5576116b4613826565b5b815250509050600060028111156116cf576116ce613826565b5b816080015160028111156116e6576116e5613826565b5b148015611703575061070881606001516117009190613e0c565b42115b915050919050565b600080611716612c17565b90508060000160009054906101000a900473ffffffffffffffffffffffffffffffffffffffff1691505090565b61174b6126a6565b80600160008473ffffffffffffffffffffffffffffffffffffffff1673ffffffffffffffffffffffffffffffffffffffff16815260200190815260200160002060006101000a81548160ff0219169083151502179055508173ffffffffffffffffffffffffffffffffffffffff167f4d5771454588f51370a8a2e7e151354b6de0dc3159b14821b4ad76bc04c28bc7826040516117e89190613681565b60405180910390a25050565b6040518060400160405280600581526020017f352e302e3000000000000000000000000000000000000000000000000000000081525081565b6101f481565b61183b612ba7565b611843612c3f565b60006003600087815260200190815260200160002090506000600281111561186e5761186d613826565b5b8160040160009054906101000a900460ff16600281111561189257611891613826565b5b146118c9576040517f475a253500000000000000000000000000000000000000000000000000000000815260040160405180910390fd5b600073ffffffffffffffffffffffffffffffffffffffff168160000160009054906101000a900473ffffffffffffffffffffffffffffffffffffffff1673ffffffffffffffffffffffffffffffffffffffff1603611953576040517f3b2a862c00000000000000000000000000000000000000000000000000000000815260040160405180910390fd5b828290508585905014611992576040517f815e1d6400000000000000000000000000000000000000000000000000000000815260040160405180910390fd5b60018585905010156119d0576040517fe246dc6300000000000000000000000000000000000000000000000000000000815260040160405180910390fd5b6000868260000160009054906101000a900473ffffffffffffffffffffffffffffffffffffffff16836002015430604051602001611a119493929190614077565b6040516020818303038152906040528051906020012090506000611a3482612c80565b905060008585905067ffffffffffffffff811115611a5557611a54613a1f565b5b604051908082528060200260200182016040528015611a835781602001602082028036833780820191505090505b50905060005b88889050811015611d0c576000611b07848b8b85818110611aad57611aac6140c5565b5b9050602002810190611abf9190614103565b8080601f016020809104026020016040519081016040528093929190818152602001838380828437600081840152601f19601f82011690508083019250505050505050612cb6565b9050878783818110611b1c57611b1b6140c5565b5b9050602002016020810190611b31919061369c565b73ffffffffffffffffffffffffffffffffffffffff168173ffffffffffffffffffffffffffffffffffffffff1614611b95576040517f815e1d6400000000000000000000000000000000000000000000000000000000815260040160405180910390fd5b600460008273ffffffffffffffffffffffffffffffffffffffff1673ffffffffffffffffffffffffffffffffffffffff16815260200190815260200160002060009054906101000a900460ff16611c18576040517f54ac7bfc00000000000000000000000000000000000000000000000000000000815260040160405180910390fd5b60005b82811015611caf578173ffffffffffffffffffffffffffffffffffffffff16848281518110611c4d57611c4c6140c5565b5b602002602001015173ffffffffffffffffffffffffffffffffffffffff1603611ca2576040517f8044bb3300000000000000000000000000000000000000000000000000000000815260040160405180910390fd5b8080600101915050611c1b565b5080838381518110611cc457611cc36140c5565b5b602002602001019073ffffffffffffffffffffffffffffffffffffffff16908173ffffffffffffffffffffffffffffffffffffffff1681525050508080600101915050611a89565b5060018460040160006101000a81548160ff02191690836002811115611d3557611d34613826565b5b021790555060008060009054906101000a900473ffffffffffffffffffffffffffffffffffffffff1673ffffffffffffffffffffffffffffffffffffffff168560010154604051611d8590614041565b60006040518083038185875af1925050503d8060008114611dc2576040519150601f19603f3d011682016040523d82523d6000602084013e611dc7565b606091505b5050905080611e02576040517f096dc0e100000000000000000000000000000000000000000000000000000000815260040160405180910390fd5b897f3a5e0271cd79026f0993aa13e6dd17d1f34284aa2340c1d2c33653b9a4433ee98660000160009054906101000a900473ffffffffffffffffffffffffffffffffffffffff168760020154604051611e5c929190613e40565b60405180910390a25050505050611e71612bfe565b5050505050565b6000611e82612ce2565b905060008160000160089054906101000a900460ff1615905060008260000160009054906101000a900467ffffffffffffffff1690506000808267ffffffffffffffff16148015611ed05750825b9050600060018367ffffffffffffffff16148015611f05575060003073ffffffffffffffffffffffffffffffffffffffff163b145b905081158015611f13575080155b15611f4a576040517ff92ee8a900000000000000000000000000000000000000000000000000000000815260040160405180910390fd5b60018560000160006101000a81548167ffffffffffffffff021916908367ffffffffffffffff1602179055508315611f9a5760018560000160086101000a81548160ff0219169083151502179055505b611fa333612cf6565b611fab612d0a565b611fb3612d1c565b611fbb612d26565b866000806101000a81548173ffffffffffffffffffffffffffffffffffffffff021916908373ffffffffffffffffffffffffffffffffffffffff16021790555085600681905550620151806009819055506040518060400160405280600581526020017f312e302e30000000000000000000000000000000000000000000000000000000815250600b90816120509190614312565b5060018060007317cabc8001a30800835dd8206ceb0c4ba90b591373ffffffffffffffffffffffffffffffffffffffff1673ffffffffffffffffffffffffffffffffffffffff16815260200190815260200160002060006101000a81548160ff0219169083151502179055506001600460007373af5be3db46ce3b7c50fd833b9c60180f33944973ffffffffffffffffffffffffffffffffffffffff1673ffffffffffffffffffffffffffffffffffffffff16815260200190815260200160002060006101000a81548160ff02191690831515021790555060016005819055506001600860003373ffffffffffffffffffffffffffffffffffffffff1673ffffffffffffffffffffffffffffffffffffffff16815260200190815260200160002060006101000a81548160ff02191690831515021790555083156121e45760008560000160086101000a81548160ff0219169083151502179055507fc7f505b2f371ae2175ee4913f4499e1f2633a7b5936321eed1cdaeb6115181d260016040516121db9190614433565b60405180910390a15b50505050505050565b60046020528060005260406000206000915054906101000a900460ff1681565b60076020528060005260406000206000915090505481565b600a5481565b61271081565b6122396126a6565b60008060009054906101000a900473ffffffffffffffffffffffffffffffffffffffff169050816000806101000a81548173ffffffffffffffffffffffffffffffffffffffff021916908373ffffffffffffffffffffffffffffffffffffffff1602179055507faaebcf1bfa00580e41d966056b48521fa9f202645c86d4ddf28113e617c1b1d381836040516122d092919061444e565b60405180910390a15050565b6122e4612ba7565b6122ec612c3f565b60003403612326576040517f2c5211c600000000000000000000000000000000000000000000000000000000815260040160405180910390fd5b600080349050600160003373ffffffffffffffffffffffffffffffffffffffff1673ffffffffffffffffffffffffffffffffffffffff16815260200190815260200160002060009054906101000a900460ff166123a9576127106101f43461238e9190613ec9565b6123989190613f3a565b915081346123a69190613f6b565b90505b6000600260003373ffffffffffffffffffffffffffffffffffffffff1673ffffffffffffffffffffffffffffffffffffffff16815260200190815260200160002060008154809291906123fb90613f9f565b9190505590506000333442843060405160200161241c959493929190614477565b6040516020818303038152906040528051906020012090506040518060a001604052803373ffffffffffffffffffffffffffffffffffffffff1681526020013481526020018481526020014281526020016000600281111561248157612480613826565b5b8152506003600083815260200190815260200160002060008201518160000160006101000a81548173ffffffffffffffffffffffffffffffffffffffff021916908373ffffffffffffffffffffffffffffffffffffffff16021790555060208201518160010155604082015181600201556060820151816003015560808201518160040160006101000a81548160ff0219169083600281111561252757612526613826565b5b02179055509050503373ffffffffffffffffffffffffffffffffffffffff167f719ab00511e884d1ea4921ee843132435dc006b0bb7f8b67fb693b621e45bb533485844260405161257b94939291906144d6565b60405180910390a25050505061258f612bfe565b565b6125996126a6565b600073ffffffffffffffffffffffffffffffffffffffff168173ffffffffffffffffffffffffffffffffffffffff160361260b5760006040517f1e4fbdf700000000000000000000000000000000000000000000000000000000815260040161260291906139fa565b60405180910390fd5b61261481612ad0565b50565b61261f6126a6565b61012c81101561265b576040517ff8d10e8200000000000000000000000000000000000000000000000000000000815260040160405180910390fd5b60006006549050816006819055507f3e9cac94b7c7db9b86df56321e6f7e3e88a6c87fc15fd825df1492cf69e33551818360405161269a9291906139d1565b60405180910390a15050565b6126ae612d30565b73ffffffffffffffffffffffffffffffffffffffff166126cc61170b565b73ffffffffffffffffffffffffffffffffffffffff161461272b576126ef612d30565b6040517f118cdaa700000000000000000000000000000000000000000000000000000000815260040161272291906139fa565b60405180910390fd5b565b612735612d38565b600061273f612aa8565b905060008160000160006101000a81548160ff0219169083151502179055507f5db9ee0a495bf2e6ff9c91a7834c1ba4fdd244a5e8aa4e537bd38aeae4b073aa612787612d30565b60405161279491906139fa565b60405180910390a150565b7f000000000000000000000000000000000000000000000000000000000000000073ffffffffffffffffffffffffffffffffffffffff163073ffffffffffffffffffffffffffffffffffffffff16148061284c57507f000000000000000000000000000000000000000000000000000000000000000073ffffffffffffffffffffffffffffffffffffffff16612833612d78565b73ffffffffffffffffffffffffffffffffffffffff1614155b15612883576040517fe07c8dba00000000000000000000000000000000000000000000000000000000815260040160405180910390fd5b565b61288d6126a6565b50565b8173ffffffffffffffffffffffffffffffffffffffff166352d1902d6040518163ffffffff1660e01b8152600401602060405180830381865afa9250505080156128f857506040513d601f19601f820116820180604052508101906128f59190614530565b60015b61293957816040517f4c9c8ce300000000000000000000000000000000000000000000000000000000815260040161293091906139fa565b60405180910390fd5b7f360894a13ba1a3210667c828492db98dca3e2076cc3735a920a3ca505d382bbc60001b81146129a057806040517faa1d49a40000000000000000000000000000000000000000000000000000000081526004016129979190613bb5565b60405180910390fd5b6129aa8383612dcf565b505050565b6129b7612c3f565b60006129c1612aa8565b905060018160000160006101000a81548160ff0219169083151502179055507f62e78cea01bee320cd4e420270b5ea74000d11b0c9f74754ebdbfc544b05a258612a09612d30565b604051612a1691906139fa565b60405180910390a150565b7f000000000000000000000000000000000000000000000000000000000000000073ffffffffffffffffffffffffffffffffffffffff163073ffffffffffffffffffffffffffffffffffffffff1614612aa6576040517fe07c8dba00000000000000000000000000000000000000000000000000000000815260040160405180910390fd5b565b60007fcd5ed15c6e187e77e9aee88184c21f4f2182ab5827cb3b7e07fbedcd63f03300905090565b6000612ada612c17565b905060008160000160009054906101000a900473ffffffffffffffffffffffffffffffffffffffff169050828260000160006101000a81548173ffffffffffffffffffffffffffffffffffffffff021916908373ffffffffffffffffffffffffffffffffffffffff1602179055508273ffffffffffffffffffffffffffffffffffffffff168173ffffffffffffffffffffffffffffffffffffffff167f8be0079c531659141344cd1fd0a4f28419497f9722a3daafe3b4186f6b6457e060405160405180910390a3505050565b6000612bb1612e42565b90506002816000015403612bf1576040517f3ee5aeb500000000000000000000000000000000000000000000000000000000815260040160405180910390fd5b6002816000018190555050565b6000612c08612e42565b90506001816000018190555050565b60007f9016d09d72d40fdae2fd8ceac6b6234c7706214fd39c1cd1e609a0528c199300905090565b612c47611230565b15612c7e576040517fd93c066500000000000000000000000000000000000000000000000000000000815260040160405180910390fd5b565b60007f19457468657265756d205369676e6564204d6573736167653a0a33320000000060005281601c52603c6000209050919050565b600080600080612cc68686612e6a565b925092509250612cd68282612ec6565b82935050505092915050565b600080612ced61302a565b90508091505090565b612cfe613055565b612d0781613095565b50565b612d12613055565b612d1a61311b565b565b612d24613055565b565b612d2e613055565b565b600033905090565b612d40611230565b612d76576040517f8dfc202b00000000000000000000000000000000000000000000000000000000815260040160405180910390fd5b565b6000612da67f360894a13ba1a3210667c828492db98dca3e2076cc3735a920a3ca505d382bbc60001b61313c565b60000160009054906101000a900473ffffffffffffffffffffffffffffffffffffffff16905090565b612dd882613146565b8173ffffffffffffffffffffffffffffffffffffffff167fbc7cd75a20ee27fd9adebab32041f755214dbc6bffa90cc0225b39da2e5c2d3b60405160405180910390a2600081511115612e3557612e2f8282613213565b50612e3e565b612e3d613297565b5b5050565b60007f9b779b17422d0df92223018b32b4d1fa46e071723d6817e2486d003becc55f00905090565b60008060006041845103612eaf5760008060006020870151925060408701519150606087015160001a9050612ea1888285856132d4565b955095509550505050612ebf565b60006002855160001b9250925092505b9250925092565b60006003811115612eda57612ed9613826565b5b826003811115612eed57612eec613826565b5b03156130265760016003811115612f0757612f06613826565b5b826003811115612f1a57612f19613826565b5b03612f51576040517ff645eedf00000000000000000000000000000000000000000000000000000000815260040160405180910390fd5b60026003811115612f6557612f64613826565b5b826003811115612f7857612f77613826565b5b03612fbd578060001c6040517ffce698f7000000000000000000000000000000000000000000000000000000008152600401612fb4919061378a565b60405180910390fd5b600380811115612fd057612fcf613826565b5b826003811115612fe357612fe2613826565b5b0361302557806040517fd78bce0c00000000000000000000000000000000000000000000000000000000815260040161301c9190613bb5565b60405180910390fd5b5b5050565b60007ff0c57e16840df040f15088dc2f81fe391c3923bec73e23a9662efc9c229c6a0060001b905090565b61305d6133c8565b613093576040517fd7e6bcf800000000000000000000000000000000000000000000000000000000815260040160405180910390fd5b565b61309d613055565b600073ffffffffffffffffffffffffffffffffffffffff168173ffffffffffffffffffffffffffffffffffffffff160361310f5760006040517f1e4fbdf700000000000000000000000000000000000000000000000000000000815260040161310691906139fa565b60405180910390fd5b61311881612ad0565b50565b613123613055565b600061312d612e42565b90506001816000018190555050565b6000819050919050565b60008173ffffffffffffffffffffffffffffffffffffffff163b036131a257806040517f4c9c8ce300000000000000000000000000000000000000000000000000000000815260040161319991906139fa565b60405180910390fd5b806131cf7f360894a13ba1a3210667c828492db98dca3e2076cc3735a920a3ca505d382bbc60001b61313c565b60000160006101000a81548173ffffffffffffffffffffffffffffffffffffffff021916908373ffffffffffffffffffffffffffffffffffffffff16021790555050565b60606000808473ffffffffffffffffffffffffffffffffffffffff168460405161323d9190614599565b600060405180830381855af49150503d8060008114613278576040519150601f19603f3d011682016040523d82523d6000602084013e61327d565b606091505b509150915061328d8583836133e8565b9250505092915050565b60003411156132d2576040517fb398979f00000000000000000000000000000000000000000000000000000000815260040160405180910390fd5b565b60008060007f7fffffffffffffffffffffffffffffff5d576e7357a4501ddfe92f46681b20a08460001c11156133145760006003859250925092506133be565b60006001888888886040516000815260200160405260405161333994939291906145cc565b6020604051602081039080840390855afa15801561335b573d6000803e3d6000fd5b505050602060405103519050600073ffffffffffffffffffffffffffffffffffffffff168173ffffffffffffffffffffffffffffffffffffffff16036133af57600060016000801b935093509350506133be565b8060008060001b935093509350505b9450945094915050565b60006133d2612ce2565b60000160089054906101000a900460ff16905090565b6060826133fd576133f882613477565b61346f565b60008251148015613425575060008473ffffffffffffffffffffffffffffffffffffffff163b145b1561346757836040517f9996b31500000000000000000000000000000000000000000000000000000000815260040161345e91906139fa565b60405180910390fd5b819050613470565b5b9392505050565b60008151111561348957805160208201fd5b6040517fd6bda27500000000000000000000000000000000000000000000000000000000815260040160405180910390fd5b6040518060a00160405280600073ffffffffffffffffffffffffffffffffffffffff1681526020016000815260200160008152602001600081526020016000600281111561350c5761350b613826565b5b81525090565b6000604051905090565b600080fd5b600080fd5b600073ffffffffffffffffffffffffffffffffffffffff82169050919050565b600061355182613526565b9050919050565b61356181613546565b811461356c57600080fd5b50565b60008135905061357e81613558565b92915050565b60008115159050919050565b61359981613584565b81146135a457600080fd5b50565b6000813590506135b681613590565b92915050565b600080604083850312156135d3576135d261351c565b5b60006135e18582860161356f565b92505060206135f2858286016135a7565b9150509250929050565b6000819050919050565b61360f816135fc565b811461361a57600080fd5b50565b60008135905061362c81613606565b92915050565b600080604083850312156136495761364861351c565b5b60006136578582860161356f565b92505060206136688582860161361d565b9150509250929050565b61367b81613584565b82525050565b60006020820190506136966000830184613672565b92915050565b6000602082840312156136b2576136b161351c565b5b60006136c08482850161356f565b91505092915050565b600081519050919050565b600082825260208201905092915050565b60005b838110156137035780820151818401526020810190506136e8565b60008484015250505050565b6000601f19601f8301169050919050565b600061372b826136c9565b61373581856136d4565b93506137458185602086016136e5565b61374e8161370f565b840191505092915050565b600060208201905081810360008301526137738184613720565b905092915050565b613784816135fc565b82525050565b600060208201905061379f600083018461377b565b92915050565b6000819050919050565b6137b8816137a5565b81146137c357600080fd5b50565b6000813590506137d5816137af565b92915050565b6000602082840312156137f1576137f061351c565b5b60006137ff848285016137c6565b91505092915050565b61381181613546565b82525050565b613820816135fc565b82525050565b7f4e487b7100000000000000000000000000000000000000000000000000000000600052602160045260246000fd5b6003811061386657613865613826565b5b50565b600081905061387782613855565b919050565b600061388782613869565b9050919050565b6138978161387c565b82525050565b60a0820160008201516138b36000850182613808565b5060208201516138c66020850182613817565b5060408201516138d96040850182613817565b5060608201516138ec6060850182613817565b5060808201516138ff608085018261388e565b50505050565b600060a08201905061391a600083018461389d565b92915050565b61392981613546565b82525050565b6139388161387c565b82525050565b600060a0820190506139536000830188613920565b613960602083018761377b565b61396d604083018661377b565b61397a606083018561377b565b613987608083018461392f565b9695505050505050565b600080604083850312156139a8576139a761351c565b5b60006139b68582860161361d565b92505060206139c78582860161356f565b9150509250929050565b60006040820190506139e6600083018561377b565b6139f3602083018461377b565b9392505050565b6000602082019050613a0f6000830184613920565b92915050565b600080fd5b600080fd5b7f4e487b7100000000000000000000000000000000000000000000000000000000600052604160045260246000fd5b613a578261370f565b810181811067ffffffffffffffff82111715613a7657613a75613a1f565b5b80604052505050565b6000613a89613512565b9050613a958282613a4e565b919050565b600067ffffffffffffffff821115613ab557613ab4613a1f565b5b613abe8261370f565b9050602081019050919050565b82818337600083830152505050565b6000613aed613ae884613a9a565b613a7f565b905082815260208101848484011115613b0957613b08613a1a565b5b613b14848285613acb565b509392505050565b600082601f830112613b3157613b30613a15565b5b8135613b41848260208601613ada565b91505092915050565b60008060408385031215613b6157613b6061351c565b5b6000613b6f8582860161356f565b925050602083013567ffffffffffffffff811115613b9057613b8f613521565b5b613b9c85828601613b1c565b9150509250929050565b613baf816137a5565b82525050565b6000602082019050613bca6000830184613ba6565b92915050565b600080fd5b600080fd5b60008083601f840112613bf057613bef613a15565b5b8235905067ffffffffffffffff811115613c0d57613c0c613bd0565b5b602083019150836020820283011115613c2957613c28613bd5565b5b9250929050565b60008083601f840112613c4657613c45613a15565b5b8235905067ffffffffffffffff811115613c6357613c62613bd0565b5b602083019150836020820283011115613c7f57613c7e613bd5565b5b9250929050565b600080600080600060608688031215613ca257613ca161351c565b5b6000613cb0888289016137c6565b955050602086013567ffffffffffffffff811115613cd157613cd0613521565b5b613cdd88828901613bda565b9450945050604086013567ffffffffffffffff811115613d0057613cff613521565b5b613d0c88828901613c30565b92509250509295509295909350565b600060208284031215613d3157613d3061351c565b5b6000613d3f8482850161361d565b91505092915050565b60008160601b9050919050565b6000613d6082613d48565b9050919050565b6000613d7282613d55565b9050919050565b613d8a613d8582613546565b613d67565b82525050565b6000819050919050565b613dab613da6826135fc565b613d90565b82525050565b6000613dbd8285613d79565b601482019150613dcd8284613d9a565b6020820191508190509392505050565b7f4e487b7100000000000000000000000000000000000000000000000000000000600052601160045260246000fd5b6000613e17826135fc565b9150613e22836135fc565b9250828201905080821115613e3a57613e39613ddd565b5b92915050565b6000604082019050613e556000830185613920565b613e62602083018461377b565b9392505050565b7f4e487b7100000000000000000000000000000000000000000000000000000000600052602260045260246000fd5b60006002820490506001821680613eb057607f821691505b602082108103613ec357613ec2613e69565b5b50919050565b6000613ed4826135fc565b9150613edf836135fc565b9250828202613eed816135fc565b91508282048414831517613f0457613f03613ddd565b5b5092915050565b7f4e487b7100000000000000000000000000000000000000000000000000000000600052601260045260246000fd5b6000613f45826135fc565b9150613f50836135fc565b925082613f6057613f5f613f0b565b5b828204905092915050565b6000613f76826135fc565b9150613f81836135fc565b9250828203905081811115613f9957613f98613ddd565b5b92915050565b6000613faa826135fc565b91507fffffffffffffffffffffffffffffffffffffffffffffffffffffffffffffffff8203613fdc57613fdb613ddd565b5b600182019050919050565b6000613ff2826135fc565b91506000820361400557614004613ddd565b5b600182039050919050565b600081905092915050565b50565b600061402b600083614010565b91506140368261401b565b600082019050919050565b600061404c8261401e565b9150819050919050565b6000819050919050565b61407161406c826137a5565b614056565b82525050565b60006140838287614060565b6020820191506140938286613d79565b6014820191506140a38285613d9a565b6020820191506140b38284613d79565b60148201915081905095945050505050565b7f4e487b7100000000000000000000000000000000000000000000000000000000600052603260045260246000fd5b600080fd5b600080fd5b600080fd5b600080833560016020038436030381126141205761411f6140f4565b5b80840192508235915067ffffffffffffffff821115614142576141416140f9565b5b60208301925060018202360383131561415e5761415d6140fe565b5b509250929050565b60008190508160005260206000209050919050565b60006020601f8301049050919050565b600082821b905092915050565b6000600883026141c87fffffffffffffffffffffffffffffffffffffffffffffffffffffffffffffffff8261418b565b6141d2868361418b565b95508019841693508086168417925050509392505050565b6000819050919050565b600061420f61420a614205846135fc565b6141ea565b6135fc565b9050919050565b6000819050919050565b614229836141f4565b61423d61423582614216565b848454614198565b825550505050565b600090565b614252614245565b61425d818484614220565b505050565b5b818110156142815761427660008261424a565b600181019050614263565b5050565b601f8211156142c65761429781614166565b6142a08461417b565b810160208510156142af578190505b6142c36142bb8561417b565b830182614262565b50505b505050565b600082821c905092915050565b60006142e9600019846008026142cb565b1980831691505092915050565b600061430283836142d8565b9150826002028217905092915050565b61431b826136c9565b67ffffffffffffffff81111561433457614333613a1f565b5b61433e8254613e98565b614349828285614285565b600060209050601f83116001811461437c576000841561436a578287015190505b61437485826142f6565b8655506143dc565b601f19841661438a86614166565b60005b828110156143b25784890151825560018201915060208501945060208101905061438d565b868310156143cf57848901516143cb601f8916826142d8565b8355505b6001600288020188555050505b505050505050565b6000819050919050565b600067ffffffffffffffff82169050919050565b600061441d614418614413846143e4565b6141ea565b6143ee565b9050919050565b61442d81614402565b82525050565b60006020820190506144486000830184614424565b92915050565b60006040820190506144636000830185613920565b6144706020830184613920565b9392505050565b60006144838288613d79565b6014820191506144938287613d9a565b6020820191506144a38286613d9a565b6020820191506144b38285613d9a565b6020820191506144c38284613d79565b6014820191508190509695505050505050565b60006080820190506144eb600083018761377b565b6144f8602083018661377b565b6145056040830185613ba6565b614512606083018461377b565b95945050505050565b60008151905061452a816137af565b92915050565b6000602082840312156145465761454561351c565b5b60006145548482850161451b565b91505092915050565b600081519050919050565b60006145738261455d565b61457d8185614010565b935061458d8185602086016136e5565b80840191505092915050565b60006145a58284614568565b915081905092915050565b600060ff82169050919050565b6145c6816145b0565b82525050565b60006080820190506145e16000830187613ba6565b6145ee60208301866145bd565b6145fb6040830185613ba6565b6146086060830184613ba6565b9594505050505056fea2646970667358221220f0a044926fc53c167d6694d4db8d4118a05778de901dc68ceb428f2fc035c20064736f6c63430008160033",
  "linkReferences": {},
  "deployedLinkReferences": {}
}