{
  "_format": "hh-sol-artifact-1",
  "contractName": "SuperBridgeL2",
  "sourceName": "contracts/SuperBridgeL2.sol",
  "abi": [
    {
      "inputs": [],
      "stateMutability": "nonpayable",
      "type": "constructor"
    },
    {
      "inputs": [],
      "name": "AlreadyFinalized",
      "type": "error"
    },
    {
      "inputs": [],
      "name": "DuplicateSigner",
      "type": "error"
    },
    {
      "inputs": [],
      "name": "ECDSAInvalidSignature",
      "type": "error"
    },
    {
      "inputs": [
        {
          "internalType": "uint256",
          "name": "length",
          "type": "uint256"
        }
      ],
      "name": "ECDSAInvalidSignatureLength",
      "type": "error"
    },
    {
      "inputs": [
        {
          "internalType": "bytes32",
          "name": "s",
          "type": "bytes32"
        }
      ],
      "name": "ECDSAInvalidSignatureS",
      "type": "error"
    },
    {
      "inputs": [],
      "name": "EmergencyNotReady",
      "type": "error"
    },
    {
      "inputs": [],
      "name": "EnforcedPause",
      "type": "error"
    },
    {
      "inputs": [],
      "name": "ExpectedPause",
      "type": "error"
    },
    {
      "inputs": [],
      "name": "ForwardFailed",
      "type": "error"
    },
    {
      "inputs": [],
      "name": "InvalidAmount",
      "type": "error"
    },
    {
      "inputs": [],
      "name": "InvalidSigner",
      "type": "error"
    },
    {
      "inputs": [],
      "name": "InvalidTransferId",
      "type": "error"
    },
    {
      "inputs": [],
      "name": "NotAuthorized",
      "type": "error"
    },
    {
      "inputs": [],
      "name": "NotAuthorizedSigner",
      "type": "error"
    },
    {
      "inputs": [],
      "name": "NotEmergencyOperator",
      "type": "error"
    },
    {
      "inputs": [],
      "name": "NotEnoughSignatures",
      "type": "error"
    },
    {
      "inputs": [],
      "name": "NotRefundable",
      "type": "error"
    },
    {
      "inputs": [],
      "name": "NotYourTransfer",
      "type": "error"
    },
    {
      "inputs": [
        {
          "internalType": "address",
          "name": "owner",
          "type": "address"
        }
      ],
      "name": "OwnableInvalidOwner",
      "type": "error"
    },
    {
      "inputs": [
        {
          "internalType": "address",
          "name": "account",
          "type": "address"
        }
      ],
      "name": "OwnableUnauthorizedAccount",
      "type": "error"
    },
    {
      "inputs": [],
      "name": "ReentrancyGuardReentrantCall",
      "type": "error"
    },
    {
      "inputs": [],
      "name": "RefundFailed",
      "type": "error"
    },
    {
      "inputs": [],
      "name": "RefundNotAvailable",
      "type": "error"
    },
    {
      "inputs": [],
      "name": "WithdrawFailed",
      "type": "error"
    },
    {
      "anonymous": false,
      "inputs": [
        {
          "indexed": true,
          "internalType": "bytes32",
          "name": "transferId",
          "type": "bytes32"
        },
        {
          "indexed": false,
          "internalType": "address",
          "name": "user",
          "type": "address"
        },
        {
          "indexed": false,
          "internalType": "uint256",
          "name": "bridgedAmount",
          "type": "uint256"
        }
      ],
      "name": "BridgeCompleted",
      "type": "event"
    },
    {
      "anonymous": false,
      "inputs": [
        {
          "indexed": true,
          "internalType": "address",
          "name": "user",
          "type": "address"
        },
        {
          "indexed": false,
          "internalType": "uint256",
          "name": "originalAmount",
          "type": "uint256"
        },
        {
          "indexed": false,
          "internalType": "uint256",
          "name": "bridgedAmount",
          "type": "uint256"
        },
        {
          "indexed": false,
          "internalType": "bytes32",
          "name": "transferId",
          "type": "bytes32"
        },
        {
          "indexed": false,
          "internalType": "uint256",
          "name": "timestamp",
          "type": "uint256"
        }
      ],
      "name": "BridgeInitiated",
      "type": "event"
    },
    {
      "anonymous": false,
      "inputs": [
        {
          "indexed": true,
          "internalType": "address",
          "name": "operator",
          "type": "address"
        },
        {
          "indexed": false,
          "internalType": "bool",
          "name": "status",
          "type": "bool"
        }
      ],
      "name": "EmergencyOperatorUpdated",
      "type": "event"
    },
    {
      "anonymous": false,
      "inputs": [
        {
          "indexed": false,
          "internalType": "uint256",
          "name": "amount",
          "type": "uint256"
        }
      ],
      "name": "EmergencyWithdrawExecuted",
      "type": "event"
    },
    {
      "anonymous": false,
      "inputs": [
        {
          "indexed": false,
          "internalType": "uint256",
          "name": "executeTime",
          "type": "uint256"
        }
      ],
      "name": "EmergencyWithdrawInitiated",
      "type": "event"
    },
    {
      "anonymous": false,
      "inputs": [
        {
          "indexed": true,
          "internalType": "address",
          "name": "user",
          "type": "address"
        },
        {
          "indexed": false,
          "internalType": "bool",
          "name": "exempt",
          "type": "bool"
        }
      ],
      "name": "FeeExemptUpdated",
      "type": "event"
    },
    {
      "anonymous": false,
      "inputs": [
        {
          "indexed": false,
          "internalType": "address",
          "name": "oldRecipient",
          "type": "address"
        },
        {
          "indexed": false,
          "internalType": "address",
          "name": "newRecipient",
          "type": "address"
        }
      ],
      "name": "FeeRecipientUpdated",
      "type": "event"
    },
    {
      "anonymous": false,
      "inputs": [
        {
          "indexed": true,
          "internalType": "address",
          "name": "previousOwner",
          "type": "address"
        },
        {
          "indexed": true,
          "internalType": "address",
          "name": "newOwner",
          "type": "address"
        }
      ],
      "name": "OwnershipTransferred",
      "type": "event"
    },
    {
      "anonymous": false,
      "inputs": [
        {
          "indexed": false,
          "internalType": "address",
          "name": "account",
          "type": "address"
        }
      ],
      "name": "Paused",
      "type": "event"
    },
    {
      "anonymous": false,
      "inputs": [
        {
          "indexed": true,
          "internalType": "bytes32",
          "name": "transferId",
          "type": "bytes32"
        },
        {
          "indexed": false,
          "internalType": "address",
          "name": "user",
          "type": "address"
        },
        {
          "indexed": false,
          "internalType": "uint256",
          "name": "amount",
          "type": "uint256"
        }
      ],
      "name": "Refunded",
      "type": "event"
    },
    {
      "anonymous": false,
      "inputs": [
        {
          "indexed": false,
          "internalType": "address",
          "name": "account",
          "type": "address"
        }
      ],
      "name": "Unpaused",
      "type": "event"
    },
    {
      "anonymous": false,
      "inputs": [
        {
          "indexed": true,
          "internalType": "address",
          "name": "validator",
          "type": "address"
        },
        {
          "indexed": false,
          "internalType": "bool",
          "name": "isValid",
          "type": "bool"
        }
      ],
      "name": "ValidatorUpdated",
      "type": "event"
    },
    {
      "inputs": [],
      "name": "BPS_DENOMINATOR",
      "outputs": [
        {
          "internalType": "uint256",
          "name": "",
          "type": "uint256"
        }
      ],
      "stateMutability": "view",
      "type": "function"
    },
    {
      "inputs": [],
      "name": "FEE_BPS",
      "outputs": [
        {
          "internalType": "uint256",
          "name": "",
          "type": "uint256"
        }
      ],
      "stateMutability": "view",
      "type": "function"
    },
    {
      "inputs": [],
      "name": "MIN_SIGNATURES",
      "outputs": [
        {
          "internalType": "uint256",
          "name": "",
          "type": "uint256"
        }
      ],
      "stateMutability": "view",
      "type": "function"
    },
    {
      "inputs": [],
      "name": "REFUND_TIMEOUT",
      "outputs": [
        {
          "internalType": "uint256",
          "name": "",
          "type": "uint256"
        }
      ],
      "stateMutability": "view",
      "type": "function"
    },
    {
      "inputs": [],
      "name": "bridge",
      "outputs": [],
      "stateMutability": "payable",
      "type": "function"
    },
    {
      "inputs": [
        {
          "internalType": "uint256",
          "name": "amount",
          "type": "uint256"
        },
        {
          "internalType": "address",
          "name": "user",
          "type": "address"
        }
      ],
      "name": "calculateFee",
      "outputs": [
        {
          "internalType": "uint256",
          "name": "fee",
          "type": "uint256"
        },
        {
          "internalType": "uint256",
          "name": "bridged",
          "type": "uint256"
        }
      ],
      "stateMutability": "view",
      "type": "function"
    },
    {
      "inputs": [
        {
          "internalType": "bytes32",
          "name": "transferId",
          "type": "bytes32"
        }
      ],
      "name": "canRefund",
      "outputs": [
        {
          "internalType": "bool",
          "name": "",
          "type": "bool"
        }
      ],
      "stateMutability": "view",
      "type": "function"
    },
    {
      "inputs": [
        {
          "internalType": "bytes32",
          "name": "transferId",
          "type": "bytes32"
        },
        {
          "internalType": "bytes[]",
          "name": "signatures",
          "type": "bytes[]"
        },
        {
          "internalType": "address[]",
          "name": "signers",
          "type": "address[]"
        }
      ],
      "name": "complete",
      "outputs": [],
      "stateMutability": "nonpayable",
      "type": "function"
    },
    {
      "inputs": [
        {
          "internalType": "address",
          "name": "",
          "type": "address"
        }
      ],
      "name": "emergencyOperators",
      "outputs": [
        {
          "internalType": "bool",
          "name": "",
          "type": "bool"
        }
      ],
      "stateMutability": "view",
      "type": "function"
    },
    {
      "inputs": [],
      "name": "emergencyPause",
      "outputs": [],
      "stateMutability": "nonpayable",
      "type": "function"
    },
    {
      "inputs": [],
      "name": "emergencyWithdrawDelay",
      "outputs": [
        {
          "internalType": "uint256",
          "name": "",
          "type": "uint256"
        }
      ],
      "stateMutability": "view",
      "type": "function"
    },
    {
      "inputs": [],
      "name": "emergencyWithdrawTime",
      "outputs": [
        {
          "internalType": "uint256",
          "name": "",
          "type": "uint256"
        }
      ],
      "stateMutability": "view",
      "type": "function"
    },
    {
      "inputs": [],
      "name": "executeEmergencyWithdraw",
      "outputs": [],
      "stateMutability": "nonpayable",
      "type": "function"
    },
    {
      "inputs": [],
      "name": "feeRecipient",
      "outputs": [
        {
          "internalType": "address",
          "name": "",
          "type": "address"
        }
      ],
      "stateMutability": "view",
      "type": "function"
    },
    {
      "inputs": [
        {
          "internalType": "bytes32",
          "name": "transferId",
          "type": "bytes32"
        }
      ],
      "name": "getRefundTime",
      "outputs": [
        {
          "internalType": "uint256",
          "name": "",
          "type": "uint256"
        }
      ],
      "stateMutability": "view",
      "type": "function"
    },
    {
      "inputs": [
        {
          "internalType": "bytes32",
          "name": "transferId",
          "type": "bytes32"
        }
      ],
      "name": "getTransfer",
      "outputs": [
        {
          "components": [
            {
              "internalType": "address",
              "name": "user",
              "type": "address"
            },
            {
              "internalType": "uint256",
              "name": "originalAmount",
              "type": "uint256"
            },
            {
              "internalType": "uint256",
              "name": "bridgedAmount",
              "type": "uint256"
            },
            {
              "internalType": "uint256",
              "name": "timestamp",
              "type": "uint256"
            },
            {
              "internalType": "enum SuperBridgeL2.Status",
              "name": "status",
              "type": "uint8"
            }
          ],
          "internalType": "struct SuperBridgeL2.Transfer",
          "name": "",
          "type": "tuple"
        }
      ],
      "stateMutability": "view",
      "type": "function"
    },
    {
      "inputs": [],
      "name": "getVersion",
      "outputs": [
        {
          "internalType": "string",
          "name": "",
          "type": "string"
        }
      ],
      "stateMutability": "view",
      "type": "function"
    },
    {
      "inputs": [],
      "name": "initiateEmergencyWithdraw",
      "outputs": [],
      "stateMutability": "nonpayable",
      "type": "function"
    },
    {
      "inputs": [
        {
          "internalType": "address",
          "name": "",
          "type": "address"
        }
      ],
      "name": "isFeeExempt",
      "outputs": [
        {
          "internalType": "bool",
          "name": "",
          "type": "bool"
        }
      ],
      "stateMutability": "view",
      "type": "function"
    },
    {
      "inputs": [
        {
          "internalType": "address",
          "name": "",
          "type": "address"
        }
      ],
      "name": "isValidSigner",
      "outputs": [
        {
          "internalType": "bool",
          "name": "",
          "type": "bool"
        }
      ],
      "stateMutability": "view",
      "type": "function"
    },
    {
      "inputs": [],
      "name": "numSigners",
      "outputs": [
        {
          "internalType": "uint256",
          "name": "",
          "type": "uint256"
        }
      ],
      "stateMutability": "view",
      "type": "function"
    },
    {
      "inputs": [],
      "name": "owner",
      "outputs": [
        {
          "internalType": "address",
          "name": "",
          "type": "address"
        }
      ],
      "stateMutability": "view",
      "type": "function"
    },
    {
      "inputs": [],
      "name": "paused",
      "outputs": [
        {
          "internalType": "bool",
          "name": "",
          "type": "bool"
        }
      ],
      "stateMutability": "view",
      "type": "function"
    },
    {
      "inputs": [
        {
          "internalType": "bytes32",
          "name": "transferId",
          "type": "bytes32"
        }
      ],
      "name": "refund",
      "outputs": [],
      "stateMutability": "nonpayable",
      "type": "function"
    },
    {
      "inputs": [],
      "name": "renounceOwnership",
      "outputs": [],
      "stateMutability": "nonpayable",
      "type": "function"
    },
    {
      "inputs": [
        {
          "internalType": "address",
          "name": "operator",
          "type": "address"
        },
        {
          "internalType": "bool",
          "name": "status",
          "type": "bool"
        }
      ],
      "name": "setEmergencyOperator",
      "outputs": [],
      "stateMutability": "nonpayable",
      "type": "function"
    },
    {
      "inputs": [
        {
          "internalType": "address",
          "name": "user",
          "type": "address"
        },
        {
          "internalType": "bool",
          "name": "exempt",
          "type": "bool"
        }
      ],
      "name": "setFeeExempt",
      "outputs": [],
      "stateMutability": "nonpayable",
      "type": "function"
    },
    {
      "inputs": [
        {
          "internalType": "address",
          "name": "_feeRecipient",
          "type": "address"
        }
      ],
      "name": "setFeeRecipient",
      "outputs": [],
      "stateMutability": "nonpayable",
      "type": "function"
    },
    {
      "inputs": [
        {
          "internalType": "address",
          "name": "validator",
          "type": "address"
        },
        {
          "internalType": "bool",
          "name": "isValid",
          "type": "bool"
        }
      ],
      "name": "setValidator",
      "outputs": [],
      "stateMutability": "nonpayable",
      "type": "function"
    },
    {
      "inputs": [
        {
          "internalType": "address",
          "name": "newOwner",
          "type": "address"
        }
      ],
      "name": "transferOwnership",
      "outputs": [],
      "stateMutability": "nonpayable",
      "type": "function"
    },
    {
      "inputs": [
        {
          "internalType": "bytes32",
          "name": "",
          "type": "bytes32"
        }
      ],
      "name": "transfers",
      "outputs": [
        {
          "internalType": "address",
          "name": "user",
          "type": "address"
        },
        {
          "internalType": "uint256",
          "name": "originalAmount",
          "type": "uint256"
        },
        {
          "internalType": "uint256",
          "name": "bridgedAmount",
          "type": "uint256"
        },
        {
          "internalType": "uint256",
          "name": "timestamp",
          "type": "uint256"
        },
        {
          "internalType": "enum SuperBridgeL2.Status",
          "name": "status",
          "type": "uint8"
        }
      ],
      "stateMutability": "view",
      "type": "function"
    },
    {
      "inputs": [],
      "name": "unpause",
      "outputs": [],
      "stateMutability": "nonpayable",
      "type": "function"
    },
    {
      "inputs": [
        {
          "internalType": "address",
          "name": "",
          "type": "address"
        }
      ],
      "name": "userNonces",
      "outputs": [
        {
          "internalType": "uint256",
          "name": "",
          "type": "uint256"
        }
      ],
      "stateMutability": "view",
      "type": "function"
    },
    {
      "inputs": [],
      "name": "version",
      "outputs": [
        {
          "internalType": "string",
          "name": "",
          "type": "string"
        }
      ],
      "stateMutability": "view",
      "type": "function"
    },
    {
      "stateMutability": "payable",
      "type": "receive"
    }
  ],
  "bytecode": "0x60806040523480156200001157600080fd5b5033600073ffffffffffffffffffffffffffffffffffffffff168173ffffffffffffffffffffffffffffffffffffffff1603620000885760006040517f1e4fbdf70000000000000000000000000000000000000000000000000000000081526004016200007f919062000339565b60405180910390fd5b62000099816200023060201b60201c565b5060018081905550620151806009819055506040518060400160405280600581526020017f312e302e30000000000000000000000000000000000000000000000000000000815250600b9081620000f19190620005d0565b506001600360007317cabc8001a30800835dd8206ceb0c4ba90b591373ffffffffffffffffffffffffffffffffffffffff1673ffffffffffffffffffffffffffffffffffffffff16815260200190815260200160002060006101000a81548160ff0219169083151502179055506001600660007373af5be3db46ce3b7c50fd833b9c60180f33944973ffffffffffffffffffffffffffffffffffffffff1673ffffffffffffffffffffffffffffffffffffffff16815260200190815260200160002060006101000a81548160ff02191690831515021790555060016007819055506001600860003373ffffffffffffffffffffffffffffffffffffffff1673ffffffffffffffffffffffffffffffffffffffff16815260200190815260200160002060006101000a81548160ff021916908315150217905550620006b7565b60008060009054906101000a900473ffffffffffffffffffffffffffffffffffffffff169050816000806101000a81548173ffffffffffffffffffffffffffffffffffffffff021916908373ffffffffffffffffffffffffffffffffffffffff1602179055508173ffffffffffffffffffffffffffffffffffffffff168173ffffffffffffffffffffffffffffffffffffffff167f8be0079c531659141344cd1fd0a4f28419497f9722a3daafe3b4186f6b6457e060405160405180910390a35050565b600073ffffffffffffffffffffffffffffffffffffffff82169050919050565b60006200032182620002f4565b9050919050565b620003338162000314565b82525050565b600060208201905062000350600083018462000328565b92915050565b600081519050919050565b7f4e487b7100000000000000000000000000000000000000000000000000000000600052604160045260246000fd5b7f4e487b7100000000000000000000000000000000000000000000000000000000600052602260045260246000fd5b60006002820490506001821680620003d857607f821691505b602082108103620003ee57620003ed62000390565b5b50919050565b60008190508160005260206000209050919050565b60006020601f8301049050919050565b600082821b905092915050565b600060088302620004587fffffffffffffffffffffffffffffffffffffffffffffffffffffffffffffffff8262000419565b62000464868362000419565b95508019841693508086168417925050509392505050565b6000819050919050565b6000819050919050565b6000620004b1620004ab620004a5846200047c565b62000486565b6200047c565b9050919050565b6000819050919050565b620004cd8362000490565b620004e5620004dc82620004b8565b84845462000426565b825550505050565b600090565b620004fc620004ed565b62000509818484620004c2565b505050565b5b81811015620005315762000525600082620004f2565b6001810190506200050f565b5050565b601f82111562000580576200054a81620003f4565b620005558462000409565b8101602085101562000565578190505b6200057d620005748562000409565b8301826200050e565b50505b505050565b600082821c905092915050565b6000620005a56000198460080262000585565b1980831691505092915050565b6000620005c0838362000592565b9150826002028217905092915050565b620005db8262000356565b67ffffffffffffffff811115620005f757620005f662000361565b5b620006038254620003bf565b6200061082828562000535565b600060209050601f83116001811462000648576000841562000633578287015190505b6200063f8582620005b2565b865550620006af565b601f1984166200065886620003f4565b60005b8281101562000682578489015182556001820191506020850194506020810190506200065b565b86831015620006a257848901516200069e601f89168262000592565b8355505b6001600288020188555050505b505050505050565b61323b80620006c76000396000f3fe6080604052600436106101fd5760003560e01c8063715018a61161010d578063ac856cea116100a0578063de9b94881161006f578063de9b948814610721578063e1a452181461074c578063e74b981b14610777578063e78cea92146107a0578063f2fde38b146107aa57610204565b8063ac856cea14610679578063bf333f2c14610690578063ca9e4453146106bb578063d5f50582146106e457610204565b8063838fb7f1116100dc578063838fb7f1146105ab5780638c8c2003146105e85780638da5cb5b146106255780638ebfc7961461065057610204565b8063715018a61461051557806372070b811461052c5780637249fbb6146105575780637d57900a1461058057610204565b80633c64f04b116101905780634623c91d1161015f5780634623c91d14610454578063469048401461047d57806351858e27146104a857806354fd4d50146104bf5780635c975abb146104ea57610204565b80633c64f04b146103815780633f4218e0146103c25780633f4ba83a146103ff578063400ba0691461041657610204565b80631a179692116101cc5780631a179692146102c5578063260958a5146102f05780632a8821cc1461032d5780632f7801f41461034457610204565b806302e888991461020957806309705de8146102325780630d8e6e2c1461026f57806312679fed1461029a57610204565b3661020457005b600080fd5b34801561021557600080fd5b50610230600480360381019061022b9190612723565b6107d3565b005b34801561023e57600080fd5b5061025960048036038101906102549190612763565b610884565b604051610266919061279f565b60405180910390f35b34801561027b57600080fd5b506102846108a4565b604051610291919061284a565b60405180910390f35b3480156102a657600080fd5b506102af610936565b6040516102bc9190612885565b60405180910390f35b3480156102d157600080fd5b506102da61093c565b6040516102e79190612885565b60405180910390f35b3480156102fc57600080fd5b50610317600480360381019061031291906128d6565b610941565b6040516103249190612a00565b60405180910390f35b34801561033957600080fd5b50610342610a1d565b005b34801561035057600080fd5b5061036b60048036038101906103669190612763565b610b53565b6040516103789190612885565b60405180910390f35b34801561038d57600080fd5b506103a860048036038101906103a391906128d6565b610b6b565b6040516103b9959493929190612a39565b60405180910390f35b3480156103ce57600080fd5b506103e960048036038101906103e49190612763565b610bce565b6040516103f6919061279f565b60405180910390f35b34801561040b57600080fd5b50610414610bee565b005b34801561042257600080fd5b5061043d60048036038101906104389190612ab8565b610c00565b60405161044b929190612af8565b60405180910390f35b34801561046057600080fd5b5061047b60048036038101906104769190612723565b610c94565b005b34801561048957600080fd5b50610492610e34565b60405161049f9190612b21565b60405180910390f35b3480156104b457600080fd5b506104bd610e5a565b005b3480156104cb57600080fd5b506104d4610ee7565b6040516104e1919061284a565b60405180910390f35b3480156104f657600080fd5b506104ff610f75565b60405161050c919061279f565b60405180910390f35b34801561052157600080fd5b5061052a610f8c565b005b34801561053857600080fd5b50610541610fa0565b60405161054e9190612885565b60405180910390f35b34801561056357600080fd5b5061057e600480360381019061057991906128d6565b610fa6565b005b34801561058c57600080fd5b50610595611228565b6040516105a29190612885565b60405180910390f35b3480156105b757600080fd5b506105d260048036038101906105cd91906128d6565b61122e565b6040516105df9190612885565b60405180910390f35b3480156105f457600080fd5b5061060f600480360381019061060a91906128d6565b61131a565b60405161061c919061279f565b60405180910390f35b34801561063157600080fd5b5061063a61143c565b6040516106479190612b21565b60405180910390f35b34801561065c57600080fd5b5061067760048036038101906106729190612723565b611465565b005b34801561068557600080fd5b5061068e611516565b005b34801561069c57600080fd5b506106a56115e8565b6040516106b29190612885565b60405180910390f35b3480156106c757600080fd5b506106e260048036038101906106dd9190612bf7565b6115ee565b005b3480156106f057600080fd5b5061070b60048036038101906107069190612763565b611c19565b604051610718919061279f565b60405180910390f35b34801561072d57600080fd5b50610736611c39565b6040516107439190612885565b60405180910390f35b34801561075857600080fd5b50610761611c3f565b60405161076e9190612885565b60405180910390f35b34801561078357600080fd5b5061079e60048036038101906107999190612763565b611c45565b005b6107a8611cf2565b005b3480156107b657600080fd5b506107d160048036038101906107cc9190612763565b611fa7565b005b6107db61202d565b80600860008473ffffffffffffffffffffffffffffffffffffffff1673ffffffffffffffffffffffffffffffffffffffff16815260200190815260200160002060006101000a81548160ff0219169083151502179055508173ffffffffffffffffffffffffffffffffffffffff167fb996d0053f97123248d7cdf421b1f745424b78ade3df5cf1002c6d8e65561d8382604051610878919061279f565b60405180910390a25050565b60086020528060005260406000206000915054906101000a900460ff1681565b6060600b80546108b390612cbb565b80601f01602080910402602001604051908101604052809291908181526020018280546108df90612cbb565b801561092c5780601f106109015761010080835404028352916020019161092c565b820191906000526020600020905b81548152906001019060200180831161090f57829003601f168201915b5050505050905090565b60075481565b600181565b61094961262c565b600560008381526020019081526020016000206040518060a00160405290816000820160009054906101000a900473ffffffffffffffffffffffffffffffffffffffff1673ffffffffffffffffffffffffffffffffffffffff1673ffffffffffffffffffffffffffffffffffffffff1681526020016001820154815260200160028201548152602001600382015481526020016004820160009054906101000a900460ff166002811115610a00576109ff612921565b5b6002811115610a1257610a11612921565b5b815250509050919050565b610a2561202d565b600a54421015610a61576040517fb6dd9f0000000000000000000000000000000000000000000000000000000000815260040160405180910390fd5b60004790506000610a7061143c565b73ffffffffffffffffffffffffffffffffffffffff1682604051610a9390612d1d565b60006040518083038185875af1925050503d8060008114610ad0576040519150601f19603f3d011682016040523d82523d6000602084013e610ad5565b606091505b5050905080610b10576040517f750b219c00000000000000000000000000000000000000000000000000000000815260040160405180910390fd5b6000600a819055507fa7d096069a26edbff974ac62b79d901783aa4bd4243483de31bf3ac923e88e5982604051610b479190612885565b60405180910390a15050565b60046020528060005260406000206000915090505481565b60056020528060005260406000206000915090508060000160009054906101000a900473ffffffffffffffffffffffffffffffffffffffff16908060010154908060020154908060030154908060040160009054906101000a900460ff16905085565b60036020528060005260406000206000915054906101000a900460ff1681565b610bf661202d565b610bfe6120b4565b565b600080600360008473ffffffffffffffffffffffffffffffffffffffff1673ffffffffffffffffffffffffffffffffffffffff16815260200190815260200160002060009054906101000a900460ff1615610c615760008491509150610c8d565b6127106101f485610c729190612d61565b610c7c9190612dd2565b91508184610c8a9190612e03565b90505b9250929050565b610c9c61202d565b808015610cf35750600660008373ffffffffffffffffffffffffffffffffffffffff1673ffffffffffffffffffffffffffffffffffffffff16815260200190815260200160002060009054906101000a900460ff16155b15610d155760076000815480929190610d0b90612e37565b9190505550610d8b565b80158015610d6c5750600660008373ffffffffffffffffffffffffffffffffffffffff1673ffffffffffffffffffffffffffffffffffffffff16815260200190815260200160002060009054906101000a900460ff165b15610d8a5760076000815480929190610d8490612e7f565b91905055505b5b80600660008473ffffffffffffffffffffffffffffffffffffffff1673ffffffffffffffffffffffffffffffffffffffff16815260200190815260200160002060006101000a81548160ff0219169083151502179055508173ffffffffffffffffffffffffffffffffffffffff167f763b63b30e91c843bb39e4379603697003d3b7c1f192619cd782fa33bdc4439682604051610e28919061279f565b60405180910390a25050565b600260019054906101000a900473ffffffffffffffffffffffffffffffffffffffff1681565b600860003373ffffffffffffffffffffffffffffffffffffffff1673ffffffffffffffffffffffffffffffffffffffff16815260200190815260200160002060009054906101000a900460ff16610edd576040517f6ea3b48f00000000000000000000000000000000000000000000000000000000815260040160405180910390fd5b610ee5612117565b565b600b8054610ef490612cbb565b80601f0160208091040260200160405190810160405280929190818152602001828054610f2090612cbb565b8015610f6d5780601f10610f4257610100808354040283529160200191610f6d565b820191906000526020600020905b815481529060010190602001808311610f5057829003601f168201915b505050505081565b6000600260009054906101000a900460ff16905090565b610f9461202d565b610f9e600061217a565b565b60095481565b610fae61223e565b600060056000838152602001908152602001600020905060006002811115610fd957610fd8612921565b5b8160040160009054906101000a900460ff166002811115610ffd57610ffc612921565b5b14611034576040517f3742d1f600000000000000000000000000000000000000000000000000000000815260040160405180910390fd5b3373ffffffffffffffffffffffffffffffffffffffff168160000160009054906101000a900473ffffffffffffffffffffffffffffffffffffffff1673ffffffffffffffffffffffffffffffffffffffff16146110bd576040517f3e87cffd00000000000000000000000000000000000000000000000000000000815260040160405180910390fd5b61070881600301546110cf9190612ea8565b4211611107576040517f0b4d698100000000000000000000000000000000000000000000000000000000815260040160405180910390fd5b60028160040160006101000a81548160ff0219169083600281111561112f5761112e612921565b5b021790555060008160010154905060003373ffffffffffffffffffffffffffffffffffffffff168260405161116390612d1d565b60006040518083038185875af1925050503d80600081146111a0576040519150601f19603f3d011682016040523d82523d6000602084013e6111a5565b606091505b50509050806111e0576040517ff0c49d4400000000000000000000000000000000000000000000000000000000815260040160405180910390fd5b837ff552ca82e113ac3c539c3d617f29fcd19c172a0c75dad017555c9e109f7fe1833384604051611212929190612edc565b60405180910390a2505050611225612284565b50565b61070881565b600080600560008481526020019081526020016000206040518060a00160405290816000820160009054906101000a900473ffffffffffffffffffffffffffffffffffffffff1673ffffffffffffffffffffffffffffffffffffffff1673ffffffffffffffffffffffffffffffffffffffff1681526020016001820154815260200160028201548152602001600382015481526020016004820160009054906101000a900460ff1660028111156112e8576112e7612921565b5b60028111156112fa576112f9612921565b5b81525050905061070881606001516113129190612ea8565b915050919050565b600080600560008481526020019081526020016000206040518060a00160405290816000820160009054906101000a900473ffffffffffffffffffffffffffffffffffffffff1673ffffffffffffffffffffffffffffffffffffffff1673ffffffffffffffffffffffffffffffffffffffff1681526020016001820154815260200160028201548152602001600382015481526020016004820160009054906101000a900460ff1660028111156113d4576113d3612921565b5b60028111156113e6576113e5612921565b5b81525050905060006002811115611400576113ff612921565b5b8160800151600281111561141757611416612921565b5b148015611434575061070881606001516114319190612ea8565b42115b915050919050565b60008060009054906101000a900473ffffffffffffffffffffffffffffffffffffffff16905090565b61146d61202d565b80600360008473ffffffffffffffffffffffffffffffffffffffff1673ffffffffffffffffffffffffffffffffffffffff16815260200190815260200160002060006101000a81548160ff0219169083151502179055508173ffffffffffffffffffffffffffffffffffffffff167f4d5771454588f51370a8a2e7e151354b6de0dc3159b14821b4ad76bc04c28bc78260405161150a919061279f565b60405180910390a25050565b600860003373ffffffffffffffffffffffffffffffffffffffff1673ffffffffffffffffffffffffffffffffffffffff16815260200190815260200160002060009054906101000a900460ff16611599576040517f6ea3b48f00000000000000000000000000000000000000000000000000000000815260040160405180910390fd5b600954426115a79190612ea8565b600a819055507f3cdaaaa0889822285645e1c79bcbd834c5dd93816b66671ab5a743ac0c53358e600a546040516115de9190612885565b60405180910390a1565b6101f481565b6115f661223e565b6115fe61228d565b60006005600087815260200190815260200160002090506000600281111561162957611628612921565b5b8160040160009054906101000a900460ff16600281111561164d5761164c612921565b5b14611684576040517f475a253500000000000000000000000000000000000000000000000000000000815260040160405180910390fd5b600073ffffffffffffffffffffffffffffffffffffffff168160000160009054906101000a900473ffffffffffffffffffffffffffffffffffffffff1673ffffffffffffffffffffffffffffffffffffffff160361170e576040517f3b2a862c00000000000000000000000000000000000000000000000000000000815260040160405180910390fd5b82829050858590501461174d576040517f815e1d6400000000000000000000000000000000000000000000000000000000815260040160405180910390fd5b600185859050101561178b576040517fe246dc6300000000000000000000000000000000000000000000000000000000815260040160405180910390fd5b6000868260000160009054906101000a900473ffffffffffffffffffffffffffffffffffffffff168360020154306040516020016117cc9493929190612f8f565b60405160208183030381529060405280519060200120905060006117ef826122ce565b905060008585905067ffffffffffffffff8111156118105761180f612fdd565b5b60405190808252806020026020018201604052801561183e5781602001602082028036833780820191505090505b50905060005b88889050811015611ac75760006118c2848b8b858181106118685761186761300c565b5b905060200281019061187a919061304a565b8080601f016020809104026020016040519081016040528093929190818152602001838380828437600081840152601f19601f82011690508083019250505050505050612304565b90508787838181106118d7576118d661300c565b5b90506020020160208101906118ec9190612763565b73ffffffffffffffffffffffffffffffffffffffff168173ffffffffffffffffffffffffffffffffffffffff1614611950576040517f815e1d6400000000000000000000000000000000000000000000000000000000815260040160405180910390fd5b600660008273ffffffffffffffffffffffffffffffffffffffff1673ffffffffffffffffffffffffffffffffffffffff16815260200190815260200160002060009054906101000a900460ff166119d3576040517f54ac7bfc00000000000000000000000000000000000000000000000000000000815260040160405180910390fd5b60005b82811015611a6a578173ffffffffffffffffffffffffffffffffffffffff16848281518110611a0857611a0761300c565b5b602002602001015173ffffffffffffffffffffffffffffffffffffffff1603611a5d576040517f8044bb3300000000000000000000000000000000000000000000000000000000815260040160405180910390fd5b80806001019150506119d6565b5080838381518110611a7f57611a7e61300c565b5b602002602001019073ffffffffffffffffffffffffffffffffffffffff16908173ffffffffffffffffffffffffffffffffffffffff1681525050508080600101915050611844565b5060018460040160006101000a81548160ff02191690836002811115611af057611aef612921565b5b02179055506000611aff61143c565b73ffffffffffffffffffffffffffffffffffffffff168560010154604051611b2690612d1d565b60006040518083038185875af1925050503d8060008114611b63576040519150601f19603f3d011682016040523d82523d6000602084013e611b68565b606091505b5050905080611ba3576040517f096dc0e100000000000000000000000000000000000000000000000000000000815260040160405180910390fd5b897f3a5e0271cd79026f0993aa13e6dd17d1f34284aa2340c1d2c33653b9a4433ee98660000160009054906101000a900473ffffffffffffffffffffffffffffffffffffffff168760020154604051611bfd929190612edc565b60405180910390a25050505050611c12612284565b5050505050565b60066020528060005260406000206000915054906101000a900460ff1681565b600a5481565b61271081565b611c4d61202d565b6000600260019054906101000a900473ffffffffffffffffffffffffffffffffffffffff16905081600260016101000a81548173ffffffffffffffffffffffffffffffffffffffff021916908373ffffffffffffffffffffffffffffffffffffffff1602179055507faaebcf1bfa00580e41d966056b48521fa9f202645c86d4ddf28113e617c1b1d38183604051611ce69291906130ad565b60405180910390a15050565b611cfa61223e565b611d0261228d565b60003403611d3c576040517f2c5211c600000000000000000000000000000000000000000000000000000000815260040160405180910390fd5b600080349050600360003373ffffffffffffffffffffffffffffffffffffffff1673ffffffffffffffffffffffffffffffffffffffff16815260200190815260200160002060009054906101000a900460ff16611dbf576127106101f434611da49190612d61565b611dae9190612dd2565b91508134611dbc9190612e03565b90505b6000600460003373ffffffffffffffffffffffffffffffffffffffff1673ffffffffffffffffffffffffffffffffffffffff1681526020019081526020016000206000815480929190611e1190612e37565b91905055905060003334428430604051602001611e329594939291906130d6565b6040516020818303038152906040528051906020012090506040518060a001604052803373ffffffffffffffffffffffffffffffffffffffff16815260200134815260200184815260200142815260200160006002811115611e9757611e96612921565b5b8152506005600083815260200190815260200160002060008201518160000160006101000a81548173ffffffffffffffffffffffffffffffffffffffff021916908373ffffffffffffffffffffffffffffffffffffffff16021790555060208201518160010155604082015181600201556060820151816003015560808201518160040160006101000a81548160ff02191690836002811115611f3d57611f3c612921565b5b02179055509050503373ffffffffffffffffffffffffffffffffffffffff167f719ab00511e884d1ea4921ee843132435dc006b0bb7f8b67fb693b621e45bb5334858442604051611f919493929190613144565b60405180910390a250505050611fa5612284565b565b611faf61202d565b600073ffffffffffffffffffffffffffffffffffffffff168173ffffffffffffffffffffffffffffffffffffffff16036120215760006040517f1e4fbdf70000000000000000000000000000000000000000000000000000000081526004016120189190612b21565b60405180910390fd5b61202a8161217a565b50565b612035612330565b73ffffffffffffffffffffffffffffffffffffffff1661205361143c565b73ffffffffffffffffffffffffffffffffffffffff16146120b257612076612330565b6040517f118cdaa70000000000000000000000000000000000000000000000000000000081526004016120a99190612b21565b60405180910390fd5b565b6120bc612338565b6000600260006101000a81548160ff0219169083151502179055507f5db9ee0a495bf2e6ff9c91a7834c1ba4fdd244a5e8aa4e537bd38aeae4b073aa612100612330565b60405161210d9190612b21565b60405180910390a1565b61211f61228d565b6001600260006101000a81548160ff0219169083151502179055507f62e78cea01bee320cd4e420270b5ea74000d11b0c9f74754ebdbfc544b05a258612163612330565b6040516121709190612b21565b60405180910390a1565b60008060009054906101000a900473ffffffffffffffffffffffffffffffffffffffff169050816000806101000a81548173ffffffffffffffffffffffffffffffffffffffff021916908373ffffffffffffffffffffffffffffffffffffffff1602179055508173ffffffffffffffffffffffffffffffffffffffff168173ffffffffffffffffffffffffffffffffffffffff167f8be0079c531659141344cd1fd0a4f28419497f9722a3daafe3b4186f6b6457e060405160405180910390a35050565b60026001540361227a576040517f3ee5aeb500000000000000000000000000000000000000000000000000000000815260040160405180910390fd5b6002600181905550565b60018081905550565b612295610f75565b156122cc576040517fd93c066500000000000000000000000000000000000000000000000000000000815260040160405180910390fd5b565b60007f19457468657265756d205369676e6564204d6573736167653a0a33320000000060005281601c52603c6000209050919050565b6000806000806123148686612378565b92509250925061232482826123d4565b82935050505092915050565b600033905090565b612340610f75565b612376576040517f8dfc202b00000000000000000000000000000000000000000000000000000000815260040160405180910390fd5b565b600080600060418451036123bd5760008060006020870151925060408701519150606087015160001a90506123af88828585612538565b9550955095505050506123cd565b60006002855160001b9250925092505b9250925092565b600060038111156123e8576123e7612921565b5b8260038111156123fb576123fa612921565b5b0315612534576001600381111561241557612414612921565b5b82600381111561242857612427612921565b5b0361245f576040517ff645eedf00000000000000000000000000000000000000000000000000000000815260040160405180910390fd5b6002600381111561247357612472612921565b5b82600381111561248657612485612921565b5b036124cb578060001c6040517ffce698f70000000000000000000000000000000000000000000000000000000081526004016124c29190612885565b60405180910390fd5b6003808111156124de576124dd612921565b5b8260038111156124f1576124f0612921565b5b0361253357806040517fd78bce0c00000000000000000000000000000000000000000000000000000000815260040161252a9190613189565b60405180910390fd5b5b5050565b60008060007f7fffffffffffffffffffffffffffffff5d576e7357a4501ddfe92f46681b20a08460001c1115612578576000600385925092509250612622565b60006001888888886040516000815260200160405260405161259d94939291906131c0565b6020604051602081039080840390855afa1580156125bf573d6000803e3d6000fd5b505050602060405103519050600073ffffffffffffffffffffffffffffffffffffffff168173ffffffffffffffffffffffffffffffffffffffff160361261357600060016000801b93509350935050612622565b8060008060001b935093509350505b9450945094915050565b6040518060a00160405280600073ffffffffffffffffffffffffffffffffffffffff1681526020016000815260200160008152602001600081526020016000600281111561267d5761267c612921565b5b81525090565b600080fd5b600080fd5b600073ffffffffffffffffffffffffffffffffffffffff82169050919050565b60006126b88261268d565b9050919050565b6126c8816126ad565b81146126d357600080fd5b50565b6000813590506126e5816126bf565b92915050565b60008115159050919050565b612700816126eb565b811461270b57600080fd5b50565b60008135905061271d816126f7565b92915050565b6000806040838503121561273a57612739612683565b5b6000612748858286016126d6565b92505060206127598582860161270e565b9150509250929050565b60006020828403121561277957612778612683565b5b6000612787848285016126d6565b91505092915050565b612799816126eb565b82525050565b60006020820190506127b46000830184612790565b92915050565b600081519050919050565b600082825260208201905092915050565b60005b838110156127f45780820151818401526020810190506127d9565b60008484015250505050565b6000601f19601f8301169050919050565b600061281c826127ba565b61282681856127c5565b93506128368185602086016127d6565b61283f81612800565b840191505092915050565b600060208201905081810360008301526128648184612811565b905092915050565b6000819050919050565b61287f8161286c565b82525050565b600060208201905061289a6000830184612876565b92915050565b6000819050919050565b6128b3816128a0565b81146128be57600080fd5b50565b6000813590506128d0816128aa565b92915050565b6000602082840312156128ec576128eb612683565b5b60006128fa848285016128c1565b91505092915050565b61290c816126ad565b82525050565b61291b8161286c565b82525050565b7f4e487b7100000000000000000000000000000000000000000000000000000000600052602160045260246000fd5b6003811061296157612960612921565b5b50565b600081905061297282612950565b919050565b600061298282612964565b9050919050565b61299281612977565b82525050565b60a0820160008201516129ae6000850182612903565b5060208201516129c16020850182612912565b5060408201516129d46040850182612912565b5060608201516129e76060850182612912565b5060808201516129fa6080850182612989565b50505050565b600060a082019050612a156000830184612998565b92915050565b612a24816126ad565b82525050565b612a3381612977565b82525050565b600060a082019050612a4e6000830188612a1b565b612a5b6020830187612876565b612a686040830186612876565b612a756060830185612876565b612a826080830184612a2a565b9695505050505050565b612a958161286c565b8114612aa057600080fd5b50565b600081359050612ab281612a8c565b92915050565b60008060408385031215612acf57612ace612683565b5b6000612add85828601612aa3565b9250506020612aee858286016126d6565b9150509250929050565b6000604082019050612b0d6000830185612876565b612b1a6020830184612876565b9392505050565b6000602082019050612b366000830184612a1b565b92915050565b600080fd5b600080fd5b600080fd5b60008083601f840112612b6157612b60612b3c565b5b8235905067ffffffffffffffff811115612b7e57612b7d612b41565b5b602083019150836020820283011115612b9a57612b99612b46565b5b9250929050565b60008083601f840112612bb757612bb6612b3c565b5b8235905067ffffffffffffffff811115612bd457612bd3612b41565b5b602083019150836020820283011115612bf057612bef612b46565b5b9250929050565b600080600080600060608688031215612c1357612c12612683565b5b6000612c21888289016128c1565b955050602086013567ffffffffffffffff811115612c4257612c41612688565b5b612c4e88828901612b4b565b9450945050604086013567ffffffffffffffff811115612c7157612c70612688565b5b612c7d88828901612ba1565b92509250509295509295909350565b7f4e487b7100000000000000000000000000000000000000000000000000000000600052602260045260246000fd5b60006002820490506001821680612cd357607f821691505b602082108103612ce657612ce5612c8c565b5b50919050565b600081905092915050565b50565b6000612d07600083612cec565b9150612d1282612cf7565b600082019050919050565b6000612d2882612cfa565b9150819050919050565b7f4e487b7100000000000000000000000000000000000000000000000000000000600052601160045260246000fd5b6000612d6c8261286c565b9150612d778361286c565b9250828202612d858161286c565b91508282048414831517612d9c57612d9b612d32565b5b5092915050565b7f4e487b7100000000000000000000000000000000000000000000000000000000600052601260045260246000fd5b6000612ddd8261286c565b9150612de88361286c565b925082612df857612df7612da3565b5b828204905092915050565b6000612e0e8261286c565b9150612e198361286c565b9250828203905081811115612e3157612e30612d32565b5b92915050565b6000612e428261286c565b91507fffffffffffffffffffffffffffffffffffffffffffffffffffffffffffffffff8203612e7457612e73612d32565b5b600182019050919050565b6000612e8a8261286c565b915060008203612e9d57612e9c612d32565b5b600182039050919050565b6000612eb38261286c565b9150612ebe8361286c565b9250828201905080821115612ed657612ed5612d32565b5b92915050565b6000604082019050612ef16000830185612a1b565b612efe6020830184612876565b9392505050565b6000819050919050565b612f20612f1b826128a0565b612f05565b82525050565b60008160601b9050919050565b6000612f3e82612f26565b9050919050565b6000612f5082612f33565b9050919050565b612f68612f63826126ad565b612f45565b82525050565b6000819050919050565b612f89612f848261286c565b612f6e565b82525050565b6000612f9b8287612f0f565b602082019150612fab8286612f57565b601482019150612fbb8285612f78565b602082019150612fcb8284612f57565b60148201915081905095945050505050565b7f4e487b7100000000000000000000000000000000000000000000000000000000600052604160045260246000fd5b7f4e487b7100000000000000000000000000000000000000000000000000000000600052603260045260246000fd5b600080fd5b600080fd5b600080fd5b600080833560016020038436030381126130675761306661303b565b5b80840192508235915067ffffffffffffffff82111561308957613088613040565b5b6020830192506001820236038313156130a5576130a4613045565b5b509250929050565b60006040820190506130c26000830185612a1b565b6130cf6020830184612a1b565b9392505050565b60006130e28288612f57565b6014820191506130f28287612f78565b6020820191506131028286612f78565b6020820191506131128285612f78565b6020820191506131228284612f57565b6014820191508190509695505050505050565b61313e816128a0565b82525050565b60006080820190506131596000830187612876565b6131666020830186612876565b6131736040830185613135565b6131806060830184612876565b95945050505050565b600060208201905061319e6000830184613135565b92915050565b600060ff82169050919050565b6131ba816131a4565b82525050565b60006080820190506131d56000830187613135565b6131e260208301866131b1565b6131ef6040830185613135565b6131fc6060830184613135565b9594505050505056fea2646970667358221220462cbaa97a0339aed9041686d2d59ef769ad8bc83ff1710de602f90b7f1ab61e64736f6c63430008160033",
  "linkReferences": {},
  "deployedLinkReferences": {}
}