{
  "_format": "hh-sol-artifact-1",
  "contractName": "SuperBridgeL2",
  "sourceName": "contracts/SuperBridgeL2.sol",
  "abi": [
    {
      "inputs": [],
      "stateMutability": "nonpayable",
      "type": "constructor"
    },
    {
      "inputs": [],
      "name": "AlreadyFinalized",
      "type": "error"
    },
    {
      "inputs": [],
      "name": "DuplicateSigner",
      "type": "error"
    },
    {
      "inputs": [],
      "name": "ECDSAInvalidSignature",
      "type": "error"
    },
    {
      "inputs": [
        {
          "internalType": "uint256",
          "name": "length",
          "type": "uint256"
        }
      ],
      "name": "ECDSAInvalidSignatureLength",
      "type": "error"
    },
    {
      "inputs": [
        {
          "internalType": "bytes32",
          "name": "s",
          "type": "bytes32"
        }
      ],
      "name": "ECDSAInvalidSignatureS",
      "type": "error"
    },
    {
      "inputs": [],
      "name": "EmergencyNotReady",
      "type": "error"
    },
    {
      "inputs": [],
      "name": "EnforcedPause",
      "type": "error"
    },
    {
      "inputs": [],
      "name": "ExpectedPause",
      "type": "error"
    },
    {
      "inputs": [],
      "name": "ForwardFailed",
      "type": "error"
    },
    {
      "inputs": [],
      "name": "InvalidAmount",
      "type": "error"
    },
    {
      "inputs": [],
      "name": "InvalidSigner",
      "type": "error"
    },
    {
      "inputs": [],
      "name": "InvalidTransferId",
      "type": "error"
    },
    {
      "inputs": [],
      "name": "NotAuthorized",
      "type": "error"
    },
    {
      "inputs": [],
      "name": "NotAuthorizedSigner",
      "type": "error"
    },
    {
      "inputs": [],
      "name": "NotEmergencyOperator",
      "type": "error"
    },
    {
      "inputs": [],
      "name": "NotEnoughSignatures",
      "type": "error"
    },
    {
      "inputs": [],
      "name": "NotRefundable",
      "type": "error"
    },
    {
      "inputs": [],
      "name": "NotYourTransfer",
      "type": "error"
    },
    {
      "inputs": [
        {
          "internalType": "address",
          "name": "owner",
          "type": "address"
        }
      ],
      "name": "OwnableInvalidOwner",
      "type": "error"
    },
    {
      "inputs": [
        {
          "internalType": "address",
          "name": "account",
          "type": "address"
        }
      ],
      "name": "OwnableUnauthorizedAccount",
      "type": "error"
    },
    {
      "inputs": [],
      "name": "ReentrancyGuardReentrantCall",
      "type": "error"
    },
    {
      "inputs": [],
      "name": "RefundFailed",
      "type": "error"
    },
    {
      "inputs": [],
      "name": "RefundNotAvailable",
      "type": "error"
    },
    {
      "inputs": [],
      "name": "WithdrawFailed",
      "type": "error"
    },
    {
      "anonymous": false,
      "inputs": [
        {
          "indexed": true,
          "internalType": "bytes32",
          "name": "transferId",
          "type": "bytes32"
        },
        {
          "indexed": false,
          "internalType": "address",
          "name": "user",
          "type": "address"
        },
        {
          "indexed": false,
          "internalType": "uint256",
          "name": "bridgedAmount",
          "type": "uint256"
        }
      ],
      "name": "BridgeCompleted",
      "type": "event"
    },
    {
      "anonymous": false,
      "inputs": [
        {
          "indexed": true,
          "internalType": "address",
          "name": "user",
          "type": "address"
        },
        {
          "indexed": false,
          "internalType": "uint256",
          "name": "originalAmount",
          "type": "uint256"
        },
        {
          "indexed": false,
          "internalType": "uint256",
          "name": "bridgedAmount",
          "type": "uint256"
        },
        {
          "indexed": false,
          "internalType": "bytes32",
          "name": "transferId",
          "type": "bytes32"
        },
        {
          "indexed": false,
          "internalType": "uint256",
          "name": "timestamp",
          "type": "uint256"
        }
      ],
      "name": "BridgeInitiated",
      "type": "event"
    },
    {
      "anonymous": false,
      "inputs": [
        {
          "indexed": true,
          "internalType": "address",
          "name": "operator",
          "type": "address"
        },
        {
          "indexed": false,
          "internalType": "bool",
          "name": "status",
          "type": "bool"
        }
      ],
      "name": "EmergencyOperatorUpdated",
      "type": "event"
    },
    {
      "anonymous": false,
      "inputs": [
        {
          "indexed": false,
          "internalType": "uint256",
          "name": "amount",
          "type": "uint256"
        }
      ],
      "name": "EmergencyWithdrawExecuted",
      "type": "event"
    },
    {
      "anonymous": false,
      "inputs": [
        {
          "indexed": false,
          "internalType": "uint256",
          "name": "executeTime",
          "type": "uint256"
        }
      ],
      "name": "EmergencyWithdrawInitiated",
      "type": "event"
    },
    {
      "anonymous": false,
      "inputs": [
        {
          "indexed": true,
          "internalType": "address",
          "name": "user",
          "type": "address"
        },
        {
          "indexed": false,
          "internalType": "bool",
          "name": "exempt",
          "type": "bool"
        }
      ],
      "name": "FeeExemptUpdated",
      "type": "event"
    },
    {
      "anonymous": false,
      "inputs": [
        {
          "indexed": false,
          "internalType": "address",
          "name": "oldRecipient",
          "type": "address"
        },
        {
          "indexed": false,
          "internalType": "address",
          "name": "newRecipient",
          "type": "address"
        }
      ],
      "name": "FeeRecipientUpdated",
      "type": "event"
    },
    {
      "anonymous": false,
      "inputs": [
        {
          "indexed": true,
          "internalType": "address",
          "name": "previousOwner",
          "type": "address"
        },
        {
          "indexed": true,
          "internalType": "address",
          "name": "newOwner",
          "type": "address"
        }
      ],
      "name": "OwnershipTransferred",
      "type": "event"
    },
    {
      "anonymous": false,
      "inputs": [
        {
          "indexed": false,
          "internalType": "address",
          "name": "account",
          "type": "address"
        }
      ],
      "name": "Paused",
      "type": "event"
    },
    {
      "anonymous": false,
      "inputs": [
        {
          "indexed": true,
          "internalType": "bytes32",
          "name": "transferId",
          "type": "bytes32"
        },
        {
          "indexed": false,
          "internalType": "address",
          "name": "user",
          "type": "address"
        },
        {
          "indexed": false,
          "internalType": "uint256",
          "name": "amount",
          "type": "uint256"
        }
      ],
      "name": "Refunded",
      "type": "event"
    },
    {
      "anonymous": false,
      "inputs": [
        {
          "indexed": false,
          "internalType": "address",
          "name": "account",
          "type": "address"
        }
      ],
      "name": "Unpaused",
      "type": "event"
    },
    {
      "anonymous": false,
      "inputs": [
        {
          "indexed": true,
          "internalType": "address",
          "name": "validator",
          "type": "address"
        },
        {
          "indexed": false,
          "internalType": "bool",
          "name": "isValid",
          "type": "bool"
        }
      ],
      "name": "ValidatorUpdated",
      "type": "event"
    },
    {
      "inputs": [],
      "name": "BPS_DENOMINATOR",
      "outputs": [
        {
          "internalType": "uint256",
          "name": "",
          "type": "uint256"
        }
      ],
      "stateMutability": "view",
      "type": "function"
    },
    {
      "inputs": [],
      "name": "FEE_BPS",
      "outputs": [
        {
          "internalType": "uint256",
          "name": "",
          "type": "uint256"
        }
      ],
      "stateMutability": "view",
      "type": "function"
    },
    {
      "inputs": [],
      "name": "MIN_SIGNATURES",
      "outputs": [
        {
          "internalType": "uint256",
          "name": "",
          "type": "uint256"
        }
      ],
      "stateMutability": "view",
      "type": "function"
    },
    {
      "inputs": [],
      "name": "REFUND_TIMEOUT",
      "outputs": [
        {
          "internalType": "uint256",
          "name": "",
          "type": "uint256"
        }
      ],
      "stateMutability": "view",
      "type": "function"
    },
    {
      "inputs": [],
      "name": "bridge",
      "outputs": [],
      "stateMutability": "payable",
      "type": "function"
    },
    {
      "inputs": [
        {
          "internalType": "uint256",
          "name": "amount",
          "type": "uint256"
        },
        {
          "internalType": "address",
          "name": "user",
          "type": "address"
        }
      ],
      "name": "calculateFee",
      "outputs": [
        {
          "internalType": "uint256",
          "name": "fee",
          "type": "uint256"
        },
        {
          "internalType": "uint256",
          "name": "bridged",
          "type": "uint256"
        }
      ],
      "stateMutability": "view",
      "type": "function"
    },
    {
      "inputs": [
        {
          "internalType": "bytes32",
          "name": "transferId",
          "type": "bytes32"
        }
      ],
      "name": "canRefund",
      "outputs": [
        {
          "internalType": "bool",
          "name": "",
          "type": "bool"
        }
      ],
      "stateMutability": "view",
      "type": "function"
    },
    {
      "inputs": [
        {
          "internalType": "bytes32",
          "name": "transferId",
          "type": "bytes32"
        },
        {
          "internalType": "bytes[]",
          "name": "signatures",
          "type": "bytes[]"
        },
        {
          "internalType": "address[]",
          "name": "signers",
          "type": "address[]"
        }
      ],
      "name": "complete",
      "outputs": [],
      "stateMutability": "nonpayable",
      "type": "function"
    },
    {
      "inputs": [
        {
          "internalType": "address",
          "name": "",
          "type": "address"
        }
      ],
      "name": "emergencyOperators",
      "outputs": [
        {
          "internalType": "bool",
          "name": "",
          "type": "bool"
        }
      ],
      "stateMutability": "view",
      "type": "function"
    },
    {
      "inputs": [],
      "name": "emergencyPause",
      "outputs": [],
      "stateMutability": "nonpayable",
      "type": "function"
    },
    {
      "inputs": [],
      "name": "emergencyWithdrawDelay",
      "outputs": [
        {
          "internalType": "uint256",
          "name": "",
          "type": "uint256"
        }
      ],
      "stateMutability": "view",
      "type": "function"
    },
    {
      "inputs": [],
      "name": "emergencyWithdrawTime",
      "outputs": [
        {
          "internalType": "uint256",
          "name": "",
          "type": "uint256"
        }
      ],
      "stateMutability": "view",
      "type": "function"
    },
    {
      "inputs": [],
      "name": "executeEmergencyWithdraw",
      "outputs": [],
      "stateMutability": "nonpayable",
      "type": "function"
    },
    {
      "inputs": [],
      "name": "feeRecipient",
      "outputs": [
        {
          "internalType": "address",
          "name": "",
          "type": "address"
        }
      ],
      "stateMutability": "view",
      "type": "function"
    },
    {
      "inputs": [
        {
          "internalType": "bytes32",
          "name": "transferId",
          "type": "bytes32"
        }
      ],
      "name": "getRefundTime",
      "outputs": [
        {
          "internalType": "uint256",
          "name": "",
          "type": "uint256"
        }
      ],
      "stateMutability": "view",
      "type": "function"
    },
    {
      "inputs": [
        {
          "internalType": "bytes32",
          "name": "transferId",
          "type": "bytes32"
        }
      ],
      "name": "getTransfer",
      "outputs": [
        {
          "components": [
            {
              "internalType": "address",
              "name": "user",
              "type": "address"
            },
            {
              "internalType": "uint256",
              "name": "originalAmount",
              "type": "uint256"
            },
            {
              "internalType": "uint256",
              "name": "bridgedAmount",
              "type": "uint256"
            },
            {
              "internalType": "uint256",
              "name": "timestamp",
              "type": "uint256"
            },
            {
              "internalType": "enum SuperBridgeL2.Status",
              "name": "status",
              "type": "uint8"
            }
          ],
          "internalType": "struct SuperBridgeL2.Transfer",
          "name": "",
          "type": "tuple"
        }
      ],
      "stateMutability": "view",
      "type": "function"
    },
    {
      "inputs": [],
      "name": "getVersion",
      "outputs": [
        {
          "internalType": "string",
          "name": "",
          "type": "string"
        }
      ],
      "stateMutability": "view",
      "type": "function"
    },
    {
      "inputs": [],
      "name": "initiateEmergencyWithdraw",
      "outputs": [],
      "stateMutability": "nonpayable",
      "type": "function"
    },
    {
      "inputs": [
        {
          "internalType": "address",
          "name": "",
          "type": "address"
        }
      ],
      "name": "isFeeExempt",
      "outputs": [
        {
          "internalType": "bool",
          "name": "",
          "type": "bool"
        }
      ],
      "stateMutability": "view",
      "type": "function"
    },
    {
      "inputs": [
        {
          "internalType": "address",
          "name": "",
          "type": "address"
        }
      ],
      "name": "isValidSigner",
      "outputs": [
        {
          "internalType": "bool",
          "name": "",
          "type": "bool"
        }
      ],
      "stateMutability": "view",
      "type": "function"
    },
    {
      "inputs": [],
      "name": "numSigners",
      "outputs": [
        {
          "internalType": "uint256",
          "name": "",
          "type": "uint256"
        }
      ],
      "stateMutability": "view",
      "type": "function"
    },
    {
      "inputs": [],
      "name": "owner",
      "outputs": [
        {
          "internalType": "address",
          "name": "",
          "type": "address"
        }
      ],
      "stateMutability": "view",
      "type": "function"
    },
    {
      "inputs": [],
      "name": "paused",
      "outputs": [
        {
          "internalType": "bool",
          "name": "",
          "type": "bool"
        }
      ],
      "stateMutability": "view",
      "type": "function"
    },
    {
      "inputs": [
        {
          "internalType": "bytes32",
          "name": "transferId",
          "type": "bytes32"
        }
      ],
      "name": "refund",
      "outputs": [],
      "stateMutability": "nonpayable",
      "type": "function"
    },
    {
      "inputs": [],
      "name": "renounceOwnership",
      "outputs": [],
      "stateMutability": "nonpayable",
      "type": "function"
    },
    {
      "inputs": [
        {
          "internalType": "address",
          "name": "operator",
          "type": "address"
        },
        {
          "internalType": "bool",
          "name": "status",
          "type": "bool"
        }
      ],
      "name": "setEmergencyOperator",
      "outputs": [],
      "stateMutability": "nonpayable",
      "type": "function"
    },
    {
      "inputs": [
        {
          "internalType": "address",
          "name": "user",
          "type": "address"
        },
        {
          "internalType": "bool",
          "name": "exempt",
          "type": "bool"
        }
      ],
      "name": "setFeeExempt",
      "outputs": [],
      "stateMutability": "nonpayable",
      "type": "function"
    },
    {
      "inputs": [
        {
          "internalType": "address",
          "name": "_feeRecipient",
          "type": "address"
        }
      ],
      "name": "setFeeRecipient",
      "outputs": [],
      "stateMutability": "nonpayable",
      "type": "function"
    },
    {
      "inputs": [
        {
          "internalType": "address",
          "name": "validator",
          "type": "address"
        },
        {
          "internalType": "bool",
          "name": "isValid",
          "type": "bool"
        }
      ],
      "name": "setValidator",
      "outputs": [],
      "stateMutability": "nonpayable",
      "type": "function"
    },
    {
      "inputs": [
        {
          "internalType": "address",
          "name": "newOwner",
          "type": "address"
        }
      ],
      "name": "transferOwnership",
      "outputs": [],
      "stateMutability": "nonpayable",
      "type": "function"
    },
    {
      "inputs": [
        {
          "internalType": "bytes32",
          "name": "",
          "type": "bytes32"
        }
      ],
      "name": "transfers",
      "outputs": [
        {
          "internalType": "address",
          "name": "user",
          "type": "address"
        },
        {
          "internalType": "uint256",
          "name": "originalAmount",
          "type": "uint256"
        },
        {
          "internalType": "uint256",
          "name": "bridgedAmount",
          "type": "uint256"
        },
        {
          "internalType": "uint256",
          "name": "timestamp",
          "type": "uint256"
        },
        {
          "internalType": "enum SuperBridgeL2.Status",
          "name": "status",
          "type": "uint8"
        }
      ],
      "stateMutability": "view",
      "type": "function"
    },
    {
      "inputs": [],
      "name": "unpause",
      "outputs": [],
      "stateMutability": "nonpayable",
      "type": "function"
    },
    {
      "inputs": [
        {
          "internalType": "address",
          "name": "",
          "type": "address"
        }
      ],
      "name": "userNonces",
      "outputs": [
        {
          "internalType": "uint256",
          "name": "",
          "type": "uint256"
        }
      ],
      "stateMutability": "view",
      "type": "function"
    },
    {
      "inputs": [],
      "name": "version",
      "outputs": [
        {
          "internalType": "string",
          "name": "",
          "type": "string"
        }
      ],
      "stateMutability": "view",
      "type": "function"
    },
    {
      "stateMutability": "payable",
      "type": "receive"
    }
  ],
  "bytecode": "0x60806040523480156200001157600080fd5b5033600073ffffffffffffffffffffffffffffffffffffffff168173ffffffffffffffffffffffffffffffffffffffff1603620000885760006040517f1e4fbdf70000000000000000000000000000000000000000000000000000000081526004016200007f919062000339565b60405180910390fd5b62000099816200023060201b60201c565b5060018081905550620151806009819055506040518060400160405280600581526020017f312e302e30000000000000000000000000000000000000000000000000000000815250600b9081620000f19190620005d0565b506001600360007317cabc8001a30800835dd8206ceb0c4ba90b591373ffffffffffffffffffffffffffffffffffffffff1673ffffffffffffffffffffffffffffffffffffffff16815260200190815260200160002060006101000a81548160ff0219169083151502179055506001600660007373af5be3db46ce3b7c50fd833b9c60180f33944973ffffffffffffffffffffffffffffffffffffffff1673ffffffffffffffffffffffffffffffffffffffff16815260200190815260200160002060006101000a81548160ff02191690831515021790555060016007819055506001600860003373ffffffffffffffffffffffffffffffffffffffff1673ffffffffffffffffffffffffffffffffffffffff16815260200190815260200160002060006101000a81548160ff021916908315150217905550620006b7565b60008060009054906101000a900473ffffffffffffffffffffffffffffffffffffffff169050816000806101000a81548173ffffffffffffffffffffffffffffffffffffffff021916908373ffffffffffffffffffffffffffffffffffffffff1602179055508173ffffffffffffffffffffffffffffffffffffffff168173ffffffffffffffffffffffffffffffffffffffff167f8be0079c531659141344cd1fd0a4f28419497f9722a3daafe3b4186f6b6457e060405160405180910390a35050565b600073ffffffffffffffffffffffffffffffffffffffff82169050919050565b60006200032182620002f4565b9050919050565b620003338162000314565b82525050565b600060208201905062000350600083018462000328565b92915050565b600081519050919050565b7f4e487b7100000000000000000000000000000000000000000000000000000000600052604160045260246000fd5b7f4e487b7100000000000000000000000000000000000000000000000000000000600052602260045260246000fd5b60006002820490506001821680620003d857607f821691505b602082108103620003ee57620003ed62000390565b5b50919050565b60008190508160005260206000209050919050565b60006020601f8301049050919050565b600082821b905092915050565b600060088302620004587fffffffffffffffffffffffffffffffffffffffffffffffffffffffffffffffff8262000419565b62000464868362000419565b95508019841693508086168417925050509392505050565b6000819050919050565b6000819050919050565b6000620004b1620004ab620004a5846200047c565b62000486565b6200047c565b9050919050565b6000819050919050565b620004cd8362000490565b620004e5620004dc82620004b8565b84845462000426565b825550505050565b600090565b620004fc620004ed565b62000509818484620004c2565b505050565b5b81811015620005315762000525600082620004f2565b6001810190506200050f565b5050565b601f82111562000580576200054a81620003f4565b620005558462000409565b8101602085101562000565578190505b6200057d620005748562000409565b8301826200050e565b50505b505050565b600082821c905092915050565b6000620005a56000198460080262000585565b1980831691505092915050565b6000620005c0838362000592565b9150826002028217905092915050565b620005db8262000356565b67ffffffffffffffff811115620005f757620005f662000361565b5b620006038254620003bf565b6200061082828562000535565b600060209050601f83116001811462000648576000841562000633578287015190505b6200063f8582620005b2565b865550620006af565b601f1984166200065886620003f4565b60005b8281101562000682578489015182556001820191506020850194506020810190506200065b565b86831015620006a257848901516200069e601f89168262000592565b8355505b6001600288020188555050505b505050505050565b61323780620006c76000396000f3fe6080604052600436106101fd5760003560e01c8063715018a61161010d578063ac856cea116100a0578063de9b94881161006f578063de9b948814610721578063e1a452181461074c578063e74b981b14610777578063e78cea92146107a0578063f2fde38b146107aa57610204565b8063ac856cea14610679578063bf333f2c14610690578063ca9e4453146106bb578063d5f50582146106e457610204565b8063838fb7f1116100dc578063838fb7f1146105ab5780638c8c2003146105e85780638da5cb5b146106255780638ebfc7961461065057610204565b8063715018a61461051557806372070b811461052c5780637249fbb6146105575780637d57900a1461058057610204565b80633c64f04b116101905780634623c91d1161015f5780634623c91d14610454578063469048401461047d57806351858e27146104a857806354fd4d50146104bf5780635c975abb146104ea57610204565b80633c64f04b146103815780633f4218e0146103c25780633f4ba83a146103ff578063400ba0691461041657610204565b80631a179692116101cc5780631a179692146102c5578063260958a5146102f05780632a8821cc1461032d5780632f7801f41461034457610204565b806302e888991461020957806309705de8146102325780630d8e6e2c1461026f57806312679fed1461029a57610204565b3661020457005b600080fd5b34801561021557600080fd5b50610230600480360381019061022b919061271f565b6107d3565b005b34801561023e57600080fd5b506102596004803603810190610254919061275f565b610884565b604051610266919061279b565b60405180910390f35b34801561027b57600080fd5b506102846108a4565b6040516102919190612846565b60405180910390f35b3480156102a657600080fd5b506102af610936565b6040516102bc9190612881565b60405180910390f35b3480156102d157600080fd5b506102da61093c565b6040516102e79190612881565b60405180910390f35b3480156102fc57600080fd5b50610317600480360381019061031291906128d2565b610941565b60405161032491906129fc565b60405180910390f35b34801561033957600080fd5b50610342610a1d565b005b34801561035057600080fd5b5061036b6004803603810190610366919061275f565b610b53565b6040516103789190612881565b60405180910390f35b34801561038d57600080fd5b506103a860048036038101906103a391906128d2565b610b6b565b6040516103b9959493929190612a35565b60405180910390f35b3480156103ce57600080fd5b506103e960048036038101906103e4919061275f565b610bce565b6040516103f6919061279b565b60405180910390f35b34801561040b57600080fd5b50610414610bee565b005b34801561042257600080fd5b5061043d60048036038101906104389190612ab4565b610c00565b60405161044b929190612af4565b60405180910390f35b34801561046057600080fd5b5061047b6004803603810190610476919061271f565b610c94565b005b34801561048957600080fd5b50610492610e34565b60405161049f9190612b1d565b60405180910390f35b3480156104b457600080fd5b506104bd610e5a565b005b3480156104cb57600080fd5b506104d4610ee7565b6040516104e19190612846565b60405180910390f35b3480156104f657600080fd5b506104ff610f75565b60405161050c919061279b565b60405180910390f35b34801561052157600080fd5b5061052a610f8c565b005b34801561053857600080fd5b50610541610fa0565b60405161054e9190612881565b60405180910390f35b34801561056357600080fd5b5061057e600480360381019061057991906128d2565b610fa6565b005b34801561058c57600080fd5b50610595611227565b6040516105a29190612881565b60405180910390f35b3480156105b757600080fd5b506105d260048036038101906105cd91906128d2565b61122c565b6040516105df9190612881565b60405180910390f35b3480156105f457600080fd5b5061060f600480360381019061060a91906128d2565b611317565b60405161061c919061279b565b60405180910390f35b34801561063157600080fd5b5061063a611438565b6040516106479190612b1d565b60405180910390f35b34801561065c57600080fd5b506106776004803603810190610672919061271f565b611461565b005b34801561068557600080fd5b5061068e611512565b005b34801561069c57600080fd5b506106a56115e4565b6040516106b29190612881565b60405180910390f35b3480156106c757600080fd5b506106e260048036038101906106dd9190612bf3565b6115ea565b005b3480156106f057600080fd5b5061070b6004803603810190610706919061275f565b611c15565b604051610718919061279b565b60405180910390f35b34801561072d57600080fd5b50610736611c35565b6040516107439190612881565b60405180910390f35b34801561075857600080fd5b50610761611c3b565b60405161076e9190612881565b60405180910390f35b34801561078357600080fd5b5061079e6004803603810190610799919061275f565b611c41565b005b6107a8611cee565b005b3480156107b657600080fd5b506107d160048036038101906107cc919061275f565b611fa3565b005b6107db612029565b80600860008473ffffffffffffffffffffffffffffffffffffffff1673ffffffffffffffffffffffffffffffffffffffff16815260200190815260200160002060006101000a81548160ff0219169083151502179055508173ffffffffffffffffffffffffffffffffffffffff167fb996d0053f97123248d7cdf421b1f745424b78ade3df5cf1002c6d8e65561d8382604051610878919061279b565b60405180910390a25050565b60086020528060005260406000206000915054906101000a900460ff1681565b6060600b80546108b390612cb7565b80601f01602080910402602001604051908101604052809291908181526020018280546108df90612cb7565b801561092c5780601f106109015761010080835404028352916020019161092c565b820191906000526020600020905b81548152906001019060200180831161090f57829003601f168201915b5050505050905090565b60075481565b600181565b610949612628565b600560008381526020019081526020016000206040518060a00160405290816000820160009054906101000a900473ffffffffffffffffffffffffffffffffffffffff1673ffffffffffffffffffffffffffffffffffffffff1673ffffffffffffffffffffffffffffffffffffffff1681526020016001820154815260200160028201548152602001600382015481526020016004820160009054906101000a900460ff166002811115610a00576109ff61291d565b5b6002811115610a1257610a1161291d565b5b815250509050919050565b610a25612029565b600a54421015610a61576040517fb6dd9f0000000000000000000000000000000000000000000000000000000000815260040160405180910390fd5b60004790506000610a70611438565b73ffffffffffffffffffffffffffffffffffffffff1682604051610a9390612d19565b60006040518083038185875af1925050503d8060008114610ad0576040519150601f19603f3d011682016040523d82523d6000602084013e610ad5565b606091505b5050905080610b10576040517f750b219c00000000000000000000000000000000000000000000000000000000815260040160405180910390fd5b6000600a819055507fa7d096069a26edbff974ac62b79d901783aa4bd4243483de31bf3ac923e88e5982604051610b479190612881565b60405180910390a15050565b60046020528060005260406000206000915090505481565b60056020528060005260406000206000915090508060000160009054906101000a900473ffffffffffffffffffffffffffffffffffffffff16908060010154908060020154908060030154908060040160009054906101000a900460ff16905085565b60036020528060005260406000206000915054906101000a900460ff1681565b610bf6612029565b610bfe6120b0565b565b600080600360008473ffffffffffffffffffffffffffffffffffffffff1673ffffffffffffffffffffffffffffffffffffffff16815260200190815260200160002060009054906101000a900460ff1615610c615760008491509150610c8d565b6127106101f485610c729190612d5d565b610c7c9190612dce565b91508184610c8a9190612dff565b90505b9250929050565b610c9c612029565b808015610cf35750600660008373ffffffffffffffffffffffffffffffffffffffff1673ffffffffffffffffffffffffffffffffffffffff16815260200190815260200160002060009054906101000a900460ff16155b15610d155760076000815480929190610d0b90612e33565b9190505550610d8b565b80158015610d6c5750600660008373ffffffffffffffffffffffffffffffffffffffff1673ffffffffffffffffffffffffffffffffffffffff16815260200190815260200160002060009054906101000a900460ff165b15610d8a5760076000815480929190610d8490612e7b565b91905055505b5b80600660008473ffffffffffffffffffffffffffffffffffffffff1673ffffffffffffffffffffffffffffffffffffffff16815260200190815260200160002060006101000a81548160ff0219169083151502179055508173ffffffffffffffffffffffffffffffffffffffff167f763b63b30e91c843bb39e4379603697003d3b7c1f192619cd782fa33bdc4439682604051610e28919061279b565b60405180910390a25050565b600260019054906101000a900473ffffffffffffffffffffffffffffffffffffffff1681565b600860003373ffffffffffffffffffffffffffffffffffffffff1673ffffffffffffffffffffffffffffffffffffffff16815260200190815260200160002060009054906101000a900460ff16610edd576040517f6ea3b48f00000000000000000000000000000000000000000000000000000000815260040160405180910390fd5b610ee5612113565b565b600b8054610ef490612cb7565b80601f0160208091040260200160405190810160405280929190818152602001828054610f2090612cb7565b8015610f6d5780601f10610f4257610100808354040283529160200191610f6d565b820191906000526020600020905b815481529060010190602001808311610f5057829003601f168201915b505050505081565b6000600260009054906101000a900460ff16905090565b610f94612029565b610f9e6000612176565b565b60095481565b610fae61223a565b600060056000838152602001908152602001600020905060006002811115610fd957610fd861291d565b5b8160040160009054906101000a900460ff166002811115610ffd57610ffc61291d565b5b14611034576040517f3742d1f600000000000000000000000000000000000000000000000000000000815260040160405180910390fd5b3373ffffffffffffffffffffffffffffffffffffffff168160000160009054906101000a900473ffffffffffffffffffffffffffffffffffffffff1673ffffffffffffffffffffffffffffffffffffffff16146110bd576040517f3e87cffd00000000000000000000000000000000000000000000000000000000815260040160405180910390fd5b607881600301546110ce9190612ea4565b4211611106576040517f0b4d698100000000000000000000000000000000000000000000000000000000815260040160405180910390fd5b60028160040160006101000a81548160ff0219169083600281111561112e5761112d61291d565b5b021790555060008160010154905060003373ffffffffffffffffffffffffffffffffffffffff168260405161116290612d19565b60006040518083038185875af1925050503d806000811461119f576040519150601f19603f3d011682016040523d82523d6000602084013e6111a4565b606091505b50509050806111df576040517ff0c49d4400000000000000000000000000000000000000000000000000000000815260040160405180910390fd5b837ff552ca82e113ac3c539c3d617f29fcd19c172a0c75dad017555c9e109f7fe1833384604051611211929190612ed8565b60405180910390a2505050611224612280565b50565b607881565b600080600560008481526020019081526020016000206040518060a00160405290816000820160009054906101000a900473ffffffffffffffffffffffffffffffffffffffff1673ffffffffffffffffffffffffffffffffffffffff1673ffffffffffffffffffffffffffffffffffffffff1681526020016001820154815260200160028201548152602001600382015481526020016004820160009054906101000a900460ff1660028111156112e6576112e561291d565b5b60028111156112f8576112f761291d565b5b8152505090506078816060015161130f9190612ea4565b915050919050565b600080600560008481526020019081526020016000206040518060a00160405290816000820160009054906101000a900473ffffffffffffffffffffffffffffffffffffffff1673ffffffffffffffffffffffffffffffffffffffff1673ffffffffffffffffffffffffffffffffffffffff1681526020016001820154815260200160028201548152602001600382015481526020016004820160009054906101000a900460ff1660028111156113d1576113d061291d565b5b60028111156113e3576113e261291d565b5b815250509050600060028111156113fd576113fc61291d565b5b816080015160028111156114145761141361291d565b5b14801561143057506078816060015161142d9190612ea4565b42115b915050919050565b60008060009054906101000a900473ffffffffffffffffffffffffffffffffffffffff16905090565b611469612029565b80600360008473ffffffffffffffffffffffffffffffffffffffff1673ffffffffffffffffffffffffffffffffffffffff16815260200190815260200160002060006101000a81548160ff0219169083151502179055508173ffffffffffffffffffffffffffffffffffffffff167f4d5771454588f51370a8a2e7e151354b6de0dc3159b14821b4ad76bc04c28bc782604051611506919061279b565b60405180910390a25050565b600860003373ffffffffffffffffffffffffffffffffffffffff1673ffffffffffffffffffffffffffffffffffffffff16815260200190815260200160002060009054906101000a900460ff16611595576040517f6ea3b48f00000000000000000000000000000000000000000000000000000000815260040160405180910390fd5b600954426115a39190612ea4565b600a819055507f3cdaaaa0889822285645e1c79bcbd834c5dd93816b66671ab5a743ac0c53358e600a546040516115da9190612881565b60405180910390a1565b6101f481565b6115f261223a565b6115fa612289565b6000600560008781526020019081526020016000209050600060028111156116255761162461291d565b5b8160040160009054906101000a900460ff1660028111156116495761164861291d565b5b14611680576040517f475a253500000000000000000000000000000000000000000000000000000000815260040160405180910390fd5b600073ffffffffffffffffffffffffffffffffffffffff168160000160009054906101000a900473ffffffffffffffffffffffffffffffffffffffff1673ffffffffffffffffffffffffffffffffffffffff160361170a576040517f3b2a862c00000000000000000000000000000000000000000000000000000000815260040160405180910390fd5b828290508585905014611749576040517f815e1d6400000000000000000000000000000000000000000000000000000000815260040160405180910390fd5b6001858590501015611787576040517fe246dc6300000000000000000000000000000000000000000000000000000000815260040160405180910390fd5b6000868260000160009054906101000a900473ffffffffffffffffffffffffffffffffffffffff168360020154306040516020016117c89493929190612f8b565b60405160208183030381529060405280519060200120905060006117eb826122ca565b905060008585905067ffffffffffffffff81111561180c5761180b612fd9565b5b60405190808252806020026020018201604052801561183a5781602001602082028036833780820191505090505b50905060005b88889050811015611ac35760006118be848b8b8581811061186457611863613008565b5b90506020028101906118769190613046565b8080601f016020809104026020016040519081016040528093929190818152602001838380828437600081840152601f19601f82011690508083019250505050505050612300565b90508787838181106118d3576118d2613008565b5b90506020020160208101906118e8919061275f565b73ffffffffffffffffffffffffffffffffffffffff168173ffffffffffffffffffffffffffffffffffffffff161461194c576040517f815e1d6400000000000000000000000000000000000000000000000000000000815260040160405180910390fd5b600660008273ffffffffffffffffffffffffffffffffffffffff1673ffffffffffffffffffffffffffffffffffffffff16815260200190815260200160002060009054906101000a900460ff166119cf576040517f54ac7bfc00000000000000000000000000000000000000000000000000000000815260040160405180910390fd5b60005b82811015611a66578173ffffffffffffffffffffffffffffffffffffffff16848281518110611a0457611a03613008565b5b602002602001015173ffffffffffffffffffffffffffffffffffffffff1603611a59576040517f8044bb3300000000000000000000000000000000000000000000000000000000815260040160405180910390fd5b80806001019150506119d2565b5080838381518110611a7b57611a7a613008565b5b602002602001019073ffffffffffffffffffffffffffffffffffffffff16908173ffffffffffffffffffffffffffffffffffffffff1681525050508080600101915050611840565b5060018460040160006101000a81548160ff02191690836002811115611aec57611aeb61291d565b5b02179055506000611afb611438565b73ffffffffffffffffffffffffffffffffffffffff168560010154604051611b2290612d19565b60006040518083038185875af1925050503d8060008114611b5f576040519150601f19603f3d011682016040523d82523d6000602084013e611b64565b606091505b5050905080611b9f576040517f096dc0e100000000000000000000000000000000000000000000000000000000815260040160405180910390fd5b897f3a5e0271cd79026f0993aa13e6dd17d1f34284aa2340c1d2c33653b9a4433ee98660000160009054906101000a900473ffffffffffffffffffffffffffffffffffffffff168760020154604051611bf9929190612ed8565b60405180910390a25050505050611c0e612280565b5050505050565b60066020528060005260406000206000915054906101000a900460ff1681565b600a5481565b61271081565b611c49612029565b6000600260019054906101000a900473ffffffffffffffffffffffffffffffffffffffff16905081600260016101000a81548173ffffffffffffffffffffffffffffffffffffffff021916908373ffffffffffffffffffffffffffffffffffffffff1602179055507faaebcf1bfa00580e41d966056b48521fa9f202645c86d4ddf28113e617c1b1d38183604051611ce29291906130a9565b60405180910390a15050565b611cf661223a565b611cfe612289565b60003403611d38576040517f2c5211c600000000000000000000000000000000000000000000000000000000815260040160405180910390fd5b600080349050600360003373ffffffffffffffffffffffffffffffffffffffff1673ffffffffffffffffffffffffffffffffffffffff16815260200190815260200160002060009054906101000a900460ff16611dbb576127106101f434611da09190612d5d565b611daa9190612dce565b91508134611db89190612dff565b90505b6000600460003373ffffffffffffffffffffffffffffffffffffffff1673ffffffffffffffffffffffffffffffffffffffff1681526020019081526020016000206000815480929190611e0d90612e33565b91905055905060003334428430604051602001611e2e9594939291906130d2565b6040516020818303038152906040528051906020012090506040518060a001604052803373ffffffffffffffffffffffffffffffffffffffff16815260200134815260200184815260200142815260200160006002811115611e9357611e9261291d565b5b8152506005600083815260200190815260200160002060008201518160000160006101000a81548173ffffffffffffffffffffffffffffffffffffffff021916908373ffffffffffffffffffffffffffffffffffffffff16021790555060208201518160010155604082015181600201556060820151816003015560808201518160040160006101000a81548160ff02191690836002811115611f3957611f3861291d565b5b02179055509050503373ffffffffffffffffffffffffffffffffffffffff167f719ab00511e884d1ea4921ee843132435dc006b0bb7f8b67fb693b621e45bb5334858442604051611f8d9493929190613140565b60405180910390a250505050611fa1612280565b565b611fab612029565b600073ffffffffffffffffffffffffffffffffffffffff168173ffffffffffffffffffffffffffffffffffffffff160361201d5760006040517f1e4fbdf70000000000000000000000000000000000000000000000000000000081526004016120149190612b1d565b60405180910390fd5b61202681612176565b50565b61203161232c565b73ffffffffffffffffffffffffffffffffffffffff1661204f611438565b73ffffffffffffffffffffffffffffffffffffffff16146120ae5761207261232c565b6040517f118cdaa70000000000000000000000000000000000000000000000000000000081526004016120a59190612b1d565b60405180910390fd5b565b6120b8612334565b6000600260006101000a81548160ff0219169083151502179055507f5db9ee0a495bf2e6ff9c91a7834c1ba4fdd244a5e8aa4e537bd38aeae4b073aa6120fc61232c565b6040516121099190612b1d565b60405180910390a1565b61211b612289565b6001600260006101000a81548160ff0219169083151502179055507f62e78cea01bee320cd4e420270b5ea74000d11b0c9f74754ebdbfc544b05a25861215f61232c565b60405161216c9190612b1d565b60405180910390a1565b60008060009054906101000a900473ffffffffffffffffffffffffffffffffffffffff169050816000806101000a81548173ffffffffffffffffffffffffffffffffffffffff021916908373ffffffffffffffffffffffffffffffffffffffff1602179055508173ffffffffffffffffffffffffffffffffffffffff168173ffffffffffffffffffffffffffffffffffffffff167f8be0079c531659141344cd1fd0a4f28419497f9722a3daafe3b4186f6b6457e060405160405180910390a35050565b600260015403612276576040517f3ee5aeb500000000000000000000000000000000000000000000000000000000815260040160405180910390fd5b6002600181905550565b60018081905550565b612291610f75565b156122c8576040517fd93c066500000000000000000000000000000000000000000000000000000000815260040160405180910390fd5b565b60007f19457468657265756d205369676e6564204d6573736167653a0a33320000000060005281601c52603c6000209050919050565b6000806000806123108686612374565b92509250925061232082826123d0565b82935050505092915050565b600033905090565b61233c610f75565b612372576040517f8dfc202b00000000000000000000000000000000000000000000000000000000815260040160405180910390fd5b565b600080600060418451036123b95760008060006020870151925060408701519150606087015160001a90506123ab88828585612534565b9550955095505050506123c9565b60006002855160001b9250925092505b9250925092565b600060038111156123e4576123e361291d565b5b8260038111156123f7576123f661291d565b5b031561253057600160038111156124115761241061291d565b5b8260038111156124245761242361291d565b5b0361245b576040517ff645eedf00000000000000000000000000000000000000000000000000000000815260040160405180910390fd5b6002600381111561246f5761246e61291d565b5b8260038111156124825761248161291d565b5b036124c7578060001c6040517ffce698f70000000000000000000000000000000000000000000000000000000081526004016124be9190612881565b60405180910390fd5b6003808111156124da576124d961291d565b5b8260038111156124ed576124ec61291d565b5b0361252f57806040517fd78bce0c0000000000000000000000000000000000000000000000000000000081526004016125269190613185565b60405180910390fd5b5b5050565b60008060007f7fffffffffffffffffffffffffffffff5d576e7357a4501ddfe92f46681b20a08460001c111561257457600060038592509250925061261e565b60006001888888886040516000815260200160405260405161259994939291906131bc565b6020604051602081039080840390855afa1580156125bb573d6000803e3d6000fd5b505050602060405103519050600073ffffffffffffffffffffffffffffffffffffffff168173ffffffffffffffffffffffffffffffffffffffff160361260f57600060016000801b9350935093505061261e565b8060008060001b935093509350505b9450945094915050565b6040518060a00160405280600073ffffffffffffffffffffffffffffffffffffffff168152602001600081526020016000815260200160008152602001600060028111156126795761267861291d565b5b81525090565b600080fd5b600080fd5b600073ffffffffffffffffffffffffffffffffffffffff82169050919050565b60006126b482612689565b9050919050565b6126c4816126a9565b81146126cf57600080fd5b50565b6000813590506126e1816126bb565b92915050565b60008115159050919050565b6126fc816126e7565b811461270757600080fd5b50565b600081359050612719816126f3565b92915050565b600080604083850312156127365761273561267f565b5b6000612744858286016126d2565b92505060206127558582860161270a565b9150509250929050565b6000602082840312156127755761277461267f565b5b6000612783848285016126d2565b91505092915050565b612795816126e7565b82525050565b60006020820190506127b0600083018461278c565b92915050565b600081519050919050565b600082825260208201905092915050565b60005b838110156127f05780820151818401526020810190506127d5565b60008484015250505050565b6000601f19601f8301169050919050565b6000612818826127b6565b61282281856127c1565b93506128328185602086016127d2565b61283b816127fc565b840191505092915050565b60006020820190508181036000830152612860818461280d565b905092915050565b6000819050919050565b61287b81612868565b82525050565b60006020820190506128966000830184612872565b92915050565b6000819050919050565b6128af8161289c565b81146128ba57600080fd5b50565b6000813590506128cc816128a6565b92915050565b6000602082840312156128e8576128e761267f565b5b60006128f6848285016128bd565b91505092915050565b612908816126a9565b82525050565b61291781612868565b82525050565b7f4e487b7100000000000000000000000000000000000000000000000000000000600052602160045260246000fd5b6003811061295d5761295c61291d565b5b50565b600081905061296e8261294c565b919050565b600061297e82612960565b9050919050565b61298e81612973565b82525050565b60a0820160008201516129aa60008501826128ff565b5060208201516129bd602085018261290e565b5060408201516129d0604085018261290e565b5060608201516129e3606085018261290e565b5060808201516129f66080850182612985565b50505050565b600060a082019050612a116000830184612994565b92915050565b612a20816126a9565b82525050565b612a2f81612973565b82525050565b600060a082019050612a4a6000830188612a17565b612a576020830187612872565b612a646040830186612872565b612a716060830185612872565b612a7e6080830184612a26565b9695505050505050565b612a9181612868565b8114612a9c57600080fd5b50565b600081359050612aae81612a88565b92915050565b60008060408385031215612acb57612aca61267f565b5b6000612ad985828601612a9f565b9250506020612aea858286016126d2565b9150509250929050565b6000604082019050612b096000830185612872565b612b166020830184612872565b9392505050565b6000602082019050612b326000830184612a17565b92915050565b600080fd5b600080fd5b600080fd5b60008083601f840112612b5d57612b5c612b38565b5b8235905067ffffffffffffffff811115612b7a57612b79612b3d565b5b602083019150836020820283011115612b9657612b95612b42565b5b9250929050565b60008083601f840112612bb357612bb2612b38565b5b8235905067ffffffffffffffff811115612bd057612bcf612b3d565b5b602083019150836020820283011115612bec57612beb612b42565b5b9250929050565b600080600080600060608688031215612c0f57612c0e61267f565b5b6000612c1d888289016128bd565b955050602086013567ffffffffffffffff811115612c3e57612c3d612684565b5b612c4a88828901612b47565b9450945050604086013567ffffffffffffffff811115612c6d57612c6c612684565b5b612c7988828901612b9d565b92509250509295509295909350565b7f4e487b7100000000000000000000000000000000000000000000000000000000600052602260045260246000fd5b60006002820490506001821680612ccf57607f821691505b602082108103612ce257612ce1612c88565b5b50919050565b600081905092915050565b50565b6000612d03600083612ce8565b9150612d0e82612cf3565b600082019050919050565b6000612d2482612cf6565b9150819050919050565b7f4e487b7100000000000000000000000000000000000000000000000000000000600052601160045260246000fd5b6000612d6882612868565b9150612d7383612868565b9250828202612d8181612868565b91508282048414831517612d9857612d97612d2e565b5b5092915050565b7f4e487b7100000000000000000000000000000000000000000000000000000000600052601260045260246000fd5b6000612dd982612868565b9150612de483612868565b925082612df457612df3612d9f565b5b828204905092915050565b6000612e0a82612868565b9150612e1583612868565b9250828203905081811115612e2d57612e2c612d2e565b5b92915050565b6000612e3e82612868565b91507fffffffffffffffffffffffffffffffffffffffffffffffffffffffffffffffff8203612e7057612e6f612d2e565b5b600182019050919050565b6000612e8682612868565b915060008203612e9957612e98612d2e565b5b600182039050919050565b6000612eaf82612868565b9150612eba83612868565b9250828201905080821115612ed257612ed1612d2e565b5b92915050565b6000604082019050612eed6000830185612a17565b612efa6020830184612872565b9392505050565b6000819050919050565b612f1c612f178261289c565b612f01565b82525050565b60008160601b9050919050565b6000612f3a82612f22565b9050919050565b6000612f4c82612f2f565b9050919050565b612f64612f5f826126a9565b612f41565b82525050565b6000819050919050565b612f85612f8082612868565b612f6a565b82525050565b6000612f978287612f0b565b602082019150612fa78286612f53565b601482019150612fb78285612f74565b602082019150612fc78284612f53565b60148201915081905095945050505050565b7f4e487b7100000000000000000000000000000000000000000000000000000000600052604160045260246000fd5b7f4e487b7100000000000000000000000000000000000000000000000000000000600052603260045260246000fd5b600080fd5b600080fd5b600080fd5b6000808335600160200384360303811261306357613062613037565b5b80840192508235915067ffffffffffffffff8211156130855761308461303c565b5b6020830192506001820236038313156130a1576130a0613041565b5b509250929050565b60006040820190506130be6000830185612a17565b6130cb6020830184612a17565b9392505050565b60006130de8288612f53565b6014820191506130ee8287612f74565b6020820191506130fe8286612f74565b60208201915061310e8285612f74565b60208201915061311e8284612f53565b6014820191508190509695505050505050565b61313a8161289c565b82525050565b60006080820190506131556000830187612872565b6131626020830186612872565b61316f6040830185613131565b61317c6060830184612872565b95945050505050565b600060208201905061319a6000830184613131565b92915050565b600060ff82169050919050565b6131b6816131a0565b82525050565b60006080820190506131d16000830187613131565b6131de60208301866131ad565b6131eb6040830185613131565b6131f86060830184613131565b9594505050505056fea26469706673582212203f26a2d6256d7fa659fcf1eebec31245faecd9e6d108a5222dc448e574ad0e5d64736f6c63430008160033",
  "linkReferences": {},
  "deployedLinkReferences": {}
}